:020000040804EE
:100000005024002009EA0408FDE80408FFE8040879
:1000100001E9040803E9040805E9040800000000F8
:1000200000000000000000000000000007E90408D4
:1000300009E90408000000000BE904080DE90408C0
:1000400025EA040829EA04082DEA040831EA04082C
:1000500035EA040839EA04083DEA040841EA0408DC
:1000600045EA040849EA04084DEA040851EA04088C
:1000700055EA040859EA04085DEA040861EA04083C
:1000800065EA040869EA04086DEA040871EA0408EC
:1000900075EA040879EA04087DEA040881EA04089C
:1000A00085EA040889EA04088DEA040891EA04084C
:1000B00095EA040899EA04089DEA0408A1EA0408FC
:1000C000A5EA0408A9EA0408ADEA0408B1EA0408AC
:1000D000B5EA0408B9EA0408BDEA0408C1EA04085C
:1000E000C5EA0408C9EA040800000000CDEA0408D3
:1000F000D1EA0408D5EA0408D9EA0408DDEA0408CC
:10010000E1EA0408E5EA0408E9EA0408EDEA04087B
:10011000F1EA0408F5EA0408F9EA0408FDEA04082B
:1001200001EB040805EB040809EB04080DEB0408D7
:1001300011EB040815EB040819EB04081DEB040887
:1001400021EB040825EB040800000000000000007B
:1001500029EB04082DEB040831EB040835EB040807
:1001600039EB04083DEB040841EB040845EB0408B7
:1001700049EB04084DEB040851EB040855EB040867
:1001800059EB04085DEB040861EB040865EB040817
:1001900069EB04086DEB040871EB040875EB0408C7
:1001A00079EB04087DEB040881EB040885EB040877
:1001B00089EB04088DEB040891EB040895EB040827
:1001C00099EB04089DEB0408A1EB0408A5EB0408D7
:1001D000A9EB0408ADEB0408B1EB0408B5EB040887
:1001E000B9EB0408BDEB0408C1EB0408C5EB040837
:1001F000C9EB0408CDEB0408D1EB0408D5EB0408E7
:10020000D9EB0408DDEB0408E1EB0408E5EB040896
:10021000E9EB0408EDEB0408F1EB0408F5EB040846
:10022000F9EB0408FDEB040801EC040805EC0408F4
:1002300009EC04080DEC040811EC040815EC0408A2
:1002400019EC04081DEC040821EC040825EC040852
:1002500029EC04082DEC040831EC040835EC040802
:1002600039EC04083DEC040841EC040845EC0408B2
:1002700049EC04084DEC040851EC040855EC040862
:1002800059EC04085DEC040861EC040865EC040812
:1002900069EC04086DEC0408000000000000000098
:1002A000000000000000000000000000000000004E
:1002B000000000000000000000000000000000003E
:1002C000000000000000000000000000000000002E
:1002D000000000000000000000000000000000001E
:1002E0000000000000000380000380000380000382
:1002F00080000380000380000380000380000380EF
:100300000001000001000000000000000003800068
:10031000038000000000000000000000000000005A
:1003200000000000000000000000000000000000CD
:10033000000E70000E70000E7000042000042000FB
:100340000420000420000000000000000000000065
:10035000000000000000000000000000000000009D
:10036000000000000000000000000000000000008D
:100370000000000000000660000660000660000645
:1003800060000660003FF8003FF8000660000CC007
:10039000003FF8003FF8000CC0000CC0000CC0008B
:1003A0000CC0000CC00000000000000000000000B5
:1003B000000000000000000000000001800001803B
:1003C0000007B0000FF0001870001870001C00004B
:1003D0000F800007E00000F0001830001C30001C07
:1003E00070001FE0001BC000018000018000018040
:1003F000000180000000000000000000000000007C
:100400000000000000000780000FC0001CE0001882
:1004100060001860001CE0000FF80007E0001FF00B
:100420000007380006180006180007380003F0001F
:1004300001E00000000000000000000000000000DB
:1004400000000000000000000000000000000000AC
:100450000000000003F00007F0000C60000C00003A
:100460000C00000600000700000F9C001DFC001897
:10047000F0001870000FFC0007DC00000000000016
:10048000000000000000000000000000000000006C
:100490000000000000000000000380000380000353
:1004A00080000100000100000100000100000000C8
:1004B000000000000000000000000000000000003C
:1004C000000000000000000000000000000000002C
:1004D0000000000000000000000000000000001804
:1004E0000000380000700000F00000E00000E000B4
:1004F00001C00001C00001C00001C00001C0000136
:10050000C00000E00000E000007000007000003853
:1005100000001800000000000000000000000000C3
:100520000000000000001800001C00000E00000E7B
:100530000000070000070000038000038000038024
:100540000003800003800003800007000007000014
:100550000F00000E00001C0000180000000000004A
:10056000000000000000000000000000000001800A
:10057000000180000180001DB8001FF80007E000A6
:1005800003C00003C0000660000660000000000019
:10059000000000000000000000000000000000005B
:1005A000000000000000000000000000000000004B
:1005B00000000000000000000000000001800001B9
:1005C00080000180000180000180003FFC003FFCB2
:1005D0000001800001800001800001800001800096
:1005E000000000000000000000000000000000000B
:1005F00000000000000000000000000000000000FB
:1006000000000000000000000000000000000000EA
:1006100000000000000000000000000000000000DA
:10062000000000E00000C00001C000018000018067
:1006300000030000030000000000000000000000B4
:1006400000000000000000000000000000000000AA
:1006500000000000000000000000001FF8001FF86C
:10066000000000000000000000000000000000008A
:10067000000000000000000000000000000000007A
:10068000000000000000000000000000000000006A
:10069000000000000000000000000000000000005A
:1006A000000000000000000000000000000000004A
:1006B000000003C00003C00003C0000000000000F1
:1006C000000000000000000000000000000000002A
:1006D0000018000018000038000030000070000012
:1006E000600000600000C00000C0000180000180C8
:1006F000000300000300000600000600000E0000DA
:100700000C00001C00001800001800000000000091
:10071000000000000000000000000000000003C016
:100720000007E0000C30000C30001818001818000A
:100730001818001818001818001818001818000CBD
:1007400030000C300007E00003C000000000000093
:100750000000000000000000000000000000000099
:100760000000000000000080000780001F80001DC6
:100770008000018000018000018000018000018074
:10078000000180000180000180000180001FF8004E
:100790001FF8000000000000000000000000000042
:1007A000000000000000000000000000000007C082
:1007B000001FF0003830003018003018000018001A
:1007C00000300000600001C0000380000600000C43
:1007D00000001800003FF8003FF800000000000093
:1007E0000000000000000000000000000000000009
:1007F00000000000000003C0000FE0000C700000CB
:10080000300000300000600003C00003E000007012
:10081000000018000018000018001838001FF00031
:100820000FC00000000000000000000000000000F9
:10083000000000000000000000000000000000E0D8
:100840000001E00001E000036000066000066000B7
:100850000C60000C60001860003060003FF8003F42
:10086000F80000600003F80003F80000000000003A
:100870000000000000000000000000000000000078
:100880000000000000001FF0001FF000180000181A
:1008900000001800001BC0001FF0001C30000018F2
:1008A000000018000018000018003030003FF00071
:1008B0000FC0000000000000000000000000000069
:1008C000000000000000000000000000000000F830
:1008D0000003F8000700000E00000C0000180000E4
:1008E0001BC0001FF0001C3000181800181800185A
:1008F00018000C38000FF00003E0000000000000BA
:1009000000000000000000000000000000000000E7
:100910000000000000001FF8001FF8001818001861
:1009200038000030000030000070000060000060FF
:100930000000E00000C00000C00001C00001800015
:100940000180000000000000000000000000000026
:10095000000000000000000000000000000007E0B0
:10096000000FF0001C38001818001818000C300098
:1009700007E00007E0000C300018180018180018F5
:1009800018001C38000FF00007E000000000000015
:100990000000000000000000000000000000000057
:1009A00000000000000007C0000FF0001C3000181D
:1009B00018001818001818000C38000FF80003D899
:1009C0000000180000300000700000E0001FC000B0
:1009D0001F000000000000000000000000000000F8
:1009E0000000000000000000000000000000000007
:1009F0000000000000000000000003C00003C00071
:100A000003C0000000000000000000000000000023
:100A1000000003C00003C00003C00000000000008D
:100A200000000000000000000000000000000000C6
:100A300000000000000000000000000000000000B6
:100A4000000000F00000F00000F0000000000000D6
:100A50000000000000000000E00001C00001800074
:100A60000180000300000200000000000000000000
:100A70000000000000000000000000000000000076
:100A800000000000001C00003C0000F00003C0005B
:100A90000F00003C0000F000003C00000F000003CD
:100AA000C00000F000003C00001C0000000000003E
:100AB0000000000000000000000000000000000036
:100AC0000000000000000000000000000000000026
:100AD00000000000007FFC007FFC00000000000020
:100AE000007FFC007FFC0000000000000000000010
:100AF00000000000000000000000000000000000F6
:100B000000000000000000000000000000000000E5
:100B1000000000007000007800001E000007800048
:100B200001E000007800001E0000780001E00007EE
:100B300080001E000078000070000000000000002F
:100B400000000000000000000000000000000000A5
:100B500000000000000000000007C0000FE00018C7
:100B6000700018300018300000700000E00003C072
:100B700000038000030000000000000000070000E8
:100B8000070000000000000000000000000000005E
:100B9000000000000000000000000000000003E072
:100BA0000007F0000E38000C180018780018F80044
:100BB00019D80019980019980019980018F8001809
:100BC00078001800000C00000E180007F80003E081
:100BD0000000000000000000000000000000000015
:100BE0000000000000000000001F80001FC0000186
:100BF000C0000360000360000630000630000C30C7
:100C0000000FF8001FF800180C00300C00FC7F00EB
:100C1000FC7F000000000000000000000000000059
:100C200000000000000000000000000000000000C4
:100C3000007FE0007FF00018380018180018180036
:100C40001838001FF0001FF800181C00180C0018BE
:100C50000C00180C007FF8007FF00000000000007E
:100C60000000000000000000000000000000000084
:100C700000000000000000000003EC000FFC001C5E
:100C80001C00180C00300C00300000300000300058
:100C900000300000300000180C001C1C000FF80091
:100CA00003F0000000000000000000000000000051
:100CB0000000000000000000000000000000000034
:100CC000007FC0007FF000183800181800180C00D2
:100CD000180C00180C00180C00180C00180C001848
:100CE00018001838007FF0007FE0000000000000CE
:100CF00000000000000000000000000000000000F4
:100D00000000000000000000007FF8007FF80018DD
:100D100018001818001998001980001F80001F8003
:100D2000001980001998001818001818007FF800A2
:100D30007FF800000000000000000000000000003C
:100D400000000000000000000000000000000000A3
:100D5000003FFC003FFC000C0C000C0C000CCC0015
:100D60000CC0000FC0000FC0000CC0000CC0000C75
:100D700000000C00003FC0003FC000000000000069
:100D80000000000000000000000000000000000063
:100D900000000000000000000003EC000FFC001C3D
:100DA0001C00180C00300C0030000030000030FE39
:100DB0000030FE00300C00380C001C1C000FFC0042
:100DC00003F0000000000000000000000000000030
:100DD0000000000000000000000000000000000013
:100DE000007E7E007E7E001818001818001818007B
:100DF0001818001FF8001FF800181800181800181D
:100E000018001818007E7E007E7E000000000000A2
:100E100000000000000000000000000000000000D2
:100E20000000000000000000001FF8001FF8000193
:100E300080000180000180000180000180000180AD
:100E4000000180000180000180000180001FF80087
:100E50001FF800000000000000000000000000007B
:100E60000000000000000000000000000000000082
:100E70000007FE0007FE00003000003000003000D8
:100E800000300000300030300030300030300030B2
:100E900030003060003FE0000F80000000000000E4
:100EA0000000000000000000000000000000000042
:100EB0000000000000000000007F3E007F3E0018A0
:100EC000300018600018C0001980001B80001FC08F
:100ED000001CE0001870001830001838007F1F0058
:100EE0007F1F000000000000000000000000000064
:100EF00000000000000000000000000000000000F2
:100F0000007F80007F80000C00000C00000C0000BF
:100F10000C00000C00000C00000C0C000C0C000C71
:100F20000C000C0C007FFC007FFC000000000000A7
:100F300000000000000000000000000000000000B1
:100F4000000000000000000000F00F00F81F003853
:100F50001C003C3C003C3C00366C00366C0033CC42
:100F60000033CC00318C00300C00300C00FE7F00D0
:100F7000FE7F0000000000000000000000000000F4
:100F80000000000000000000000000000000000061
:100F90000078FE0078FE001C18001E18001F1800C4
:100FA0001B18001B980019D80018D80018F8001852
:100FB00078001838007F18007F180000000000003B
:100FC0000000000000000000000000000000000021
:100FD00000000000000000000003C0000FF0001C33
:100FE0003800181800381C00300C00300C00300C91
:100FF00000300C00381C001818001C38000FF000DE
:1010000003C000000000000000000000000000001D
:1010100000000000000000000000000000000000D0
:10102000003FF0003FF8000C1C000C0C000C0C0002
:101030000C0C000C18000FF8000FE0000C00000C66
:1010400000000C00003FC0003FC000000000000096
:101050000000000000000000000000000000000090
:1010600000000000000000000003C0000FF0001CA2
:101070003800181800381C00300C00300C00300C00
:1010800000300C00381C001818001C38000FF0004D
:1010900007C00007CC000FFC000C38000000000067
:1010A0000000000000000000000000000000000040
:1010B000007FE0007FF000183800181800181800B2
:1010C0001838001FF0001FC00018E000187000184A
:1010D00030001838007F1E007F0E00000000000066
:1010E0000000000000000000000000000000000000
:1010F00000000000000000000007D8000FF8001CEE
:1011000038001818001818001E00000FC00003F067
:10111000000078001818001818001C38001FF00094
:101120001BE00000000000000000000000000000C4
:1011300000000000000000000000000000000000AF
:10114000003FFC003FFC00318C00318C00318C00F2
:10115000318C0001800001800001800001800001CD
:1011600080000180000FF0000FF000000000000080
:10117000000000000000000000000000000000006F
:101180000000000000000000007E7E007E7E00184F
:101190001800181800181800181800181800181847
:1011A000001818001818001818000C30000FF00074
:1011B00003C000000000000000000000000000006C
:1011C000000000000000000000000000000000001F
:1011D000007F7F007F7F00180C000C18000C1800A7
:1011E0000C180006300006300003600003600003A6
:1011F000600001C00001C00000800000000000008D
:1012000000000000000000000000000000000000DE
:10121000000000000000000000FE3F80FE3F803024
:10122000060030060030860019CC0019CC001B6C7B
:10123000001B6C001E7C000E38000E38000C1800DD
:101240000C1800000000000000000000000000007A
:10125000000000000000000000000000000000008E
:10126000007E7E007E7E001818000C3000066000B4
:1012700003C00001800001800003C0000660000C74
:1012800030001818007E7E007E7E00000000000006
:10129000000000000000000000000000000000004E
:1012A0000000000000000000007C7E007C7E001832
:1012B00018000C300006600006600003C0000180CA
:1012C000000180000180000180000180000FF0001B
:1012D0000FF000000000000000000000000000000F
:1012E00000000000000000000000000000000000FE
:1012F000001FF8001FF800181800183000186000D0
:1013000018C0000180000300000618000C18001827
:1013100018003018003FF8003FF8000000000000FF
:1013200000000000000000000000000000000000BD
:1013300000000000000001F00001F0000180000149
:101340008000018000018000018000018000018098
:101350000001800001800001800001800001800008
:1013600001800001800001F00001F0000000000099
:1013700000000000000000001800001800001C0021
:10138000000C00000E000006000006000003000034
:1013900003000001800001800000C00000C00000C8
:1013A000600000600000700000300000380000188D
:1013B0000000180000000000000000000000000015
:1013C0000000000000000F80000F8000018000017D
:1013D0008000018000018000018000018000018008
:1013E0000001800001800001800001800001800078
:1013F0000180000180000F80000F800000000000CD
:10140000000000000000000000000000800001C09B
:101410000003E0000770000630000C1800180C00F4
:1014200010040000000000000000000000000000A8
:1014300000000000000000000000000000000000AC
:10144000000000000000000000000000000000009C
:10145000000000000000000000000000000000008C
:10146000000000000000000000000000000000007C
:10147000000000000000000000000000000000006C
:10148000000000000000000000000000000000005C
:101490000000FFFF00FFFF000000000300000380CA
:1014A0000000E000006000000000000000000000FC
:1014B000000000000000000000000000000000002C
:1014C000000000000000000000000000000000001C
:1014D000000000000000000000000000000000000C
:1014E00000000000000000000000000000000000FC
:1014F00000000FC0001FE00000300000300007F0C7
:10150000001FF0003830003030003070001FFC0049
:101510000FBC000000000000000000000000000000
:101520000000000000000000000000000000780043
:10153000007800001800001800001BE0001FF800F1
:101540001C1800180C00180C00180C00180C0018BF
:101550000C001C18007FF8007BE000000000000079
:10156000000000000000000000000000000000007B
:10157000000000000000000000000000000000006B
:10158000000003EC000FFC001C1C00380C00300CA9
:1015900000300000300000380C001C1C000FF80068
:1015A00003F0000000000000000000000000000048
:1015B00000000000000000000000000000000078B3
:1015C0000000780000180000180007D8001FF8007D
:1015D000183800301800301800301800301800306B
:1015E00018001838001FFE0007DE00000000000091
:1015F00000000000000000000000000000000000EB
:1016000000000000000000000000000000000000DA
:10161000000007E0001FF800181800300C003FFC25
:10162000003FFC00300000300000180C001FFC00E0
:1016300007F00000000000000000000000000000B3
:10164000000000000000000000000000000001FC9D
:101650000003FC000600000600003FF8003FF80011
:101660000600000600000600000600000600000656
:1016700000000600003FF0003FF000000000000006
:10168000000000000000000000000000000000005A
:10169000000000000000000000000000000000004A
:1016A000000007DE001FFE00183800301800301858
:1016B000003018003018003018001838001FF800EB
:1016C00007D8000018000018000038000FF0000FC5
:1016D000C0000000000000000000000000007800D2
:1016E000007800001800001800001BE0001FF00048
:1016F0001C380018180018180018180018180018BE
:1017000018001818007E7E007E7E00000000000099
:1017100000000000000000000000000000000000C9
:1017200000000000000001800001800000000000B7
:1017300000001F80001F80000180000180000180E8
:10174000000180000180000180000180003FFC005A
:101750003FFC00000000000000000000000000004E
:10176000000000000000000000000000000000C0B9
:101770000000C0000000000000001FF0001FF0008B
:101780000030000030000030000030000030000069
:101790003000003000003000003000003000003029
:1017A000000070001FE0001F80000000000000002B
:1017B0000000000000003C00003C00000C00000C99
:1017C00000000CF8000CF8000CC0000D80000F8029
:1017D000000F00000F80000DC0000CE0003C7C00FA
:1017E0003C7C000000000000000000000000000041
:1017F00000000000000000000000000000001F804A
:10180000001F800001800001800001800001800035
:101810000180000180000180000180000180000142
:1018200080000180003FFC003FFC00000000000041
:1018300000000000000000000000000000000000A8
:101840000000000000000000000000000000000098
:101850000000F77800FFFC0039CC00318C00318C9F
:1018600000318C00318C00318C00318C00FDEF0098
:10187000FDEF00000000000000000000000000007C
:101880000000000000000000000000000000000058
:10189000000000000000000000007BE0007FF0007E
:1018A0001C3800181800181800181800181800180C
:1018B00018001818007E7E007E7E000000000000E8
:1018C0000000000000000000000000000000000018
:1018D0000000000000000000000000000000000008
:1018E000000003C0000FF0001C3800381C00300C52
:1018F00000300C00300C00381C001C38000FF000C9
:1019000003C0000000000000000000000000000014
:1019100000000000000000000000000000000000C7
:10192000000000000000000000007BE0007FF800E5
:101930001C1800180C00180C00180C00180C0018CB
:101940000C001C18001FF8001BE000180000180015
:10195000001800007F00007F000000000000000071
:101960000000000000000000000000000000000077
:10197000000007DE001FFE00183800301800301885
:10198000003018003018003018001838001FF80018
:1019900007D80000180000180000180000FE000022
:1019A000FE00000000000000000000000000000039
:1019B000000000000000000000003E78003EFC0037
:1019C00007CC000700000600000600000600000625
:1019D00000000600003FF0003FF0000000000000A3
:1019E00000000000000000000000000000000000F7
:1019F00000000000000000000000000000000000E7
:101A0000000007F8000FF8001818001818001F80D1
:101A1000000FF00000F8001818001838001FF00040
:101A20001FE00000000000000000000000000000B7
:101A300000000000000000000000000000000C009A
:101A4000000C00000C00000C00003FF0003FF00014
:101A50000C00000C00000C00000C00000C00000C3E
:101A600000000C1C0007FC0003F000000000000058
:101A70000000000000000000000000000000000066
:101A80000000000000000000000000000000000056
:101A900000007878007878001818001818001818D6
:101AA000001818001818001818001838000FFE0049
:101AB00007DE000000000000000000000000000041
:101AC0000000000000000000000000000000000016
:101AD000000000000000000000007C3E007C3E0092
:101AE0001818001818000C30000C300006600006B2
:101AF000600007E00003C00003C000000000000019
:101B000000000000000000000000000000000000D5
:101B100000000000000000000000000000000000C5
:101B20000000783C00783C0031180033980033986E
:101B3000001AB0001EF0001EF0001C60000C6000D7
:101B40000C60000000000000000000000000000029
:101B50000000000000000000000000000000000085
:101B6000000000000000000000003E7C003E7C0001
:101B70000C300006600003C00001800003C00006B6
:101B800060000C30003E7C003E7C00000000000045
:101B90000000000000000000000000000000000045
:101BA0000000000000000000000000000000000035
:101BB00000007E1F007E1F00180C000C18000C187F
:101BC0000006300006300003600003E00001C000A2
:101BD00000C0000180000180000300003FC0003F02
:101BE000C000000000000000000000000000000035
:101BF000000000000000000000001FF8001FF800B7
:101C000018300018600000C00001800003000006CA
:101C100018000C18001FF8001FF80000000000005A
:101C200000000000000000000000000000000000B4
:101C300000000000000000E00001E0000180000161
:101C4000800001800001800001800001800003808D
:101C50000007000003800001800001800001800077
:101C600001800001800001E00000E00000000000B1
:101C700000000000000000000000000000000180E3
:101C800000018000018000018000018000018000CF
:101C900001800001800001800001800001800001BE
:101CA000800001800001800001800001800001802F
:101CB00000018000000000000000000000000000A3
:101CC0000000000000000700000780000180000104
:101CD000800001800001800001800001800001C0BF
:101CE0000000E00001C000018000018000018000D0
:101CF0000180000180000780000700000000000054
:101D000000000000000000000000000000000000D3
:101D100000000000000000000000000000000000C3
:101D20000E00001F18003BB80031F00000E000007A
:101D300000000000000000000000000000000000A3
:101D40000000000000000000000000000000000093
:101D50000000000000000000000000000000000083
:101D60000000000000000000000000000000000073
:101D7000000000000000000000000700070007004E
:101D80000700070007000700020002000000000033
:101D90000700070000000000000000000000000035
:101DA000000000001CE01CE01CE008400840084067
:101DB0000000000000000000000000000000000023
:101DC00000000000000000000CC00CC00CC00CC0E3
:101DD0000CC03FF03FF00CC00CC03FF03FF00CC017
:101DE0000CC00CC00CC00CC00000000000000000C3
:101DF0000300030007E00FE0186018001F000FC089
:101E000000E0186018601FC01F800300030003007B
:101E1000000000000000000000001C002200220062
:101E200022001C6001E00F803C0031C00220022033
:101E3000022001C0000000000000000000000000BF
:101E400000000000000003E00FE00C000C000600A2
:101E50000F301FF019E018C01FF007B0000000009D
:101E6000000000000000000000000000038003806C
:101E700003800100010001000000000000000000DC
:101E80000000000000000000000000000000000052
:101E9000000000C000C00180018001800300030039
:101EA000030003000300030001800180018000C0E3
:101EB00000C000000000000000000C000C00060044
:101EC00006000600030003000300030003000300F4
:101ED0000600060006000C000C00000000000000D8
:101EE00000000300030003001B601FE00780078061
:101EF0000FC00CC000000000000000000000000047
:101F000000000000000000000000000000000300CE
:101F10000300030003003FF03FF003000300030051
:101F200003000000000000000000000000000000AE
:101F300000000000000000000000000000000000A1
:101F400000000000000003800300030006000600FC
:101F5000040000000000000000000000000000007D
:101F60000000000000003FE03FE000000000000033
:101F70000000000000000000000000000000000061
:101F80000000000000000000000000000000000051
:101F900000000000000003800380038000000000B8
:101FA00000000000000000000060006000C000C0F1
:101FB00000C00180018003000300060006000C0041
:101FC0000C000C00180018000000000000000000C9
:101FD00000000F801FC018C030603060306030607B
:101FE00030603060306018C01FC00F8000000000FB
:101FF0000000000000000000000003001F001F00A0
:1020000003000300030003000300030003000300B8
:102010001FE01FE0000000000000000000000000C2
:1020200000000F801FC038E03060006000C00180F9
:10203000030006000C0018003FE03FE00000000035
:10204000000000000000000000000F803FC030E0F2
:10205000006000E007C007C000E00060006060E0D2
:102060007FC03F8000000000000000000000000072
:10207000000001C003C003C006C00CC00CC018C0E3
:1020800030C03FE03FE000C003E003E0000000009C
:10209000000000000000000000001FC01FC018006A
:1020A00018001F801FC018E000600060006030E072
:1020B0003FC01F8000000000000000000000000082
:1020C000000003E00FE01E001800380037803FC01A
:1020D00038E03060306018E01FC00780000000006A
:1020E000000000000000000000003FE03FE0306022
:1020F000006000C000C000C00180018001800300BA
:1021000003000300000000000000000000000000C9
:1021100000000F801FC038E0306038E01FC01FC0D3
:1021200038E03060306038E01FC00F8000000000F1
:10213000000000000000000000000F001FC038C0B9
:102140003060306038E01FE00F6000E000C003C086
:102150003F803E0000000000000000000000000082
:1021600000000000000000000000038003800380E6
:1021700000000000000003800380038000000000D6
:10218000000000000000000000000000000000004F
:10219000000001C001C001C0000000000000038079
:1021A000030006000600040000000000000000001C
:1021B000000000000000003000F003C007001C0019
:1021C00078001C00070003C000F000300000000091
:1021D00000000000000000000000000000000000FF
:1021E00000007FF07FF0000000007FF07FF0000033
:1021F00000000000000000000000000000000000DF
:1022000000000000000030003C000F00038000E0F0
:10221000007800E003800F003C0030000000000068
:102220000000000000000000000000000F801FC040
:1022300018601860006001C0038003000000000007
:102240000700070000000000000000000000000080
:10225000000003800C8008401040104011C0124064
:102260001240124011C01000080008400780000012
:102270000000000000000000000000001F801F8020
:10228000038006C006C00CC00C601FE01FE03030A9
:10229000787878780000000000000000000000005E
:1022A000000000003F803FC01860186018E01FC0A9
:1022B0001FE01870183018303FF03FE000000000B9
:1022C00000000000000000000000000007B00FF058
:1022D0001C703830300030003000300038301C7056
:1022E0000FE007C000000000000000000000000038
:1022F000000000007F807FC030E030703030303030
:1023000030303030307030E07FC07F80000000001F
:102310000000000000000000000000003FF03FF05F
:102320001830183019801F801F801980183018301D
:102330003FF03FF00000000000000000000000003F
:10234000000000003FF03FF01830183019801F8067
:102350001F801980180018003F003F000000000097
:1023600000000000000000000000000007B01FF0A7
:10237000187030303000300031F831F8303018301B
:102380001FF007C000000000000000000000000077
:10239000000000003CF03CF01860186018601FE07E
:1023A0001FE01860186018603CF03CF0000000006E
:1023B0000000000000000000000000001FE01FE01F
:1023C00003000300030003000300030003000300F5
:1023D0001FE01FE0000000000000000000000000FF
:1023E0000000000003F803F8006000600060006077
:1023F00030603060306030E03FC00F80000000008F
:102400000000000000000000000000003EF83EF860
:1024100018E019801B001F001D8018C018C018602C
:102420003E783E3800000000000000000000000080
:10243000000000003F003F000C000C000C000C00EE
:102440000C000C300C300C303FF03FF0000000006E
:10245000000000000000000000000000787878789C
:1024600038703CF034B037B037B0333033303030C0
:102470007CF87CF800000000000000000000000074
:102480000000000039F03DF01C601E601E601B6003
:102490001B6019E019E018E03EE03E60000000001B
:1024A00000000000000000000000000007800FC0D6
:1024B0001CE03870303030303030303038701CE054
:1024C0000FC00780000000000000000000000000B6
:1024D000000000003FC03FE018701830183018703E
:1024E0001FE01FC0180018003F003F000000000060
:1024F00000000000000000000000000007800FC086
:102500001CE03870303030303030303038701CE003
:102510000FC0078007B00FF00CE0000000000000C3
:10252000000000003FC03FE01870183018701FE036
:102530001FC018E0186018703E383E1800000000F8
:102540000000000000000000000000000FB01FF0BD
:102550003870303038001F8007E00070303038703D
:102560003FE037C000000000000000000000000055
:10257000000000003FF03FF03330333033300300D1
:1025800003000300030003000FC00FC000000000A1
:102590000000000000000000000000003CF03CF0E3
:1025A00018601860186018601860186018601CE0E7
:1025B0000FC00780000000000000000000000000C5
:1025C0000000000078F078F03060306018C018C06B
:1025D0000D800D800D80070007000700000000003F
:1025E0000000000000000000000000007C7C7C7CFB
:1025F000301833983398339836D816D01C701C7026
:102600001C701830000000000000000000000000F6
:102610000000000078F078F0306018C00D800700EE
:1026200007000D8018C0306078F078F000000000DE
:102630000000000000000000000000003CF03CF042
:1026400018600CC00780078003000300030003002C
:102650000FC00FC0000000000000000000000000DC
:10266000000000001FE01FE0186018C00180030098
:10267000030006000C6018601FE01FE0000000006F
:102680000000000000000000000003C003C00300C1
:102690000300030003000300030003000300030022
:1026A00003000300030003C003C00000000000009B
:1026B000180018000C000C000C00060006000300B7
:1026C00003000180018000C000C000C00060006005
:1026D000000000000000000000000F000F000300D9
:1026E00003000300030003000300030003000300D2
:1026F0000300030003000F000F00000000000000B3
:102700000000020007000D8018C03060202000008B
:1027100000000000000000000000000000000000B9
:1027200000000000000000000000000000000000A9
:102730000000000000000000000000000000000099
:10274000000000000000000000000000FFFCFFFC93
:1027500000000400030000800000000000000000F2
:102760000000000000000000000000000000000069
:102770000000000000000000000000000000000059
:1027800000000FC01FE000600FE01FE0386030E085
:102790003FF01F700000000000000000000000007B
:1027A0000000700070003000300037803FE038607B
:1027B00030303030303038607FE07780000000000B
:1027C0000000000000000000000000000000000009
:1027D000000007B01FF018303030300030003830C3
:1027E0001FF00FC00000000000000000000000000B
:1027F0000000007000700030003007B01FF018704B
:1028000030303030303038701FF807B8000000002A
:1028100000000000000000000000000000000000B8
:10282000000007801FE018603FF03FF030001830D4
:102830001FF007C0000000000000000000000000C2
:10284000000003F007F0060006001FE01FE006008E
:1028500006000600060006001FE01FE00000000062
:102860000000000000000000000000000000000068
:10287000000007B81FF81870303030303030187052
:102880001FF007B0003000700FE00FC00000000024
:10289000000038003800180018001BC01FE01C6042
:1028A00018601860186018603CF03CF000000000F0
:1028B0000000000000000000000003000300000012
:1028C00000001F001F0003000300030003000300BB
:1028D0001FE01FE0000000000000000000000000FA
:1028E000000003000300000000001FC01FC000C064
:1028F00000C000C000C000C000C000C000C001C0D7
:102900003F803F0000000000000038003800180041
:1029100018001BE01BE01B001E001E001B0019809E
:1029200039F039F000000000000000000000000055
:1029300000001F001F00030003000300030003004A
:1029400003000300030003001FE01FE0000000007D
:102950000000000000000000000000000000000077
:1029600000007EE07FF033303330333033303330AB
:102970007BB87BB8000000000000000000000000F1
:10298000000000000000000000003BC03FE01C60B1
:1029900018601860186018603CF03CF000000000FF
:1029A0000000000000000000000000000000000027
:1029B000000007801FE01860303030303030186081
:1029C0001FE0078000000000000000000000000081
:1029D0000000000000000000000077807FE0386009
:1029E00030303030303038603FE0378030003000F9
:1029F0007C007C00000000000000000000000000DF
:102A0000000007B81FF818703030303030301870C0
:102A10001FF007B00030003000F800F800000000A0
:102A2000000000000000000000003CE03DF00F301E
:102A30000E000C000C000C003FC03FC00000000066
:102A40000000000000000000000000000000000086
:102A5000000007E01FE018601E000FC001E01860D2
:102A60001FE01F80000000000000000000000000C8
:102A7000000000000C000C000C003FE03FE00C00E8
:102A80000C000C000C000C300FF007C00000000020
:102A90000000000000000000000000000000000036
:102AA000000038E038E0186018601860186018E01E
:102AB0001FF00F7000000000000000000000000088
:102AC0000000000000000000000078F078F03060A6
:102AD00018C018C00D800D8007000700000000001E
:102AE00000000000000000000000000000000000E6
:102AF000000078F078F03260326037E01DC01DC011
:102B000018C018C000000000000000000000000015
:102B1000000000000000000000003CF03CF00CC091
:102B20000780030007800CC03CF03CF00000000070
:102B30000000000000000000000000000000000095
:102B4000000078F078F0306018C018C00D800F8059
:102B50000700060006000C007F007F000000000058
:102B6000000000000000000000001FE01FE018C08F
:102B70000180030006000C601FE01FE00000000061
:102B80000000000000000000000001C003C00300BE
:102B9000030003000300030007000E00070003000A
:102BA00003000300030003C001C000000000000098
:102BB0000000030003000300030003000300030000
:102BC00003000300030003000300030003000300ED
:102BD000030000000000000000001C001E000600B2
:102BE0000600060006000600070003800700060036
:102BF0000600060006001E001C0000000000000089
:102C00000000000000000000000000000E003F3047
:102C100033F001E0000000000000000000000000B0
:102C200000000000000000000000000000000000A4
:102C30000000000000101010101000001000000034
:102C4000006C484800000000000000000014142838
:102C50007C287C28505000000010384040384870D4
:102C600010100000002050200C7008140800000014
:102C700000000018202054483400000000101010FC
:102C800010000000000000000008081010101010D4
:102C90001008080000202010101010101020200034
:102CA00000107C1028280000000000000000101018
:102CB00010FE1010100000000000000000000018BE
:102CC0001030200000000000007C00000000000028
:102CD0000000000000000030300000000004040884
:102CE000081010202040000000384444444444446C
:102CF0003800000000301010101010107C00000090
:102D000000384404081020447C00000000384404CB
:102D10001804044438000000000C141424447E04F9
:102D20000E000000003C202038040444380000005D
:102D3000001C20407844444438000000007C4404D7
:102D40000808081010000000003844443844444487
:102D50003800000000384444443C0408700000007F
:102D6000000000303000003030000000000000188B
:102D7000180000183020000000000C106080601067
:102D80000C000000000000007C007C00000000003F
:102D90000000C02018041820C00000000000182403
:102DA00004081000300000003844444C54544C4097
:102DB000443800000030102828287C44EE00000031
:102DC00000F8444478444444F8000000003C444087
:102DD000404040443800000000F048444444444827
:102DE000F000000000FC445070504044FC00000023
:102DF000007E22283828202070000000003C44403B
:102E0000404E44443800000000EE44447C444444B6
:102E1000EE000000007C1010101010107C0000006C
:102E2000003C0808084848483000000000EE4448CC
:102E300050704844E6000000007020202020242428
:102E40007C00000000EE6C6C54544444EE00000022
:102E500000EE64645454544CEC00000000384444C8
:102E600044444444380000000078242424382020BE
:102E7000700000000038444444444444381C0000BE
:102E800000F8444444784844E200000000344C40D8
:102E9000380404645800000000FE92101010101056
:102EA0003800000000EE444444444444380000002C
:102EB00000EE4444282828101000000000EE44448E
:102EC000545454542800000000C6442810102844CC
:102ED000C600000000EE4428281010103800000042
:102EE000007C4408101020447C00000000382020A2
:102EF0002020202020203800004020202010100812
:102F00000808000000380808080808080808380001
:102F10000010102844000000000000000000000025
:102F200000000000000000FE00100800000000008B
:102F30000000000000000038443C44443E00000013
:102F400000C0405864444444F80000000000003CC5
:102F50004440404438000000000C04344C444444D5
:102F60003E00000000000038447C40403C0000006F
:102F7000001C207C202020207C0000000000003667
:102F80004C4444443C04380000C040586444444429
:102F9000EE00000000100070101010107C00000007
:102FA00000100078080808080808700000C0405C9D
:102FB00048705048DC000000003010101010101055
:102FC0007C000000000000E854545454FE0000004F
:102FD000000000D864444444EE00000000000038C3
:102FE0004444444438000000000000D86444444491
:102FF0007840E000000000364C4444443C040E009D
:103000000000006C302020207C0000000000003C0C
:1030100044380444780000000000207C2020202256
:103020001C000000000000CC4444444C360000006A
:10303000000000EE4444282810000000000000EECC
:103040004454545428000000000000CC483030485C
:10305000CC000000000000EE442428181010780076
:103060000000007C481020447C0000000008101084
:103070001010201010100800001010101010101068
:103080001010000000201010101008101010200068
:103090000000000000245800000000002DE9F0436B
:1030A00081B0044620680026B046084D000121D5B5
:1030B000606E68B1B0F5801F15D0B0F5001F00F04C
:1030C0009680B0F5401F07D012E000BF00440258C0
:1030D000E86A40F40030E862286D616E20F4401028
:1030E0000843286506E0A86A00F0030003281ED103
:1030F0000126B0462068C00540F1E680606D0428D6
:1031000000F2E080DFE810F00500D900610109005D
:103110000900E86A40F40030E862300040F0D380F3
:10312000286D616DC00841EAC0002865CCE02868C0
:1031300020F08060286002F06BFA074628680001E2
:1031400006D502F065FAC01B0328F7D30326D0E7A3
:10315000A86A616820F47C3040EA0130A862E16826
:10316000A068491E490201F47E41401EC0F30800D8
:1031700008432169491E090401F4FE0108436169FD
:10318000491E090601F0FE410843A863E86AA169E7
:1031900020F0C0000843E862E86AE16920F02000FE
:1031A0000843E862E86A20F01000E862E86B216AF0
:1031B0006FF3CF0040EAC100E863E86A40F0100016
:1031C000E862E86A40F40010E862286840F0806035
:1031D000286002F01DFA0746286800013FF57CAF21
:1031E00002F016FAC01B0328F6D3032681E7A86A6B
:1031F00000F0030003283FF47BAF286820F08050E4
:10320000286002F005FA07462868800006D502F01B
:10321000FFF9C01B0328F7D303266AE7A86A616A8F
:1032200020F07C7040EA0150A862E16AA06A491E61
:10323000490201F47E41401EC0F308000843216B9F
:10324000491E090401F4FE010843616B491E090689
:1032500001F0FE4108432864E86AA16B20F4406055
:103260000843E862E86AE16B20F400700843E86212
:10327000E86A20F48070E862686C216C6FF3CF001C
:1032800040EAC1006864E86A40F48070E862E86A75
:1032900040F08070E862286840F08050286002F0BA
:1032A000B7F90746286880003FF516AF02F0B0F97D
:1032B000C01B0328F6D303261BE7A86A00F003000F
:1032C000032821D10126B0462068800540F1E9801D
:1032D000A06D58B1402800F0DD80802800F06781A3
:1032E000C02818BFB0F5807F04D0D8E0E86A40F469
:1032F0000030E862300040F0D380286DA16D20F4EA
:10330000E07008432865CCE0286820F080602860E1
:1033100002F07EF906462868000106D502F078F929
:10332000801B0328F7D30326CDE7A86A616820F441
:103330007C3040EA0130A862E168A068491E490279
:1033400001F47E41401EC0F3080008432169491E74
:10335000090401F4FE0108436169491E090601F0F0
:10336000FE410843A863E86AA16920F0C000084351
:10337000E862E86AE16920F020000843E862E86A50
:1033800020F01000E862E86B216A6FF3CF0040EA9A
:10339000C100E863E86A40F01000E862E86A40F4BF
:1033A0000020E862286840F08060286002F030F970
:1033B00006462868000106D402F02AF9801B03287B
:1033C000F7D303267FE70026AAE6A86A00F00300E9
:1033D00003283FF477AF286820F08050286002F07F
:1033E00017F906462868800006D502F011F9801BFF
:1033F0000328F7D3032666E7A86A616A20F07C7089
:1034000040EA0150A862E16AA06A491E490201F43B
:103410007E41401EC0F308000843216B491E090489
:1034200001F4FE010843616B491E090601F0FE41EB
:1034300008432864E86AA16B20F440600843E8620E
:10344000E86AE16B20F400700843E862E86A20F45F
:103450008070E862686C216C6FF3CF0040EAC100B5
:103460006864E86A40F48070E862E86A40F48000CA
:10347000E862286840F08050286002F0C9F80646EB
:10348000286880009FD402F0C3F8801B0328F7D37C
:10349000032618E7A86A00F00300032826D10126B6
:1034A000B0462068400540F1EE80D4F8A40070B129
:1034B000B0F5001F00F0E080B0F5800F00F06981EA
:1034C000B0F5C00F18BFB0F5000F04D0D9E0E86A1E
:1034D00040F40030E862300040F0D480A86DD4F8A9
:1034E000A41020F460000843A865CCE0286820F010
:1034F0008060286002F08CF806462868000106D536
:1035000002F086F8801B0328F7D30326C8E7A86AD1
:10351000616820F47C3040EA0130A862E168A0686C
:10352000491E490201F47E41401EC0F308000843D1
:103530002169491E090401F4FE0108436169491E1D
:10354000090601F0FE410843A863E86AA16920F07A
:10355000C0000843E862E86AE16920F020000843FF
:10356000E862E86A20F01000E862E86B216A6FF315
:10357000CF0040EAC100E863E86A40F01000E8626A
:10358000E86A40F40020E862286840F08060286023
:1035900002F03EF806462868000106D402F038F82A
:1035A000801B0328F7D303267AE70026A5E6A86A3E
:1035B00000F0030003283FF472AF286820F0805029
:1035C000286002F025F806462868800006D502F03B
:1035D0001FF8801B0328F7D3032661E7A86A616AF6
:1035E00020F07C7040EA0150A862E16AA06A491E9E
:1035F000490201F47E41401EC0F308000843216BDC
:10360000491E090401F4FE010843616B491E0906C5
:1036100001F0FE4108432864E86AA16B20F4406091
:103620000843E862E86AE16B20F400700843E8624E
:10363000E86A20F48070E862686C216C6FF3CF0058
:1036400040EAC1006864E86A40F48070E862E86AB1
:1036500040F48000E862286840F08050286001F063
:10366000D7FF0646286880009FD401F0D1FF801B59
:103670000328F7D3032613E7A86A00F00300032802
:1036800026D10126B0462068000540F1EE80D4F82E
:10369000A80070B1B0F1807F00F0E080B0F1007F51
:1036A00000F06081B0F1407F18BFB0F1806F04D0AE
:1036B000D9E0E86A40F40030E862300040F0D4809D
:1036C000A86DD4F8A81020F0E0600843A865CCE00D
:1036D000286820F08060286001F09AFF064628687C
:1036E000000106D501F094FF801B0328F7D30326C1
:1036F000C8E7A86A616820F47C3040EA0130A8621B
:10370000E168A068491E490201F47E41401EC0F3F1
:10371000080008432169491E090401F4FE01084319
:103720006169491E090601F0FE410843A863E86A81
:10373000A16920F0C0000843E862E86AE16920F06E
:1037400020000843E862E86A20F01000E862E86BB5
:10375000216A6FF3CF0040EAC100E863E86A40F0F5
:103760001000E862E86A40F40020E862286840F04F
:103770008060286001F04CFF06462868000106D4EE
:1037800001F046FF801B0328F7D303267AE70026C3
:10379000A4E6A86A00F0030003283FF472AF28688B
:1037A00020F08050286001F033FF06462868800032
:1037B00006D501F02DFF801B0328F7D3032661E710
:1037C000A86A616A20F07C7040EA0150A862E16A50
:1037D000A06A491E490201F47E41401EC0F3080060
:1037E0000843216B491E090401F4FE010843616B83
:1037F000491E090601F0FE4108432864E86AA16BEE
:1038000020F440600843E862E86AE16B20F400704D
:103810000843E862E86A20F48070E862686C216C12
:103820006FF3CF0040EAC1006864E86A40F480703A
:10383000E862E86A40F48000E862286840F080505E
:10384000286001F0E5FE0646286880009FD401F05C
:10385000DFFE801B0328F7D3032613E7A86A00F0D6
:10386000030003281DD10126B0462068800140F1E5
:10387000E580A06C58B1102805D0202800F0D78032
:10388000302804D0D8E0E86A40F40030E862300024
:1038900040F0D380E86CA16C20F030000843E8646D
:1038A000CCE0286820F08060286001F0B1FE064678
:1038B0002868000106D501F0ABFE801B0328F7D372
:1038C0000326D1E7A86A616820F47C3040EA013021
:1038D000A862E168A068491E490201F47E41401EC9
:1038E000C0F3080008432169491E090401F4FE01E0
:1038F00008436169491E090601F0FE410843A863B7
:10390000E86AA16920F0C0000843E862E86AE1695A
:1039100020F020000843E862E86A20F01000E86226
:10392000E86B216A6FF3CF0040EAC100E863E86A00
:1039300040F01000E862E86A40F40020E86228687D
:1039400040F08060286001F063FE064628680001B0
:1039500006D401F05DFE801B0328F7D3032683E71E
:103960000026ADE6A86A00F0030003283FF47BAF11
:10397000286820F08050286001F04AFE064628683A
:10398000800006D501F044FE801B0328F7D30326F0
:103990006AE7A86A616A20F07C7040EA0150A86278
:1039A000E16AA06A491E490201F47E41401EC0F34B
:1039B00008000843216B491E090401F4FE01084375
:1039C000616B491E090601F0FE4108432864E86A5C
:1039D000A16B20F440600843E862E86AE16B20F4E0
:1039E00000700843E862E86A20F48070E862686C5E
:1039F000216C6FF3CF0040EAC1006864E86A40F4CC
:103A00008070E862E86A40F48000E862286840F06C
:103A10008050286001F0FCFD0646286880009FD495
:103A200001F0F6FD801B0328F7D303261CE7A86AE4
:103A300000F00300032822D10126B0462068C0040C
:103A400040F18580E06D68B1B0F5805F78D0B0F569
:103A5000005F00F03A81B0F5405F18BFB0F5804FCD
:103A600004D072E0E86A40F40030E86230006DD1C2
:103A7000286DE16D20F4E0400843286567E0286880
:103A800020F08060286001F0C3FD06462868000130
:103A900006D501F0BDFD801B0328F7D30326CCE734
:103AA000A86A616820F47C3040EA0130A862E168CD
:103AB000A068491E490201F47E41401EC0F308007F
:103AC00008432169491E090401F4FE0108436169A4
:103AD000491E090601F0FE410843A863E86AA1698E
:103AE00020F0C0000843E862E86AE16920F02000A5
:103AF0000843E862E86A20F01000E862E86B216A97
:103B00006FF3CF0040EAC100E863E86A40F01000BC
:103B1000E862E86A40F40010E862286840F08060DB
:103B2000286001F075FD06462868000106D401F002
:103B30006FFD801B0328F7D303267EE70026A9E646
:103B4000A86A00F0030003285ED10126B046206871
:103B500080041CD5206E002800F0E281B0F5803F83
:103B60000DD0B0F5003F00F07681B0F5403F1CBFAE
:103B7000B0F5802FB0F5A02F00F0D28105E0A86A43
:103B800000F00300032840F005810126B0462068BC
:103B900040041DD5D4F8AC00002800F09182B0F1AB
:103BA000805F0DD0B0F1005F00F02582B0F1405F82
:103BB0001CBFB0F1804FB0F1A04F00F0818205E052
:103BC000A86A00F00300032840F0B4810126B04643
:103BD0002068000440F18682E06E58B1B0F1805F49
:103BE00004D0B0F1005F00F0768279E2E86A40F438
:103BF0000030E862300040F07482286DE16E20F001
:103C00004050084328656DE2286820F080602860F5
:103C100001F0FEFC06462868000106D501F0F8FC1C
:103C2000801B0328F7D3032690E7A86A616820F475
:103C30007C3040EA0130A862E168A068491E490270
:103C400001F47E41401EC0F3080008432169491E6B
:103C5000090401F4FE0108436169491E090601F0E7
:103C6000FE410843A863E86AA16920F0C000084348
:103C7000E862E86AE16920F020000843E862E86A47
:103C800020F01000E862E86B216A6FF3CF0040EA91
:103C9000C100E863E86A40F01000E862E86A40F4B6
:103CA0000020E862286840F08060286001F0B0FCE5
:103CB00006462868000106D401F0AAFC801B0328F0
:103CC000F7D3032642E70026D2E6A86A00F00300F5
:103CD00003283FF43AAF286820F08050286001F0B4
:103CE00097FC06462868800006D501F091FC801BF1
:103CF0000328F7D3032629E7A86A616A20F07C70BD
:103D000040EA0150A862E16AA06A491E490201F432
:103D10007E41401EC0F308000843216B491E090480
:103D200001F4FE010843616B491E090601F0FE41E2
:103D300008432864E86AA16B20F440600843E86205
:103D4000E86AE16B20F400700843E862E86A20F456
:103D50008070E862686C216C6FF3CF0040EAC100AC
:103D60006864E86A40F48070E862E86A40F48000C1
:103D7000E862286840F08050286001F049FC06465F
:103D8000286880009FD401F043FC801B0328F7D3F0
:103D90000326DBE6286820F08060286001F038FC0C
:103DA00006462868000106D501F032FC801B032876
:103DB000F7D30326EAE6A86A616820F47C3040EA7B
:103DC0000130A862E168A068491E490201F47E4101
:103DD000401EC0F3080008432169491E090401F48C
:103DE000FE0108436169491E090601F0FE410843CE
:103DF000A863E86AA16920F0C0000843E862E86AA5
:103E0000E16920F020000843E862E86A20F0100031
:103E1000E862E86B216A6FF3CF0040EAC100E86313
:103E2000E86A40F01000E862E86A40F48010E86256
:103E3000286840F08060286001F0EAFB06462868A8
:103E4000000106D401F0E4FB801B0328F7D303260E
:103E50009CE6002667E0A86A00F0030003283FF410
:103E600094AE286820F08050286001F0D1FB06460F
:103E70002868800006D501F0CBFB801B0328F7D310
:103E8000032683E6A86A616A20F07C7040EA01504C
:103E9000A862E16AA06A491E490201F47E41401EFF
:103EA000C0F308000843216B491E090401F4FE0118
:103EB0000843616B491E090601F0FE41084328646E
:103EC000E86AA16B20F440600843E862E86AE16BAD
:103ED00020F400700843E862E86A20F48070E86229
:103EE000686C216C6FF3CF0040EAC1006864E86A37
:103EF00040F48070E862E86A40F40000E8622868F4
:103F000040F08050286001F083FB0646286880005E
:103F10009FD401F07DFB801B0328F7D3032635E6F1
:103F200030007FF433AE286D216E20F4E02008438A
:103F300028652CE6286820F08060286001F068FB86
:103F400006462868000106D501F062FB801B0328A5
:103F5000F7D303263BE6A86A616820F47C3040EA88
:103F60000130A862E168A068491E490201F47E415F
:103F7000401EC0F3080008432169491E090401F4EA
:103F8000FE0108436169491E090601F0FE4108432C
:103F9000A863E86AA16920F0C0000843E862E86A03
:103FA000E16920F020000843E862E86A20F0100090
:103FB000E862E86B216A6FF3CF0040EAC100E86372
:103FC000E86A40F01000E862E86A40F48010E862B5
:103FD000286840F08060286001F01AFB06462868D7
:103FE000000106D401F014FB801B0328F7D303263D
:103FF000EDE5002667E0A86A00F0030003283FF41F
:10400000E5AD286820F08050286001F001FB0646ED
:104010002868800006D501F0FBFA801B0328F7D33F
:104020000326D4E5A86A616A20F07C7040EA01505A
:10403000A862E16AA06A491E490201F47E41401E5D
:10404000C0F308000843216B491E090401F4FE0176
:104050000843616B491E090601F0FE4108432864CC
:10406000E86AA16B20F440600843E862E86AE16B0B
:1040700020F400700843E862E86A20F48070E86287
:10408000686C216C6FF3CF0040EAC1006864E86A95
:1040900040F48070E862E86A40F40000E862286852
:1040A00040F08050286001F0B3FA0646286880008E
:1040B0009FD401F0ADFA801B0328F7D3032686E5D1
:1040C00030007FF484ADA86DD4F8AC1020F0E0404F
:1040D0000843A8657CE5A86A00F00300032819D10D
:1040E0000126B0462068C00140F17C80606C032846
:1040F00076D8DFE800F006027006E86A40F4003087
:10410000E86230006DD1E86C616C800841EA8000A3
:10411000E86467E0286820F08060286001F078FAA1
:1041200006462868000106D501F072FA801B0328B4
:10413000F7D30326D5E7A86A616820F47C3040EA0B
:104140000130A862E168A068491E490201F47E417D
:10415000401EC0F3080008432169491E090401F408
:10416000FE0108436169491E090601F0FE4108434A
:10417000A863E86AA16920F0C0000843E862E86A21
:10418000E16920F020000843E862E86A20F01000AE
:10419000E862E86B216A6FF3CF0040EAC100E86390
:1041A000E86A40F01000E862E86A40F48010E862D3
:1041B000286840F08060286001F02AFA06462868E6
:1041C000000106D401F024FA801B0328F7D303264C
:1041D00087E7002611E5A86A00F00300032819D13B
:1041E0000126B0462068400240F1A280D5F80004C4
:1041F00040F48070C5F8000401F00AFA4FEA0007A5
:10420000D5F80004C00566D401F002FAC01B652889
:10421000F6D38BE0286820F08060286001F0F8F980
:1042200006462868000106D501F0F2F9801B032834
:10423000F7D30326D5E7A86A616820F47C3040EA0A
:104240000130A862E168A068491E490201F47E417C
:10425000401EC0F3080008432169491E090401F407
:10426000FE0108436169491E090601F0FE41084349
:10427000A863E86AA16920F0C0000843E862E86A20
:10428000E16920F020000843E862E86A20F01000AD
:10429000E862E86B216A6FF3CF0040EAC100E8638F
:1042A000E86A40F01000E862E86A40F40010E86252
:1042B000286840F08060286001F0AAF90646286866
:1042C000000106D401F0A4F9801B0328F7D30326CC
:1042D00087E7002617E7300029D1286FD4F8B010FF
:1042E00000F4407001F4407188420BD0286F296FB0
:1042F00041F480312967296F20F4407021F4803126
:1043000029672867D4F8B000B0F5807F40F0DF80DF
:1043100001F07EF9074641F28939286F800700F1E4
:10432000D68001F075F9C01B4845F6D30326B04688
:104330002078C00717D5A06F002800F0AB810828AF
:1043400009D0102800F0418118281CBF20282828F7
:1043500000F0A08105E0A86A00F00300032840F007
:10436000D3800126B0462078800712D5606F0528DB
:104370000DD8DFE810F05F020600FA015F025F026D
:104380005F02A86A00F00300032840F08D81012637
:10439000B0462078400713D5D4F8900005280DD8F2
:1043A000DFE810F018030600B3021803180318031F
:1043B000A86A00F00300032840F046820126B046B8
:1043C000207880061DD5D4F88C00002800F0D38317
:1043D000B0F1805F0DD0B0F1005F00F06783B0F105
:1043E000405F1CBFB0F1804FB0F1A04F00F0C3831D
:1043F00005E0A86A00F00300032840F0F6820126D9
:10440000B046207840061DD5D4F89800002800F06A
:104410008684B0F5806F0DD0B0F5006F00F0188481
:10442000B0F5406F1CBFB0F5805FB0F5A05F00F045
:10443000768405E0A86A00F00300032840F0A68314
:104440000126B046207800061DD5D4F89C0000282F
:1044500000F03B85B0F5005F0DD0B0F5804F00F067
:10446000CD84B0F5C04F1CBFB0F5004FB0F5204F64
:1044700000F02B8505E0A86A00F00300032840F057
:104480005A840126B0462078000740F17E85D4F892
:104490008000B0F5805F40F07385A86A00F00300EB
:1044A000032800F06A85286820F08050286001F019
:1044B000AFF807462868800040F1138501F0A8F89E
:1044C000C01B0328F6D34FF0010800F05EBDD4F8FE
:1044D000B00000F44071B1F5407F09D12969034A69
:1044E00002EA101021F47C51084304E0CFFFFF00E2
:1044F000286920F47C502861286FD4F8B010C1F3EB
:104500000B010843286713E7286820F080602860C3
:1045100001F07EF806462868000106D501F078F81B
:10452000801B0328F7D303261CE7A86A616820F4E0
:104530007C3040EA0130A862E168A068491E490267
:1045400001F47E41401EC0F3080008432169491E62
:10455000090401F4FE0108436169491E090601F0DE
:10456000FE410843A863E86AA16920F0C00008433F
:10457000E862E86AE16920F020000843E862E86A3E
:1045800020F01000E862E86B216A6FF3CF0040EA88
:10459000C100E863E86A40F01000E862E86A40F4AD
:1045A0008010E862286840F08060286001F030F8F0
:1045B00006462868000106D401F02AF8801B03286B
:1045C000F7D30326CEE6002667E0A86A00F00300D2
:1045D00003283FF4C6AE286820F08050286001F020
:1045E00017F806462868800006D501F011F8801BF0
:1045F0000328F7D30326B5E6A86A616A20F07C7029
:1046000040EA0150A862E16AA06A491E490201F429
:104610007E41401EC0F308000843216B491E090477
:1046200001F4FE010843616B491E090601F0FE41D9
:1046300008432864E86AA16B20F440600843E862FC
:10464000E86AE16B20F400700843E862E86A20F44D
:104650008070E862686C216C6FF3CF0040EAC100A3
:104660006864E86A40F48070E862E86A40F4000038
:10467000E862286840F08050286000F0C9FF0646D4
:10468000286880009FD400F0C3FF801B0328F7D365
:10469000032667E630007FF465AE686DA16F20F0F9
:1046A0003800084368655EE6286820F0806028606E
:1046B00000F0AEFF06462868000106D500F0A8FF0E
:1046C000801B0328F7D3032662E6A86A616820F4FA
:1046D0007C3040EA0130A862E168A068491E4902C6
:1046E00001F47E41401EC0F3080008432169491EC1
:1046F000090401F4FE0108436169491E090601F03D
:10470000FE410843A863E86AA16920F0C00008439D
:10471000E862E86AE16920F020000843E862E86A9C
:1047200020F01000E862E86B216A6FF3CF0040EAE6
:10473000C100E863E86A40F01000E862E86A40F40B
:104740008010E862286840F08060286000F060FF18
:1047500006462868000106D400F05AFF801B032893
:10476000F7D3032614E6002667E0A86A00F00300EA
:1047700003283FF40CAE286820F08050286000F039
:1047800047FF06462868800006D500F041FF801BE1
:104790000328F7D30326FBE5A86A616A20F07C7042
:1047A00040EA0150A862E16AA06A491E490201F488
:1047B0007E41401EC0F308000843216B491E0904D6
:1047C00001F4FE010843616B491E090601F0FE4138
:1047D00008432864E86AA16B20F440600843E8625B
:1047E000E86AE16B20F400700843E862E86A20F4AC
:1047F0008070E862686C216C6FF3CF0040EAC10002
:104800006864E86A40F48070E862E86A40F4000096
:10481000E862286840F08050286000F0F9FE064603
:10482000286880009FD400F0F3FE801B0328F7D394
:104830000326ADE530007FF4ABAD686D616FC00855
:1048400041EAC0006865A4E5286820F0806028601F
:1048500000F0DEFE06462868000106D500F0D8FE0E
:10486000801B0328F7D30326A9E5A86A616820F412
:104870007C3040EA0130A862E168A068491E490224
:1048800001F47E41401EC0F3080008432169491E1F
:10489000090401F4FE0108436169491E090601F09B
:1048A000FE410843A863E86AA16920F0C0000843FC
:1048B000E862E86AE16920F020000843E862E86AFB
:1048C00020F01000E862E86B216A6FF3CF0040EA45
:1048D000C100E863E86A40F01000E862E86A40F46A
:1048E0008010E862286840F08060286000F090FE48
:1048F00006462868000106D400F08AFE801B0328C3
:10490000F7D303265BE5002667E0A86A00F0030002
:1049100003283FF453AD286820F08050286000F051
:1049200077FE06462868800006D500F071FE801BE1
:104930000328F7D3032642E5A86A616A20F07C7059
:1049400040EA0150A862E16AA06A491E490201F4E6
:104950007E41401EC0F308000843216B491E090434
:1049600001F4FE010843616B491E090601F0FE4196
:1049700008432864E86AA16B20F440600843E862B9
:10498000E86AE16B20F400700843E862E86A20F40A
:104990008070E862686C216C6FF3CF0040EAC10060
:1049A0006864E86A40F48070E862E86A40F40000F5
:1049B000E862286840F08050286000F029FE064632
:1049C000286880009FD400F023FE801B0328F7D3C3
:1049D0000326F4E430007FF4F2ACA86DD4F8901014
:1049E000C00841EAC000A865EAE4286820F08060B9
:1049F000286000F00DFE06462868000106D500F08C
:104A000007FE801B0328F7D30326F9E4A86A616830
:104A100020F47C3040EA0130A862E168A068491EB9
:104A2000490201F47E41401EC0F308000843216999
:104A3000491E090401F4FE0108436169491E090683
:104A400001F0FE410843A863E86AA16920F0C000B4
:104A50000843E862E86AE16920F020000843E86260
:104A6000E86A20F01000E862E86B216A6FF3CF007B
:104A700040EAC100E863E86A40F01000E862E86AD2
:104A800040F40020E862286840F08060286000F070
:104A9000BFFD06462868000106D400F0B9FD801B62
:104AA0000328F7D30326ABE4002667E0A86A00F0EA
:104AB000030003283FF4A3AC286820F0805028604E
:104AC00000F0A6FD06462868800006D500F0A0FD8F
:104AD000801B0328F7D3032692E4A86A616A20F0BA
:104AE0007C7040EA0150A862E16AA06A491E49024E
:104AF00001F47E41401EC0F308000843216B491EAB
:104B0000090401F4FE010843616B491E090601F026
:104B1000FE4108432864E86AA16B20F44060084322
:104B2000E862E86AE16B20F400700843E862E86A32
:104B300020F48070E862686C216C6FF3CF0040EA6B
:104B4000C1006864E86A40F48070E862E86A40F096
:104B50008070E862286840F08050286000F058FDBE
:104B60000646286880009FD400F052FD801B032871
:104B7000F7D3032644E430007FF442AC686DD4F8E8
:104B80008C1020F0E040084368653AE4286820F083
:104B90008060286000F03CFD06462868000106D5CC
:104BA00000F036FD801B0328F7D3032649E4A86AEA
:104BB000616820F47C3040EA0130A862E168A068B6
:104BC000491E490201F47E41401EC0F3080008431B
:104BD0002169491E090401F4FE0108436169491E67
:104BE000090601F0FE410843A863E86AA16920F0C4
:104BF000C0000843E862E86AE16920F02000084349
:104C0000E862E86A20F01000E862E86B216A6FF35E
:104C1000CF0040EAC100E863E86A40F01000E862B3
:104C2000E86A40F40020E862286840F0806028606C
:104C300000F0EEFC06462868000107D400F0E8FC0E
:104C4000801B0328F7D30326FFF7FBBB002669E090
:104C5000A86A00F0030003283FF4F2AB286820F0B4
:104C60008050286000F0D4FC06462868800007D5F4
:104C700000F0CEFC801B0328F7D30326FFF7E1BB2F
:104C8000A86A616A20F07C7040EA0150A862E16A7B
:104C9000A06A491E490201F47E41401EC0F308008B
:104CA0000843216B491E090401F4FE010843616BAE
:104CB000491E090601F0FE4108432864E86AA16B19
:104CC00020F440600843E862E86AE16B20F4007079
:104CD0000843E862E86A20F48070E862686C216C3E
:104CE0006FF3CF0040EAC1006864E86A40F4807066
:104CF000E862E86A40F08070E862286840F080501E
:104D0000286000F085FC0646286880009ED400F0EC
:104D10007FFC801B0328F7D30326FFF792BB3000EC
:104D20007FF48FABA86DD4F8981020F4E0500843BE
:104D3000A865FFF787BB286820F08060286000F036
:104D400067FC06462868000107D500F061FC801B5F
:104D50000328F7D30326FFF795BBA86A616820F400
:104D60007C3040EA0130A862E168A068491E49022F
:104D700001F47E41401EC0F3080008432169491E2A
:104D8000090401F4FE0108436169491E090601F0A6
:104D9000FE410843A863E86AA16920F0C000084307
:104DA000E862E86AE16920F020000843E862E86A06
:104DB00020F01000E862E86B216A6FF3CF0040EA50
:104DC000C100E863E86A40F01000E862E86A40F475
:104DD0000020E862286840F08060286000F018FC3D
:104DE00006462868000107D400F012FC801B032847
:104DF000F7D30326FFF746BB002669E0A86A00F058
:104E0000030003283FF43DAB286820F08050286061
:104E100000F0FEFB06462868800007D500F0F8FB8E
:104E2000801B0328F7D30326FFF72CBBA86A616A0F
:104E300020F07C7040EA0150A862E16AA06A491E35
:104E4000490201F47E41401EC0F308000843216B73
:104E5000491E090401F4FE010843616B491E09065D
:104E600001F0FE4108432864E86AA16B20F4406029
:104E70000843E862E86AE16B20F400700843E862E6
:104E8000E86A20F48070E862686C216C6FF3CF00F0
:104E900040EAC1006864E86A40F48070E862E86A49
:104EA00040F08070E862286840F08050286000F090
:104EB000AFFB0646286880009ED400F0A9FB801B4B
:104EC0000328F7D30326FFF7DDBA30007FF4DAAA10
:104ED000A86DD4F89C1020F460400843A865FFF743
:104EE000D2BAA86A616A20F07C7040EA0150A862D8
:104EF000E16AA06A491E490201F47E41401EC0F3E6
:104F000008000843216B491E090401F4FE0108430F
:104F1000616B491E090601F0FE4108432864E86AF6
:104F2000A16B20F440600843E862E86AE16B20F47A
:104F300000700843E862E86A20F48070E862686CF8
:104F4000216C6FF3CF0040EAC1006864E86A40F466
:104F50008070E862E86A40F08070E862286840F09B
:104F60008050286000F054FB0746286880000CD46D
:104F700000F04EFBC01B0328F7D34FF0010804E0FC
:104F8000696D21F44051084368652078C0066FD5EB
:104F9000D4F89400B0F5807F65D1A86A00F00300D2
:104FA00003285DD0286820F08050286000F030FB96
:104FB00007462868800007D500F02AFBC01B03289D
:104FC000F7D34FF0010853E0A86A616A20F07C70C3
:104FD00040EA0150A862E16AA06A491E490201F450
:104FE0007E41401EC0F308000843216B491E09049E
:104FF00001F4FE010843616B491E090601F0FE4100
:1050000008432864E86AA16B20F440600843E86222
:10501000E86AE16B20F400700843E862E86A20F473
:105020008070E862686C216C6FF3CF0040EAC100C9
:105030006864E86A40F48070E862E86A40F0807072
:10504000E862286840F08050286000F0E1FA0746E6
:10505000286880000CD400F0DBFAC01B0328F7D3CB
:105060004FF0010804E0A96D21F440710843A865E0
:105070002068000312D5D4F8A00040B1B0F5803FFD
:1050800000F08D80B0F5003F00F0EE8004E0A86AEB
:1050900000F00300032821D10126B0462068400318
:1050A00040F1F480D4F88400B0F5801F07D0B0F54B
:1050B000001F00F0E480B0F5401F04D0E4E0E86A8F
:1050C00040F40030E862300040F0DF80686DD4F8D2
:1050D000841020F4401008436865D7E0286820F069
:1050E0008060286000F094FA06462868000106D522
:1050F00000F08EFA801B0328F7D30326CDE7A86AB9
:10510000616820F47C3040EA0130A862E168A06860
:10511000491E490201F47E41401EC0F308000843C5
:105120002169491E090401F4FE0108436169491E11
:10513000090601F0FE410843A863E86AA16920F06E
:10514000C0000843E862E86AE16920F020000843F3
:10515000E862E86A20F01000E862E86B216A6FF309
:10516000CF0040EAC100E863E86A40F01000E8625E
:10517000E86A40F40020E862286840F08060286017
:1051800000F046FA06462868000106D400F040FA0E
:10519000801B0328F7D303267FE7002667E0A86A71
:1051A00000F0030003283FF477AF286820F0805018
:1051B000286000F02DFA06462868800006D500F029
:1051C00027FA801B0328F7D3032666E7A86A616ADB
:1051D00020F07C7040EA0150A862E16AA06A491E92
:1051E000490201F47E41401EC0F308000843216BD0
:1051F000491E090401F4FE010843616B491E0906BA
:1052000001F0FE4108432864E86AA16B20F4406085
:105210000843E862E86AE16B20F400700843E86242
:10522000E86A20F48070E862686C216C6FF3CF004C
:1052300040EAC1006864E86A40F48070E862E86AA5
:1052400040F08070E862286840F08050286000F0EC
:10525000DFF90646286880009FD400F0D9F9801B4A
:105260000328F7D3032618E730007FF416AFA86DA4
:10527000D4F8A01020F440300843A8650EE7A86ACF
:1052800000F0030003282FD10126B0462068C00398
:105290000FD5E06C28B1B0F5803F00F08680012684
:1052A00006E0E86A40F40030E862300000F0E48094
:1052B000B0462068800040F13481A86A00F0030005
:1052C000032800F02C81286820F08050286000F02E
:1052D0009FF907462868800040F1D58000F098F9D2
:1052E000C01B0328F6D31AE1286820F080502860FC
:1052F00000F08EF906462868800006D500F088F98F
:10530000801B0328F7D30326BFE7A86A616A20F051
:105310007C7040EA0150A862E16AA06A491E490215
:1053200001F47E41401EC0F308000843216B491E72
:10533000090401F4FE010843616B491E090601F0EE
:10534000FE4108432864E86AA16B20F440600843EA
:10535000E862E86AE16B20F400700843E862E86AFA
:1053600020F48070E862686C216C6FF3CF0040EA33
:10537000C1006864E86A40F48070E862E86A40F45A
:105380000000E862286840F08050286000F040F992
:1053900006462868800006D400F03AF9801B0328EE
:1053A000F7D3032671E7002690E6A86A00F0030011
:1053B000032801D101267BE7286820F0806028605F
:1053C00000F026F906462868000106D500F020F90D
:1053D000801B0328F7D303266AE7A86A616820F4D4
:1053E0007C3040EA0130A862E168A068491E4902A9
:1053F00001F47E41401EC0F3080008432169491EA4
:10540000090401F4FE0108436169491E090601F01F
:10541000FE410843A863E86AA16920F0C000084380
:10542000E862E86AE16920F020000843E862E86A7F
:1054300020F01000E862E86B216A6FF3CF0040EAC9
:10544000C100E863E86A40F01000E862E86A40F4EE
:105450000010E862286840F08060286000F0D8F80A
:1054600006462868000106D400F0D2F8801B032805
:10547000F7D303261CE70026E86CE16C20F48030AB
:105480000843E86415E7A86A616A20F07C7040EA86
:105490000150A862E16AA06A491E490201F47E41F6
:1054A000401EC0F308000843216B491E090401F4A3
:1054B000FE010843616B491E090601F0FE410843E5
:1054C0002864E86AA16B20F440600843E862E86A57
:1054D000E16B20F400700843E862E86A20F4807011
:1054E000E862686C216C6FF3CF0040EAC100686429
:1054F000E86A40F48070E862E86A40F08070E86230
:10550000286840F08050286000F082F8074628683C
:10551000800006D400F07CF8C01B0328F7D34FF0BE
:105520000108206880031AD5E06F68B1B0F5807F6C
:1055300006D0B0F5007F18BFB0F5407F04D00CE076
:10554000E86A40F40030E862300007D1686DE16F2E
:1055500020F440700843686501E00126B0462068E9
:10556000C00205D5286D216F20F000400843286552
:105570002068C00006D52869D4F8B41020F4804013
:10558000084328612068800205D5286DA16E20F0AF
:105590008070084328652068400008D5286920F4F9
:1055A000004028612869D4F8B810084328612068B1
:1055B000002805D5E86C216D20F040500843E864D0
:1055C000B8F101008041C043C00F01B0BDE8F083D5
:1055D00000B581B000F0C0F9094B0A4A1B680A49BE
:1055E000C3F30323D25C01B002F01F02D040086075
:1055F000086800BD05490A6810430860704700004C
:105600001844025834E804080C030020A04402584F
:1056100001484068704700BF000300202DE9F043B7
:10562000040081B0884600F0B080DFF89C643068E8
:1056300000F00F0040450AD23068000948EA001027
:105640003060306800F00F00404540F09E802078C8
:10565000DFF8687440070AD52069B96901F0700164
:10566000814204D2B96921F070010843B861207801
:1056700000070AD56069F96901F07001814204D21E
:10568000F96921F070010843F8612078C0060AD555
:10569000A069F96901F4E061814204D2F96921F459
:1056A000E0610843F861207880060AD5E069396A2C
:1056B00001F07001814204D2396A21F0700108437F
:1056C0003862207880070AD5E068B96901F00F01D7
:1056D000814204D2B969090940EA0110B861207811
:1056E000C00735D5B869A16820F470600843B86177
:1056F0006068022802D13968890308E0032802D1D2
:105700003968890103E00128396805D1C90505D444
:10571000012001B0BDE8F083490736D5396941F26F
:105720008939C90840EAC1003861FFF771FF0546B1
:105730003869616800F03800B0EBC10F08D0FFF79E
:1057400067FF401B4845F3D3032001B0BDE8F08359
:10575000207880070AD5E068B96901F00F01884216
:1057600004D2B969090940EA0110B861306800F053
:105770000F0080450DD23068000948EA0010306003
:10578000306800F00F00404503D0012001B0BDE8B3
:10579000F083207840070AD52069B96901F07001CB
:1057A000884204D2B96921F070010843B8612078B9
:1057B00000070AD56069F96901F07001884204D2D6
:1057C000F96921F070010843F8612078C0060AD514
:1057D000A069F96901F4E061884204D2F96921F411
:1057E000E0610843F861207880060AD5E069396AEB
:1057F00001F07001884204D2396A21F07001084337
:105800003862386910F0380000F08880102800F005
:105810008280182840F08C80B86AB96AFA6A7B6B7B
:1058200002F00102C1F305110029C3F3CC0313FBFD
:1058300002F200EE102AB8EE400A6AD010F003001F
:1058400008D002283DD100EE901AF8EE600A9FEDD4
:105850008E1A3CE03868DFED8D0A20EE200A00EE5B
:10586000901A8006F8EE600A19D53868DFF85412ED
:10587000C0F3C100C140386B01EE101AB8EE411AF6
:10588000C1EE200AC0F3080001EE100AB8EE411A7A
:1058900031EE000AB7EE001A30EE010A28E0386B4C
:1058A0009FED841AC1EE200AC0F3080001EE100A31
:1058B000B8EE411A31EE000AB7EE001A30EE010AD6
:1058C00016E000EE901AF8EE600A9FED7B1A386B36
:1058D000DFED6E1AC1EE200AC0F3080001EE100AD7
:1058E000B8EE411A00EE211AB7EE000A31EE000AB6
:1058F000386B20EE800AC0F34620401C00EE900A70
:10590000F8EE600A80EE200ABCEEC00A10EE100A23
:1059100010E000200EE0DFF8B4010BE03968DFF89A
:10592000A401890606D53968C1F3C101C84001E068
:10593000DFF89C01BA69DFF89C11C2F30322895C8D
:1059400001B001F01F01C840DFF8741108600F209A
:10595000BDE8F04300F018BB5849086910F0380062
:1059600004D010280CD018280CD08BE00A685548B9
:10597000920640F188800968C1F3C101C8407047B0
:1059800052487047886A8A6ACB6AD1F834C003F0FB
:105990000103C2F30512002ACCF3CC0C1CFB03F369
:1059A00000EE103AB8EE400A6AD010F0030002D0C0
:1059B000022836D03CE00868DFED340A20EE200AE9
:1059C00000EE902A8006F8EE600A18D508683D4A75
:1059D000C0F3C100C240086B01EE102AB8EE411AB4
:1059E000C1EE200AC0F3080001EE100AB8EE411A19
:1059F00031EE000AB7EE001A30EE010A2FE0086B14
:105A00009FED2C1AC1EE200AC0F3080001EE100A27
:105A1000B8EE411A31EE000AB7EE001A30EE010A74
:105A20001DE000EE902AF8EE600A9FED171A05E0DF
:105A300000EE902AF8EE600A9FED1F1A086BDFED6A
:105A4000131AC1EE200AC0F3080001EE100AB8EEE6
:105A5000411A00EE211AB7EE000A31EE000A086B77
:105A600020EE800AC0F34620401C00EE900AF8EEBB
:105A7000600A80EE200ABCEEC00A10EE100A7047E1
:105A8000002070471248704720BCBE4B0000003910
:105A900000B581B0FFF79CFD0F4A0E49126802F075
:105AA0000F02895C01B001F01F01C8400B4908607A
:105AB00000BD00000024744C0024744A00440258C5
:105AC0000C0300200090D0030020005240787D019C
:105AD00000093D0034E8040818440258100300206F
:105AE000F0B5040081B016D02078DFF89454C007D8
:105AF00053D52869A96A00F03800102805D0182865
:105B000004BF01F00300022808D12868800344D5AF
:105B10006068002841D1012001B0F0BD6068B0F597
:105B2000803F03D1286840F4803013E008B928682A
:105B30000AE0B0F5A02F286806D140F48020286044
:105B4000286840F4803005E020F480302860286820
:105B500020F480202860606878B1FFF759FD064680
:105B600041F289372868800317D4FFF751FD801B65
:105B7000B842F7D3032001B0F0BDFFF749FD064658
:105B800041F289372868800307D5FFF741FD801B64
:105B9000B842F7D3032001B0F0BD207880072FD59D
:105BA0002869A96A10F0380004D0182808BF11F03D
:105BB000030F69D1E0682968490701D50028AAD0F8
:105BC000296821F0190108432860FFF721FD0646E6
:105BD0002868400707D4FFF71BFD801B0328F7D375
:105BE000032001B0F0BD00F016FA41F20401884232
:105BF000686843D220F47C30216940EA0130686053
:105C00002078C0061FD52869A96A00F03800082846
:105C100005D0182804BF01F00300012870D12868BE
:105C2000C00503D5E06980287FF475AF00F0F3F973
:105C300041F2040188425BD26868216A20F0F84092
:105C400040EA816068602078000740F198806069D0
:105C50000028686F00F0828040F001006867FFF75D
:105C6000D7FC0646686F800700F18980FFF7D0FCFB
:105C7000801B0328F6D3032001B0F0BD20F0FE40C6
:105C8000216940EA0160BAE7E068F8B1296821F0CB
:105C9000190108432860FFF7BBFC06462868400747
:105CA00007D4FFF7B5FC801B0328F7D3032001B00E
:105CB000F0BD00F0B0F941F204018842686899D360
:105CC00020F0FE40216940EA016098E7286840081A
:105CD00040002860FFF79CFC0646286840078FD5E7
:105CE000FFF796FC801B0328F7D3032001B0F0BD1B
:105CF000E868216A20F07C5040EA0160E860A2E791
:105D0000E0690028286817D040F080002860FFF77D
:105D10007FFC06462868C00507D4FFF779FC801B86
:105D20000328F7D3032001B0F0BD00F074F941F26D
:105D300004018842DCD27FE720F080002860FFF772
:105D400067FC06462868C0057FF57DAFFFF760FC5D
:105D5000801B0328F6D3032001B0F0BD40084000AB
:105D60006867FFF755FC0646686F800707D5FFF7A1
:105D70004FFC801B0328F7D3032001B0F0BD20782F
:105D8000800625D5A0690028286810D040F48050EE
:105D90002860FFF73DFC06462868800418D4FFF70A
:105DA00037FC801B0328F7D3032001B0F0BD20F49B
:105DB00080502860FFF72CFC06462868800407D531
:105DC000FFF726FC801B0328F7D3032001B0F0BDAA
:105DD0002078400751D5D5F8000440F48070C5F80C
:105DE0000004FFF715FC0646D5F80004C00507D4EB
:105DF000FFF70EFC801B6528F6D3032001B0F0BD31
:105E0000A068012803D1286F40F0010012E008B912
:105E1000286F09E00528286F06D140F004002867A4
:105E2000286F40F0010005E0400840002867286F17
:105E300020F004002867A06878B1FFF7E9FB064668
:105E400041F28937286F800717D4FFF7E1FB801BE9
:105E5000B842F7D3032001B0F0BDFFF7D9FB0646E7
:105E600041F28937286F800707D5FFF7D1FB801BE8
:105E7000B842F7D3032001B0F0BD606A00287CD09F
:105E8000296901F0380118293FF445AE0228286835
:105E900020F08070286062D1FFF7BAFB06462868C0
:105EA000800107D5FFF7B4FB801B0328F7D303203D
:105EB00001B0F0BDA86A33490840A16A0843E16A0D
:105EC00040EA0110A862616B206B491E490201F48F
:105ED0007E41401EC0F308000843A16B491E09041F
:105EE00001F4FE010843E16B491E090601F0FE4181
:105EF00008432863686BA16C6FF3CF0040EAC100D0
:105F00006863E86A216C20F00C000843E862E86AE4
:105F1000616C20F002000843E862E86A40F48030D7
:105F2000E862E86A40F40030E862E86A40F4802001
:105F3000E862E86A40F00100E862286840F080709A
:105F40002860FFF765FB06462868800115D4FFF737
:105F50005FFB801B0328F7D3032001B0F0BDFFF7E0
:105F600057FB06462868800107D5FFF751FB801BC9
:105F70000328F7D3032001B0F0BD002001B0F0BD2D
:105F8000004402580CFCFFFF30B50446174D28783A
:105F900081B040B300F0BDF803280CD129784FF44C
:105FA0007A70B0FBF1F012490968B1FBF0F000F033
:105FB0009FF860B117E0FFF76BFD2A784FF47A7114
:105FC000B1FBF2F1B0FBF1F000F092F858B9102CEF
:105FD00009D2002221464FF0FF3000F048F8AC60B3
:105FE000002001B030BD012001B030BD0003002011
:105FF0000C03002000B581B0032000F02BF80F2027
:10600000FFF7C2FF10B1012001B000BD00F09CF805
:10601000002001B000BD0C480068000C70470B4A1E
:1060200020B91068C0EA0100106070475068000C89
:10603000000440EA1140506070470548016841F093
:1060400001010160704700000010005C0C0700585F
:106050002004005834494FF6FF030A68000200F498
:10606000E0601A401043314A10430860704730B472
:106070002D4B1B68C3F30223C3F10704052C28BF73
:1060800004241D1D072D34BF0023DB1E012505FA46
:1060900004F4641E2140994005FA03F35B1E1A4084
:1060A00011430901002803D4214A115430BC704720
:1060B000204A00F00F00104400F8041C30BC704768
:1060C000010008D4012200F01F0002FA00F01A4A71
:1060D000490942F821007047010008D4012200F06C
:1060E0001F0002FA00F0154A490942F821007047E2
:1060F000401EB0F1807F01D30120704710494860F5
:10610000F02081F8130D002088600720086000202F
:1061100070470C480068C0F30310072801D1032022
:1061200070470120704700000CED00E00000FA0508
:1061300000E400E018ED00E000E100E080E100E0B4
:1061400010E000E000ED00E070470268531C0360BF
:10615000117070472DE9F04FAFB0BFF34F8FBFF311
:106160006F8F0020DFF8EC19C1F84402BFF34F8FA6
:10617000BFF36F8F886840F400308860BFF34F8FA3
:10618000BFF36F8FFFF736FF00BF00BF01F012FCB7
:10619000DFF8C4090068012819D14FF08070009021
:1061A000022011900820069005200190A020029066
:1061B0000020089002200390042005900490002005
:1061C00007906846FCF76AFF08B101F0C5FC4FF084
:1061D00001610020FFF723FF08204FF6FF75FFF74E
:1061E00009FA2846DFF87489D8F80010090401D5A7
:1061F000401EF9DA002848BF01F0AEFCD8F8E000F4
:1062000040F00070C8F8E000D8F8E00000F000703E
:1062100000900098002001F0A1FC0021002001F076
:10622000A7FC00BFD8F80000000401D46D1EF9DA05
:10623000002D48BF01F090FC002001F08FFC0028E9
:10624000FAD101F0A1FC4FF05041012001F05BFDBB
:106250000120DFF80C5901F093FD4FF0FF30DFF81B
:1062600004A901F0B3FD4FF488714FF4F07002F00F
:10627000A3F800200FF6201485F860000FF64819E7
:1062800002F0B6F902F008FBDFF8DC0801F093FD3C
:10629000504601F07AFD01F02DFD074601F021FD89
:1062A000B90801F1160382B29BB20021002001F06F
:1062B000A7FEDFF8A408DFF8B4780068002850468D
:1062C0005DD001F06DFD4FF0FF3001F05EFD012368
:1062D0004A460821002001F0B3FD384601F06BFD6D
:1062E00001230FF608121E21002001F0A9FD012351
:1062F0000FF638122A21002001F0A2FD01232246C8
:106300003621002001F09CFDDFF86408DFF86418F6
:106310000068884214D1DFF8600801F036FD0123DF
:106320000FF640224221002001F08AFD01230FF6E2
:1063300054224E21002001F083FD4FF4F07013E051
:10634000DFF8380801F021FD01230FF61C1242216D
:10635000002001F075FD01230FF6E0124E21002010
:1063600001F06EFD4FF4C870C5F890004FF0FF309B
:1063700001F00BFD0021002002F0A2FB22E001F061
:106380000FFD4FF0FF3001F000FD01234A460821C8
:10639000002001F055FD384601F00DFD01230FF6F8
:1063A000E8021E21002001F04BFD01230FF614121C
:1063B0002A21002001F044FD01232246362100203D
:1063C00001F03EFD38464FF4003601F0F4FC4FF08A
:1063D000FF30FF2701F0E4FC4FF07F40DFF8A047DB
:1063E00001F0D3FC01F07DFC81466E60A9F18000D4
:1063F0000021A960E860A9616964AF642964E96368
:10640000A962EF626962286228462C6002F056FD9C
:106410000121284602F0DFFE0021284602F0DBFEC3
:106420005A20DFF8601700FB09F0800000F15042AD
:1064300080205032019013460090284602F0DBFD88
:106440006421284602F040FE01F04BFC81466E605C
:10645000A9F180000021A960E860A9616964AF64C6
:106460002964E963A962EF626962286228462C60A8
:1064700002F024FD0121284602F0ADFE002128464D
:1064800002F0A9FE6420DFF8001700FB09F0DFF836
:10649000FC9601EB800280200190DFF8F41600905A
:1064A0002846134602F0A7FD6421284602F00CFEA0
:1064B00001F017FC2E386E600021E860A960A96128
:1064C0006964AF642964E963A962EF626962286262
:1064D00028462C6002F0F2FC0121284602F07BFEE7
:1064E0000021284602F077FE2C20DFF8303E019094
:1064F0002E2000901A46DFF89C16284602F07BFDFD
:106500006421284602F0E0FD21E000BFDFF86C06C0
:1065100001F03BFC01230FF604024221002001F0B0
:106520008FFC01230FF614024E21002001F088FC9D
:106530004FF4C870C5F890004FF0FF3001F030FC08
:106540004FF07F4001F021FC012085F88D0095F887
:106550008D00002800F0FF8105F1600001F048FF88
:1065600095F86000B0B3012085F88C00002085F814
:106570006000B5F86200B5F86C10C5F8A000C5F869
:10658000A410B0F5D77F25D9322923D2DFF8C8056A
:10659000006801280DD101F085FD01F07BFB02F0C0
:1065A00003FF4FF080700090032011906846FCF7C5
:1065B00075FDBFF34F8FDFF89C05DFF8641D0068A1
:1065C00000F4E0600843DFF88C150860BFF34F8FDC
:1065D00000BFFDE7DFF880050068002800F0F080CC
:1065E000002002F0B2FA002800F0EA80002002F059
:1065F000ACFA0028FAD10FF2047113A891EC080B41
:1066000080EC080B01F04EFD0120012113900220C7
:10661000149013A8FFF702F808B101F09DFAD5F81D
:106620009000B0F5C87F40D100200090D8F8180441
:1066300040F44040C8F81804D8F8180400F440406A
:106640000090D9F8000040F00100C9F80000D9F826
:10665000000000F001000090009800BFD8F8180476
:106660008004FBD5012000904FF480300190002081
:1066700003900790022009900A9005200B90C020FB
:106680000C900020129002200D900F9004200E908C
:1066900000201190082010906846FFF721FA08B1F9
:1066A00001F05AFA4FF4F0703EE0012000904FF4F0
:1066B00080300190002003900790022009900A90FA
:1066C00005200B90A0200C900020129002200D902D
:1066D0000F9004200E900020119008201090684622
:1066E000FFF7FEF908B101F037FA00200090D9F861
:1066F000000040084000C9F80000D9F8000000F090
:1067000001000090D8F8180440F44040C8F818047C
:10671000D8F8180400F4404000900098D8F8180405
:106720008004FBD54FF4C870C5F890000120139089
:1067300003201490042113A8FEF770FF08B101F0A4
:106740000BFA01F0A7FC504601F02AFBDFF8200409
:10675000DFF820140068884214D1DFF81C0401F02F
:1067600014FB01230FF2FC524221002001F068FBD0
:1067700001230FF210624E21002001F061FB4FF463
:10678000F07013E0DFF8F40301F0FFFA01230FF2D9
:106790008C524221002001F053FB01230FF29C5246
:1067A0004E21002001F04CFB4FF4C870C5F890005A
:1067B0004FF0FF3001F0F4FA4FF07F4001F0E5FABE
:1067C00095F88C00012806D0D5F89C0043F6982156
:1067D0008842C0F093800020C5F89C0085F88C00AA
:1067E00085F88D00504601F0D0FA40232E2200217A
:1067F0004FF4D97001F004FC4FF0FF3001F0C5FAFE
:10680000A0234FF488725A21C82001F0F9FB4FF001
:10681000FF3001F0C5FA4FF07F4001F0B6FA0FF6F5
:106820002C31122001F087FB0FF63831132001F0D4
:1068300082FB0FF64C31142001F07DFB0FF67C310A
:10684000152001F078FBC4480068E8B1504601F01B
:10685000A7FAC748C749006888420CBFC648C7485E
:1068600001F093FA01230FF690324E21002001F03F
:10687000E7FA504601F089FA4FF0FF3001F090FA44
:106880004FF07F4001F081FA01F02BFA83466E60F1
:10689000ABF180000021A960E860A9616964AF6480
:1068A0002964E963A962EF626962286228462C6064
:1068B00002F004FB0121284602F08DFC002128464D
:1068C00002F089FC6420B04900FB0BF001EB800270
:1068D00080200190DFF8501A00902846134602F0FD
:1068E0008AFB6421284602F0EFFB4FF07F4001F065
:1068F0004CFA0021002001F03BF928E60A2002F0C2
:106900001FFEDFF8282AD5F89C000A30A0FB0221E0
:10691000C5F89C00490A4FF47A7202FB1101002964
:106920007FF415AE43F69821081ADFF8002AA0FB81
:10693000022105F1CC004A0A0FF6E82102F016FE0A
:1069400005F1CC01122001F0F6FA0FF6F021132028
:1069500001F0F1FAFBE500F029FA0F20FFF714FB34
:1069600002F01EFE002001F0F9F80028FAD14FF0E5
:10697000FF3001F00AFAA0234FF488725A21C82090
:1069800001F03EFB7A487B49006888422DD101F036
:10699000A8F983466E60ABF588700021A960E860B5
:1069A000A9616964AF642964E963A962EF626962FD
:1069B000286228462C6002F081FA0121284602F064
:1069C0000AFC0021284602F006FC5A20DFF8601974
:1069D00000FB0BF001EB8003A02001904FF48870C6
:1069E0000090DFF850191A462CE001F07AF983463E
:1069F0006E60ABF588700021A960E860A9616964E8
:106A0000AF642964E963A962EF626962286228467B
:106A10002C6002F053FA0121284602F0DCFB002131
:106A2000284602F0D8FB5A20DFF8041900FB0BF0CF
:106A300001EB8002A02001904FF488700090DFF8F5
:106A4000F8181346284602F0D6FA6421284602F0C8
:106A50003BFB4FF07F4001F098F995ED250A0FF6CA
:106A6000F811B7EEC00A53EC102B05F1CC0002F080
:106A70007DFD05F1CC01142001F05DFA0FF6001147
:106A8000152001F058FADFF8B4080068C5F898003E
:106A9000BFF36F8FBFF34F8F95ED260A0FF6E81106
:106AA000B7EEC00A53EC102B05F1CC0002F05EFDEE
:106AB00005F1CC01152001F03EFA01F012F92E3853
:106AC0006E600021E860A960A9616964AF6429640F
:106AD000E963A962EF626962286228462C6002F0CD
:106AE000EDF90121284602F076FB0021284602F04C
:106AF00072FB2C20DFF8243801902E2000901A46DB
:106B00002449284602F077FA6421284602F0DCFA8C
:106B10001148006800283FF417AD504601F040F9D5
:106B200013481449006888427FF4F0AC124801F021
:106B30002CF901230FF22C224221002001F080F9D0
:106B400001230FF240224E21002001F079F94FF489
:106B5000F070EFE40CED00E0882B002000440258B8
:106B600000000020009900FFF0020020F802002041
:106B70000C03002000389C1C8080FFFFFF8080FFFA
:106B80000010005200002090600400D02C04005837
:106B90000000289000002C90434F4D50494C455226
:106BA0003A49415220456D62656464656420776F9F
:106BB000726B62656E636820666F722041524D2071
:106BC000372E38300000000053544D3332483778A8
:106BD000782045454D424328522920436F72656D08
:106BE00061726B312E30202000000000434D3720B1
:106BF000757020746F203438304D487A2C20436FE4
:106C0000646520696E20464C4153482C2052572021
:106C100044415441204454434D2C204C31204341A5
:106C2000434845204F4E202000000000434D3420B3
:106C3000757020746F203234304D487A2C20436FA9
:106C4000646520696E20464C4153482C20525720E1
:106C50004441544120443252414D2C204152542051
:106C60004F4E202000000000564F533120776974AA
:106C7000682053797374656D20436C6F636B2034A7
:106C800038304D487A202000434D372040203430A2
:106C9000304D485A2C20436F646520696E20464C65
:106CA0004153482C205257204441544120696E20C2
:106CB0004454434D2C204C31204341434845204F00
:106CC0004E202000434D342040203230304D485A71
:106CD0002C20436F646520696E20464C4153482C3C
:106CE000205257204441544120696E204432524181
:106CF0004D2C20415254204F4E2020000000000017
:106D00000000000000000000000000000000000083
:106D1000000000000000000000000000564F53314A
:106D200020776974682053797374656D20436C6FA4
:106D3000636B203430304D487A20200050726573E8
:106D400073205573657220627574746F6E20746F52
:106D50002073776974636820746F203438304D482D
:106D60007A202000564F5330207769746820537979
:106D70007374656D20436C6F636B203438304D48FD
:106D80007A202000507265737320557365722062FB
:106D90007574746F6E20746F2073776974636820E4
:106DA000746F203430304D487A2020002DE9F04FA8
:106DB000ADF5006D89B0002080460390824602AA9E
:106DC00003A90DF1520004AC02F01EFC01204FF0AB
:106DD000FF3602F023FCADF81000022002F01EFC8A
:106DE0006080032002F01AFCA080042002F016FC50
:106DF000E061052002F012FC0025B146206208B9CE
:106E000007202062BDF91000002804BFB4F9020079
:106E1000002804D1B4F9040008B96620A080BDF9A7
:106E20001000012804BFB4F90200002809D1B4F908
:106E3000040030B943F21540ADF8100060806620C0
:106E4000A08015A8A4F840A0A0604FF4FA60A0614B
:106E5000206AC107C0F3400148BF012501B16D1C84
:106E6000C0F3800000B16D1C4FF4FA60ADB2B0FB0E
:106E7000F5F0A061002707A8216AF940C90709D5E4
:106E8000A269A16808FB02F208F101081FFA88F85C
:106E9000114401607F1C001D032FEDDB94F82000DE
:106EA000C00706D5BDF91020E168A06902F036FFE1
:106EB000606294F8200080070AD5BDF91000B4F98B
:106EC00002100EAB40EA01422169A06903F0DAFA30
:106ED00094F82000400705D5BDF910106269A0693B
:106EE00003F02CFFE069002841D10120E061E06956
:106EF000002500EB80014800E06102F059FBD4F866
:106F00001C80C4F838A0C4F83CA0B8F1000F14D01D
:106F1000012104A802F0DAFD218F02F0A3FB2087F3
:106F2000494604A802F0D2FD218F02F09BFB208786
:106F300005B960876D1C4545EAD302F041FB02F0BC
:106F400047FB02F04AFBB7EE002BB4EE420BF1EE2A
:106F500010FACCDBBCEEC00B10EE100A00B9012019
:106F6000E1690A22B2FBF0F0401C4843E06102F004
:106F70001FFBD4F81C800025C4F838A0C4F83CA03E
:106F8000B8F1000F14D0012104A802F09FFD218F59
:106F900002F068FB2087494604A802F097FD218F84
:106FA00002F060FB208705B960876D1C4545EAD378
:106FB00002F006FB02F00CFB8046BDF91000002138
:106FC000DF4D02F081FC0146B4F9020002F07CFCC6
:106FD0000146B4F9040002F077FC0146A06900B252
:106FE00002F072FC41F6F2018842ADF8000000F0B8
:106FF0007B8144F6AF61884200F06C8147F6053131
:10700000884200F0628148F60221884206D04EF69E
:10701000F511884200F06381B2465BE0D1460FF281
:10702000984003F0FBFE28680027C64E002851D088
:1070300004A807EB071100EB810B0020ABF8400020
:107040009BF82000C00711D506F1A800BBF83A2034
:1070500030F819309A4209D039460FF2485003F0FF
:10706000DDFEBBF84000401CABF840009BF8200060
:10707000800711D506F1B400BBF83C2030F8193078
:107080009A4209D039460FF24C5003F0C7FEBBF8C4
:107090004000401CABF840009BF82000400711D591
:1070A00006F1C000BBF83E2030F819309A4209D0F2
:1070B00039460FF2545003F0B1FEBBF84000401CBB
:1070C000ABF84000BBF940007F1CBFB28244286887
:1070D0008742ADD302F060FC0AEB000636B2BFF384
:1070E0006F8FBFF34F8FA1690FF24C5003F096FEE4
:1070F00041460FF25C5003F091FE404602F06DFAFB
:1071000053EC102B0FF2605003F088FE404602F063
:1071100064FAB5EE400BF1EE10FA11DD404602F0D4
:107120005CFA2868E169484301EE100A0FF25050FA
:10713000B8EE411B81EE000B53EC102B03F06EFEFA
:10714000404602F04AFAB2EE042BB4EE420BF1EEE6
:1071500010FA05D50FF24050761C03F05FFE36B2F0
:107160002868E1690FF2F05A41430FF26C5003F0C6
:1071700055FE0FF294510FF2785003F04FFE514636
:107180000FF2BC5003F04AFE0FF254610FF2386068
:1071900003F044FEBDF800100FF24C6003F03EFE19
:1071A00094F82000C00713D5286800270FF2546B0D
:1071B00070B104A807EB071100EB810039467F1C72
:1071C000BFB2428F584603F029FE28688742F0D3A9
:1071D00094F82000800713D5286800270FF2406B31
:1071E00070B104A807EB071100EB810039467F1C42
:1071F000BFB2828F584603F011FE28688742F0D351
:1072000094F82000400713D5286800270FF22C6B54
:1072100070B104A807EB071100EB810039467F1C11
:10722000BFB2C28F584603F0F9FD28688742F0D3F9
:10723000286800270FF2206B70B104A807EB071134
:1072400000EB810039467F1CBFB2028F584603F025
:10725000E5FD28688742F0D3002E4AD10FF2146072
:1072600003F0DCFDB9F1030F4ED1404602F0B5F951
:107270000FF29440CDF804A000902868E1694843DB
:1072800001EE100A0FF23860B8EE411B81EE000BE0
:1072900053EC102B03F0C2FD404602F09EF9286823
:1072A000E16948430FF2385101EE100A2548B8EE63
:1072B000411B81EE000BB7EEC00B80ED250A0FF2EB
:1072C0001C6003F0ABFD17A01CE04FF001090FF2AA
:1072D0001820A6E64FF002090FF23820A1E64FF081
:1072E00003090FF264209CE64FF004090FF2882096
:1072F00097E6012EA8BF0FF2EC5003DA002E03D55B
:107300000FF2F45003F08AFD0DF1520002F083F900
:107310000DF5006D002009B0BDE8F08FC80600D063
:107320000400FA050A00000000002290986E128303
:10733000200300D0000030900000249020000210B4
:1073400014010020000000207047000020202020B1
:10735000202020202020202020202020202020202D
:10736000200000002020202020202020202020207D
:10737000202020202020202020202020202000004D
:1073800020202020202020202020202020202020FD
:1073900020202020202020202020202020202020ED
:1073A00020202020202020202020202020202020DD
:1073B000202020202020202020200000202020200D
:1073C000202020202042656E63686D61726B2073FF
:1073D0007461727465643A206974206D61792074F7
:1073E000616B6520666577207365636F6E64732ECD
:1073F0002E2E2020202000002020202020202020B1
:10740000202020202020202020202020202020207C
:10741000202020202020202020202020202020206C
:10742000000000002020202564207365636F6E64D7
:1074300073206265666F7265200000002020204383
:107440006F72656D61726B206175746F207374610A
:107450007274202E2E2E00002020202020434D3735
:107460002042656E63684D61726B20726573756C46
:10747000743D2020256620436F72656D61726B73C9
:1074800020202020202020002020202020434D34B8
:107490002042656E63684D61726B20726573756C16
:1074A000743D2020256620436F72656D61726B7399
:1074B0002020202020202000366B20706572666F0F
:1074C000726D616E63652072756E20706172616DA0
:1074D000657465727320666F7220636F72656D618B
:1074E000726B2E0A00000000366B2076616C6964B6
:1074F0006174696F6E2072756E20706172616D6566
:107500007465727320666F7220636F72656D61724D
:107510006B2E0A0050726F66696C652067656E6538
:10752000726174696F6E2072756E20706172616D28
:10753000657465727320666F7220636F72656D612A
:10754000726B2E0A00000000324B20706572666F6D
:10755000726D616E63652072756E20706172616D0F
:10756000657465727320666F7220636F72656D61FA
:10757000726B2E0A00000000324B2076616C696449
:107580006174696F6E2072756E20706172616D65D5
:107590007465727320666F7220636F72656D6172BD
:1075A0006B2E0A005B25755D4552524F5221206CAF
:1075B0006973742063726320307825303478202D0D
:1075C0002073686F756C64206265203078253034D4
:1075D000780A00005B25755D4552524F5221206D9F
:1075E0006174726978206372632030782530347852
:1075F000202D2073686F756C6420626520307825BB
:107600003034780A000000005B25755D4552524F0A
:107610005221207374617465206372632030782571
:10762000303478202D2073686F756C64206265207B
:107630003078253034780A00436F72654D61726B83
:107640002053697A65202020203A20256C750A0095
:10765000546F74616C207469636B73202020202048
:10766000203A20256C750A00546F74616C2074698F
:107670006D65202873656373293A2025660A00002A
:10768000497465726174696F6E732F53656320204E
:10769000203A2025660A00004552524F5221204DC3
:1076A000757374206578656375746520666F7220E4
:1076B0006174206C6561737420313020736563736D
:1076C00020666F7220612076616C69642072657338
:1076D000756C74210A000000497465726174696FE9
:1076E0006E73202020202020203A20256C750A006F
:1076F000436F6D70696C65722076657273696F6E29
:10770000203A2025730A000049415220432F432B81
:107710002B20436F6D70696C657220666F7220411B
:10772000524D20372E36302E312E3131313031202E
:1077300028372E36302E312E3131313031290000AC
:10774000436F6D70696C657220666C616773202091
:10775000203A2025730A00002D2D6E6F5F73697A21
:10776000655F636F6E73747261696E7473202D2D23
:10777000656E6469616E3D6C6974746C65202D2D55
:107780006370753D436F727465782D4D37202D659C
:10779000202D2D6670753D56465076355F64313626
:1077A000202D2D646C69625F636F6E666967202DA2
:1077B0004F6873202D2D7573655F632B2B5F696E8A
:1077C0006C696E65000000004D656D6F7279206C0C
:1077D0006F636174696F6E20203A2025730A000080
:1077E000535441434B00000073656564637263202A
:1077F0002020202020202020203A203078253034DE
:10780000780A00005B25645D6372636C69737420A1
:107810002020202020203A203078253034780A009B
:107820005B25645D6372636D6174726978202020EA
:1078300020203A203078253034780A005B25645DBA
:1078400063726373746174652020202020203A20C5
:107850003078253034780A005B25645D6372636696
:10786000696E616C2020202020203A20307825305D
:1078700034780A00436F7272656374206F706572AA
:107880006174696F6E2076616C6964617465642EE1
:107890002053656520726561646D652E747874206F
:1078A000666F722072756E20616E64207265706FF3
:1078B0007274696E672072756C65732E0A00000021
:1078C000436F72654D61726B20312E30203A202556
:1078D00066202F202573202573000000202F2025EF
:1078E000730000004572726F727320646574656383
:1078F0007465640A0000000043616E6E6F74207648
:10790000616C6964617465206F7065726174696F20
:107910006E20666F72207468657365207365656498
:107920002076616C7565732C20706C6561736520C1
:10793000636F6D706172652077697468207265731A
:10794000756C7473206F6E2061206B6E6F776E2084
:10795000706C6174666F726D2E0A000000B581B0A4
:1079600003F06EFA00207749086001B000BD10B541
:10797000744A6FF07F401368734993B10023044643
:10798000136092680B680021801A4FF47A72E4FB4E
:107990000301002303F05CFA0123994208D300207D
:1079A00010BD0B6000219160506007201060002026
:1079B00010BD000030B59DB0644C03F0FFFA022802
:1079C000634D45D103F0BCFA0020009028684008C0
:1079D00040002860286800F001000090D4F81804E6
:1079E00040F44040C4F81804D4F8180400F44040AF
:1079F00000900098D4F818048004FBD5D4F8F40063
:107A000040F00200C4F8F400D4F8F40000F00200E2
:107A10000090009800200090D4F8180440F44040F2
:107A2000C4F81804D4F8180400F440400090286802
:107A300040F001002860286800F0010000900098E4
:107A4000D4F818048004FBD50120424908601DE0E9
:107A5000042003F075FA00200090286840084000D8
:107A60002860286800F001000090D4F8180440F461
:107A70004040C4F81804D4F8180400F440400090C2
:107A8000009800BFD4F818048004FBD501200190B1
:107A90004FF48030029000200490089002200A9059
:107AA0000B9003F08BFA02280ED1052029490C9087
:107AB000C0200D900020139002200E901090042002
:107AC0000F90012008600AE005200C90A0200D9086
:107AD0000020139002200E90109004200F900020A0
:107AE00012900820119001A8FDF7FAFF00B1FEE7FF
:107AF0003F200221149003201590002016900820AA
:107B000017904020189019904FF480601A904020F0
:107B10001B9014A8FDF782FD00B1FEE7206840F03D
:107B200080002060D4F8F40040F00200C4F8F400B3
:107B3000D4F8F40000F0020000900098FEF77DFAFF
:107B40001DB030BD10E000E08C2B00200044025836
:107B50002C040058882B0020FEE70000084951F84B
:107B600020000849884201D1002070470120704759
:107B700041F44071014A42F82010704700640258F5
:107B800080640258000300802820002110B5DFF82F
:107B9000584486B060610920A0612A20E0610B2072
:107BA000206240F21B10A06240F20A20606240F2A4
:107BB0001D10206340F22A20E0624FF4F07020662E
:107BC0004FF4887060660020A08684F836006060FC
:107BD000A060E0602061DFF814042060204603F01C
:107BE000F7F9204603F0B4FA18B90021204600F056
:107BF00049FB204603F0FEF901F054FBD4F8600184
:107C000000EB400104EB81004FF4B2712144C0F855
:107C10005011DFF8DC03C4F808014FF484702044ED
:107C200003F085FBDFF8CC03016841F4806101605B
:107C3000016801F4806100910099016941F002013D
:107C40000161006901A900F0020000900098022083
:107C500002900120039003200490059001200190E0
:107C6000DFF8940303F090FB0420C4F80C014CF2FD
:107C70005030C4F814010020C4F81801C4F81001F1
:107C8000C4F81C014FF48470204403F0EBFA002088
:107C900006B010BD10B5DFF85043DFF85003206088
:107CA0008169490849008161204603F01CFA0021DE
:107CB000204603F01DFDDFF83803C4F808014FF437
:107CC0008470204403F033FBDFF83003016821F0B7
:107CD000020101600121DFF8200303F040FC0020D5
:107CE00010BDDFF804033422D0F86011514308447A
:107CF000006E7047DFF8F0023422D0F86011514373
:107D00000844406E704730B504468DB00020DFF85F
:107D1000D8520090D5F86001342250432844026EB6
:107D2000019200220292426E0991FF2105914FF4C7
:107D3000C061039200220791072104920692ADF8D8
:107D400030208DF8322022460891016E0A91406E53
:107D50000B906946284603F0D2F904EB44004FF03B
:107D6000FF3105EB8000C0F84C114FF4B27129448B
:107D7000C0F850114FF07F41C0F848110DB030BD30
:107D8000DFF86412C1F860017047DFF85C12D1F8C7
:107D9000602102EB420301EB8301C1F84801704707
:107DA000DFF84412D1F8602102EB420301EB8301BA
:107DB000C1F84C017047DFF83012D1F8602102EBB6
:107DC000420301EB8301C1F85001704734212DE9D2
:107DD000F0410446DFF81082D8F8600182B04843D1
:107DE0004044466E076EC56D4FF44030C8F8AC0095
:107DF0000020C8F8B000C8F8B400DFF89402C8F852
:107E0000A80008F1A80001F059F8B0B9012108F163
:107E1000A80001F0E0F980B900963B462A462146C9
:107E200008F1A80001F081F838B908F1A80002B003
:107E30000A21BDE8F04101F047B902B0BDE8F08188
:107E40002DE9F04381B014788846164600270021BA
:107E500074B15478491C5CB19478491C44B1D4780D
:107E6000491C002C04D012F8044F491C002CF0D1FE
:107E7000DFF874913425D9F8604104EB44026C4377
:107E800009EB8202012B4C44D2F85021246E9288D7
:107E9000B4FBF2F402D0022B05D009E0611A514381
:107EA00000EB510405E04042611A02FB010400E0CE
:107EB0000446A0B218B1A4B2B4F5004F1DDB0124F2
:107EC0001BE0086816F8013BC988D21D7F1C203BC7
:107ED0005943931002EB5372D2105143421841465A
:107EE000A0B200F0E7F8D9F8600100EB400109EB1F
:107EF0008100D0F8500180880419D9F860313178B8
:107F0000BFB2481E03EB430109EB810180416B4383
:107F1000C043C00FD1F850114B441B6E8A8802FB3E
:107F200017339BB293429B41DB4310EAD37FC8D106
:107F300001B0BDE8F0832DE9F043DFF8AC8081B0FB
:107F4000D8F860210C46002702EB420308EB8302BD
:107F5000D2F85021D18810FB01F62046017851B1AA
:107F6000417841B1817831B1C178002903D010F84E
:107F7000041F0029F4D101254FF034091BE00868E3
:107F800014F8013BC988D21D7F1C203B5943931034
:107F900002EB5372D21051434218B1B2A8B200F0B2
:107FA00089F8D8F8600100EB400108EB8100D0F8B7
:107FB000500180884519207890B1D8F86001BFB28F
:107FC00000EB400109FB00F008EB8101D1F85011F2
:107FD0004044006E8A8802FB170083B29342CED2DF
:107FE00001B0BDE8F08300008401002000100050C3
:107FF00000040140E044025800280258F0440258AE
:108000002DE9F041DFF8746282B0D6F860C1154600
:108010000CEB4C0406EB8404D4F848711C46342362
:1080200003FB0CF33344D3F860C0DB6D01FB0C00A1
:1080300003EB80084FF44030C6F8AC000020C6F8CF
:10804000B000ACEB0200C6F8B4001148C6F8A800B6
:1080500006F1A80000F032FFB0B9012106F1A80036
:1080600001F0B9F880B900942B464246394606F132
:10807000A80000F05AFF38B906F1A80002B00A21A2
:10808000BDE8F04101F020B802B0BDE8F081000089
:1080900000100052DFF8E8010068816941F0010139
:1080A00081617047DFF8D80100688169490849009B
:1080B000816170472DE9F44FDFF8C49184B0D9F89D
:1080C0006061002206EB460309EB8303D3F850817D
:1080D000B8F806700397B8F8048008F107074FEA6C
:1080E000A70C019707EB5C77FF100097C8EBC70759
:1080F000FFB20297039F002F00F0BC8034277E431D
:10810000B144009F049E57433E44009F012F02D07C
:10811000022F02D006E036780DE03778767846EA0E
:10812000072608E096F801C03778B6784FEA0C2C9D
:108130004CEA07473E43B8F1000F4FF0000C00F047
:10814000938018F0030E89B21ED0029D0CEB000440
:10815000A4B245446D1EA5EB0C0526FA05FA5FEAAC
:10816000CA75D9F860A0D9F85C500CF1010C0AFB73
:10817000014405EB84044CBFD3F84851D3F84C516B
:10818000BEF1010E2560E0D15FEA980E6CD0029C32
:108190000CEB0005ADB24444641EA4EB0C0A26FAB5
:1081A0000AFB5FEACB7AD9F860B0D9F85CA00CF191
:1081B000010C0BFB01550AEB85054CBFD3F848A118
:1081C000D3F84CA1C5F800A0A4EB0C0A26FA0AFBD0
:1081D0000CEB00055FEACB7AD9F860B0ADB2D9F804
:1081E0005CA00CF1010C0BFB01550AEB85054CBFA3
:1081F000D3F848A1D3F84CA1C5F800A0A4EB0C0A11
:1082000026FA0AFB0CEB00055FEACB7AD9F860B0DE
:10821000ADB2D9F85CA00CF1010CA4EB0C040BFB83
:1082200001550AEB85054CBFD3F848A1D3F84CA102
:10823000C5F800A026FA04FA0CEB00055FEACA7440
:10824000D9F860A0ADB2D9F85C400CF1010C0AFB82
:10825000015504EB85044CBFD3F84851D3F84C5179
:10826000BEF1010E256092D1039E491C521CB24200
:10827000FFF447AF05B0BDE8F08F00008401002097
:108280008401002010B586B045480169454C41F095
:1082900008010161016901F008010091009901687C
:1082A00041F010010160016801F010010091009996
:1082B000C16841F48071C160C16801F480710091AE
:1082C0000099C16841F40071C160C16801F4007196
:1082D00000910099C16841F48061C160C16801F4F6
:1082E000806100910099C16841F08001C160C1685E
:1082F00001F0800100910099C16841F00801C1605E
:10830000C06801A900F00800009000984DF2032019
:1083100001900220029000200390022004900E2081
:108320000590214803F030F84FF6FB7001A9019049
:108330000220029000200390022004900E2005905D
:108340001A4803F021F87C2001A901900220029034
:1083500000200390022004900E200590144803F0A2
:1083600013F840F2022001A901900220029000209F
:108370000390022004900E2005900E4803F004F8AC
:10838000802001A9019001200290204602F0FCFF0C
:1083900001228021204603F08EF906B010BD00BFF7
:1083A000D4440258000C02580020025800240258FD
:1083B00000280258001C025870B5894E894DA980CA
:1083C0000024688031687020884771687020884771
:1083D000512809D17020AE60687008202870F168BB
:1083E00070208847204670BD0324204670BD0000E1
:1083F0007C492DE9F04F0446896893B000257948FF
:108400000595049540780395096988470100207017
:1084100000F0E280744904F11606029173490DF1EF
:1084200018090DF124080FAF0DF1300A04F1020B09
:10843000CDF8041000F095806A4B6A489B6840783C
:108440004A4641465B69984766480078012806D14C
:10845000B8F800103980B9F80010AAF800108107A8
:1084600004D5B8F80010C1F580513980410705D511
:10847000B9F80010C1F58051AAF80010000706D520
:10848000B8F80000AAF80000B9F800003880029A95
:108490003988DDF804E012688A42DEF800E034BF73
:1084A000A1EB020CA2EB010CBAF80020964534BFF8
:1084B000A2EB0E0EAEEB020E1FFA8EFE1EFA8CFC25
:1084C000BCF1060F05DBDDF808C0CCF80010019800
:1084D000026044484078702804D1ABF80010ABF833
:1084E0000A200FE0029A3F49498812685143090B5C
:1084F000ABF800103B49019A898812685143090B77
:10850000ABF80A1003A904AB009105AA294603F0B1
:108510001BFA059830700498B072039803280BD8A2
:10852000DFE800F002040608012004E0022002E077
:10853000032000E00020707101986D1CBF1C761CA8
:108540000BF1020B0AF1020A001D08F1020801906A
:10855000029809F10209001D029020788542FFF47B
:108560006BAF0020694600901E484078002503F05C
:10857000D9F9009850B3102827D014281FD01828F4
:1085800017D01C280FD0402807D0492823D1062017
:10859000A062284613B0BDE8F08F0520A0622846EF
:1085A00013B0BDE8F08F0420A062284613B0BDE8E8
:1085B000F08F0320A062284613B0BDE8F08F0220A0
:1085C000A062284613B0BDE8F08F0120A0622846C3
:1085D00013B0BDE8F08F0125284613B0BDE8F08F39
:1085E00058010020302B00203C2B0020502B002075
:1085F000DFF8F8022DE9F047DFF8F442A4B020607C
:10860000204603F070FAC0B90021204600F072F94C
:10861000022060600120A0601020E0601A2020612C
:108620004FF4007060610020A0618020E061402074
:108630002062204603F0EEF918B1012024B0BDE815
:10864000F08766204FF48077159000201C9041F24F
:1086500088381D9042461E9015A91A9020902190AE
:10866000229020461B9703F05BFA002840F010810F
:1086700099204246159015A9204603F051FA00288A
:1086800040F0068166204FF44076159042461B96D6
:1086900015A9204603F044FA002840F0F9809920FB
:1086A0004246159015A9204603F03AFA002840F0FA
:1086B000EF8035200D97079000200E9042460F90D6
:1086C00007A910900C90129013901490204603F07C
:1086D00027FA002840F0DC8005204FF04077079013
:1086E00000200E904FF480050F9002200C90002087
:1086F000129040F201191390434614906A4600907C
:1087000007A9049010200D9610970290022005955D
:1087100003902046CDF8049003F0EEFB002840F0D3
:10872000B780B7201B96159000201C9042461D90E4
:1087300007A91E901A902090219022900620079061
:1087400000200E900F9010900C90129013901490A7
:1087500020460D9603F0E4F9002840F0998004903B
:108760000220039040F2022A1020CDF800A0CDF89C
:1087700004A043460290052005956A46079007A984
:108780001097204603F0B8FB002840F08180424655
:1087900015A9204603F0C4F9002879D105200D96CB
:1087A000079000200E9043460F9002200C9000206E
:1087B00012906A46139007A914900090049010201C
:1087C000109702900220059503902046CDF8049062
:1087D00003F092FB00285BD1ADF8180085201590BE
:1087E00000201C9042461D9015A91A9002201F904F
:1087F000002020902190229020461B961E9703F087
:108800008FF9002844D1424606A9204603F0F2FA27
:1088100000283DD106200D96079000200E9042467C
:108820000F9007A910900C9012901390149020466E
:1088300003F076F960BB0490022003901020CDF87D
:1088400000A04346CDF804A06A4602900520059595
:1088500007A907902046109703F04EFBC0B981206E
:1088600040F60F711590BDF818004246084040F4DC
:10887000004040F0800015A9ADF81800204603F034
:108880004FF928B9424606A9204603F03BFA00B149
:10889000042024B0BDE8F08700B591B04FF44070DB
:1088A0000890ED2002904FF4406009904FF4405042
:1088B000059000200A904FF040700B900520079023
:1088C0004FF000400D904FF080400E9000200F9030
:1088D0006A46019002A90090054803F01AFC401E68
:1088E0008041C043C00F11B000BD000000500052D5
:1088F000E42A0020F0B587B06C48816D6C4C6D4D5A
:1089000041F480418165816D01F4804100910099BD
:10891000016841F480410160016821F480410160F7
:10892000416E41F020014166416E01F0200100914D
:108930000099416E41F040014166416E01F04001F5
:1089400000910099416E41F008014166416E01F0CD
:10895000080100910099416E41F020014166416E8D
:1089600001F0200100910099416E41F02001416623
:10897000416E01F0200100910099416E41F020010B
:108980004166416E01F0200100910099416E41F075
:1089900040014166416E01F0400100910099416E35
:1089A00041F080014166416E01F080010091009923
:1089B000416E41F080014166416E01F080010091FD
:1089C0000099416E41F040014166416E01F0400165
:1089D00000910099416E41F040014166406E01A94D
:1089E00000F04000009000984FF480600190022059
:1089F0000290032004900020039009200590204657
:108A000002F0C2FC402001A90190012003900A203D
:108A10000590284602F0B8FC4FF4006001A90190CF
:108A20000020039009200590234802F0ADFC0420AB
:108A300001900920214F059001A938464FF4007696
:108A400002F0A2FC0A200196059001A9204602F03E
:108A50009BFC082001A9019009200590384602F0EE
:108A600093FC802001A9019009200590204602F086
:108A70008BFC019601A9284602F086FC402001A942
:108A80000190204602F080FC4FF4804001A9019043
:108A9000284602F079FC00220F215C20FDF7E7FA5E
:108AA0005C20FDF70DFB07B0F0BD00BF7C44025811
:108AB0000014025800180258000C0258001C0258FA
:108AC00030B5044687B00D46DFF8C403016841F0B5
:108AD00004010160006800F0040000902800009884
:108AE00010D10FF2D03001A930F81400019000200D
:108AF0000290039003200490DFF8980350F82400BC
:108B000002F042FC012D1ED10FF2A83001A930F86D
:108B1000140001900020039003200490DFF87803F4
:108B20000290DFF8700350F8240002F02DFC0FF2E1
:108B30008830002230F814400F2120B2FDF797FA58
:108B400020B2FDF7BDFA07B030BD0FF26831DFF893
:108B5000442331F8101052F8200002F0A5BD70B582
:108B6000DFF83843B6B0204603F0F0FF002870D19C
:108B7000DFF82C03DFF82C532060DFF82C03606053
:108B80007220A0600120E0604FF4004020610020CE
:108B90006061DFF81863A0614FF40020E0610020FD
:108BA0002062082006900020269006A8FAF776FAA0
:108BB000286801A920F040002860D5F8D00040F0D6
:108BC0000800C5F8D000D5F8D00000F008000090EB
:108BD00000984FF4805001901220029000200390E2
:108BE0000320049004200590304602F0CDFB4FF4A2
:108BF000005001A90190304602F0C6FBD5F8E40010
:108C000000220F2140F08000C5F8E400D5F8E40010
:108C100000F0800000900098D5F88C0040F08000B3
:108C2000C5F88C00D5F88C0020F08000C5F88C00C9
:108C30005F20FDF71CFA5F20FDF742FA00220F21AA
:108C40006020FDF714FA6020FDF73AFA204603F0A1
:108C500033FB36B070BD70B5B8B0DFF840428DF868
:108C60000C20642202920122019203AA00920A4679
:108C700001460123204603F091FB002878D02046CE
:108C800003F072FB204603F061FF002870D1DFF88B
:108C90001002DFF810522060DFF80C0260607220D2
:108CA000A0600120E0604FF400402061002060617E
:108CB000DFF8F861A0614FF40020E061002020623D
:108CC000082009900020299009A8FAF7E7F92868F8
:108CD00004A920F040002860D5F8D00040F008003A
:108CE000C5F8D000D5F8D00000F00800009000983A
:108CF0004FF480500490122005900020069003202D
:108D0000079004200890304602F03EFB4FF40050DC
:108D100004A90490304602F037FBD5F8E4000022A5
:108D20000F2140F08000C5F8E400D5F8E40000F021
:108D3000800000900098D5F88C0040F08000C5F8C5
:108D40008C00D5F88C0020F08000C5F88C005F20E6
:108D5000FDF78DF95F20FDF7B3F900220F216020A8
:108D6000FDF785F96020FDF7ABF9204603F0A4FA82
:108D700038B070BD70B5B8B000228DF80C204FF43B
:108D80007A7202920122019203AA00920A46434C8F
:108D900001460123204603F0F2FC002874D020464F
:108DA00003F0E2FA204603F0D1FE00286CD13C48E3
:108DB0003C4D20603C4860607220A0600120E06073
:108DC0004FF40040206100206061384EA0614FF4F4
:108DD0000020E061002020620820099000202990F6
:108DE00009A8FAF75BF9286804A920F04000286078
:108DF000D5F8D00040F00800C5F8D000D5F8D00074
:108E000000F00800009000984FF480500490122069
:108E1000059000200690032007900420089030461B
:108E200002F0B2FA4FF4005004A90490304602F068
:108E3000ABFAD5F8E40000220F2140F08000C5F81D
:108E4000E400D5F8E40000F0800000900098D5F828
:108E50008C0040F08000C5F88C00D5F88C0020F024
:108E60008000C5F88C005F20FDF701F95F20FDF759
:108E700027F900220F216020FDF7F9F86020FDF7A7
:108E80001FF9204603F018FA9DF80C0038B070BDA9
:108E9000E04402588001002000001111982A0020AF
:108EA000001C00581044025832279140000C025810
:108EB00000F046BB002000002800000010B50400B0
:108EC00001D1012010BD94F8590020B984F8580050
:108ED000204600F0E5F9022084F859002068016876
:108EE000626821F44031114301602068416BA2683F
:108EF000C90842EAC10141632068016CE268890B3C
:108F000042EA813101642068416B226921F44011F9
:108F100041EA0251626941EA425141630020E06541
:108F2000012084F85900002010BD70B490F858401A
:108F3000012C08BF02205CD0012480F85840022494
:108F400080F859400468656C039E46EA034305F0C7
:108F500040452B4363640368DA634268B2F5403FDF
:108F60003FD1856801F07F4201F47F0301F47F4423
:108F700001F0FF012DB923431A43114302689163A5
:108F800031E0012D05D143EA0402114302689163E7
:108F900029E0022D09D1DB0CA20ADB0243EA4212CE
:108FA00042EAD101026891631DE0032D0CD1DB0C74
:108FB000E40A9B02D20F43EA441343EAC23242EA74
:108FC000D101026891630EE01B0D240B1B02120FEE
:108FD00043EA041343EA023242EA11110268916340
:108FE00001E00268D1600068016841F001010160A0
:108FF000002070BC704770B490F85840012C08BF36
:1090000002205FD0012480F85840022480F85940A3
:10901000046862610268546C049E039D46EA05453B
:1090200004F040442C4354640268D3634268B2F5B0
:10903000403F3FD1856801F07F4201F47F0301F496
:109040007F4401F0FF012DB923431A431143026805
:10905000916331E0012D05D143EA04021143026816
:10906000916329E0022D09D1DB0CA20ADB0243EA5D
:10907000421242EAD101026891631DE0032D0CD136
:10908000DB0CE40A9B02D20F43EA441343EAC232E8
:1090900042EAD101026891630EE01B0D240B1B0212
:1090A000120F43EA041343EA023242EA1111026842
:1090B000916301E00268D1600068016841F001013C
:1090C0000160002070BC704770B5044682B000207B
:1090D0000D46009020680068C00727D5FCF798FA75
:1090E000064620684168890720D4416800910099AC
:1090F00011F0210F0FD00099890603D5E16D41F0E1
:109100000201E1650099C90703D5E16D41F0010154
:10911000E165212133E015F1010FE2D0FCF778FA87
:10912000801B85423FD3002DDBD13CE02068C16924
:10913000406A0843800643D5FCF76AFA0646206871
:109140004168C9063CD441680091009911F0290F8B
:109150001FD00099090703D5E16D41F00401E165D5
:109160000099890603D5E16D41F00201E16500999E
:10917000C90703D5E16D41F00101E1652921816055
:10918000042084F85900002084F85800012002B01F
:1091900070BD15F1010FD2D0FCF73AFA801B854261
:1091A00001D3002DCBD1E06D40F02000E06503201D
:1091B00084F85900002084F85800032002B070BDE4
:1091C000216812208860012084F85900002084F86A
:1091D000580002B070BD70B490F85820012A08BF42
:1091E000022055D0012280F85820022280F8592010
:1091F000C1EBC10200EB820220325368946843EA5B
:10920000044415690A2B44EA0554556918BF092B13
:1092100044EA45541F4D04D1D66806F07F463443D6
:1092200002E0D66844EA066499B901681A4D4B6AAF
:109230002B4023434B6203681168996151680A29E6
:1092400018BF09291DD1D168026821F07F419162C0
:1092500017E00B2B03D19169104D44EA814401685A
:10926000CB69AB432343CB61036811681961516833
:109270000A2918BF092904D1D168026821F07F4169
:109280001162012180F85910002180F85810002047
:1092900070BC70470F0033FFF0FFCC000F003FFFA2
:1092A000704700004B48002130B54B4C81B0206026
:1092B000022060630720A0630420E063072020648D
:1092C00002206064A064E064012060600020A0606F
:1092D0000420E06010202061402060614FF4C070E5
:1092E000A0610020E0614FF4006020624FF48050E4
:1092F00060620020A062204600F070F804F13401A2
:10930000204603F027FC30B1012001B084F8600052
:1093100094F8600030BD0090012020650820606551
:109320000120A0650020E0654FF6FF752A4604F194
:109330005001204603F044FC012000F001F9022016
:109340002A462065082060650120A0650020E065B0
:1093500004F15001204603F033FC03202A46206527
:109360000820606504F15001A0650020E0652046FA
:1093700003F026FC4FF40C702A4600900420206570
:10938000082060650120A0650098E06504F15001A7
:10939000204603F015FC40F20361204603F02FFC49
:1093A00094F8600001B030BD10B50B4C0948206046
:1093B000204603F0F7FB28B1012084F8610094F8FF
:1093C000610010BD0021204603F032FC94F86100DA
:1093D00010BD000040410052E429002030B5044691
:1093E00087B04F484F4D016841F4805101600168DA
:1093F00001F4805100910099016841F00101016080
:10940000016801F0010100910099C16841F0080173
:10941000C160C16801F0080100910099C16841F084
:109420001001C160C16801F0100100910099C1688C
:1094300041F02001C160C16801F020010091009954
:10944000C16841F04001C160C16801F04001009174
:109450000099C16841F08001C160C06801A900F0B5
:1094600080000090009802200290012003900320C9
:1094700004900C2005904CF2037001902A4801F0F2
:1094800083FF4FF6837001A90190284801F07CFF0B
:109490004FF63F0001A90190254801F075FF48F201
:1094A000331001A90190234801F06EFFE02001A9CB
:1094B0000190214801F068FF4FF0804068604FF054
:1094C0008050A8608020E8600020286140F20220DF
:1094D000686140F60800A8612020E86180202862C9
:1094E0004FF0007068620020E86228638020A86264
:1094F00000206863A86311482860284625632C640F
:1095000003F0D9FB284603F0A5FB00220F217A20A7
:10951000FCF7ADFD7A20FCF7D3FD07B030BD00BFEE
:10952000D44402580C290020000C025800100258A4
:109530000014025800180258001C02584000005243
:1095400030B581B00446FCF763F814F1010F05460D
:1095500002D0054800782418FCF75AF8401BA042B6
:10956000FAD301B030BD00BF000300200CB41CB51D
:10957000044604A801900A46009401AB69460748D6
:109580007844183003F014FC009A00211170002870
:109590005CBF0098001B16BC5DF80CFBAFCBFFFF57
:1095A0000248016841F002010160704710E000E0EC
:1095B00000B581B0FEF7DBF9104901B0086000BDCD
:1095C00000B581B0FEF7D3F90C4901B0486000BD89
:1095D0000A4841680068081A7047094A00EE100AF4
:1095E00008480068B8EE400BA0FB0221480A01EED3
:1095F000100AB8EE411B80EE010B7047642B00206F
:10960000986E12830C03002010B50446FEF7A6F9ED
:109610000120207010BD002101707047401E0428F9
:1096200013D8DFE800F00306090C0F0008480068B3
:109630007047084800687047074800687047074847
:1096400000687047064800687047002070470000B7
:109650007C2B0020802B00200C010020100100201A
:10966000842B002030B481EA00030206540E49081E
:109670004AF20102DB0748BF514081EA040349086E
:10968000DB0748BF514081EA54034908DB0748BF64
:10969000514081EA94034908DB0748BF514081EA01
:1096A000D4034908DB0748BF514081EA1413490835
:1096B000DB0748BF514081EA54134D08D90748BF22
:1096C000554085EA94136908DB0748BF514081EA99
:1096D00010234908DB0748BF514081EA502349085D
:1096E000DB0748BF514081EA90234908DB0748BFA8
:1096F000514081EAD0234908DB0748BF514081EA45
:1097000010334908DB0748BF514081EA503349080C
:10971000DB0748BF514081EA9033C40B4908D807A2
:1097200048BF514048086140C90730BC48BF50405D
:10973000704770B481EA00040206550E49084AF2E7
:109740000102E40748BF514081EA05044908E407E3
:1097500048BF514081EA55044908E40748BF5140D9
:1097600081EA95044908E40748BF514081EAD504DD
:109770004908E40748BF514081EA15144908E40745
:1097800048BF514081EA55144E08E10748BF564092
:1097900086EA95147108E40748BF5140030481EA42
:1097A00013644908E40748BF514081EA53644908FB
:1097B000E40748BF514081EA93644908E40748BF81
:1097C000514081EAD3644908E40748BF514081EA27
:1097D00013744908E40748BF514081EA53744908AB
:1097E000E40748BF514081EA93744D08E10748BF40
:1097F000554085EAD3716C08C90748BF5440010C35
:1098000084EA010308066408DB0748BF544084EA81
:1098100050636408DB0748BF544084EA90636408DF
:10982000DB0748BF544084EAD0636408DB0748BFC5
:10983000544084EA10736408DB0748BF544084EA4C
:1098400050736408DB0748BF544084EA9073C50F27
:109850006408D80748BF5440600884EA0503DB0762
:1098600048BF504080EA11234008DB0748BF504002
:1098700080EA51234008DB0748BF504080EA91232B
:109880004008DB0748BF504080EAD1234008DB078F
:1098900048BF504080EA11334008DB0748BF5040C2
:1098A00080EA51334008DB0748BF504080EA9133DB
:1098B0004408D80748BF544084EAD131600870BCDE
:1098C000C90748BF5040704780B281EA000330B4F6
:1098D0000206540E49084AF20102DB0748BF514014
:1098E00081EA04034908DB0748BF514081EA540379
:1098F0004908DB0748BF514081EA94034908DB0768
:1099000048BF514081EAD4034908DB0748BF5140B2
:1099100081EA14134908DB0748BF514081EA541318
:109920004D08D90748BF554085EA94136908DB07FD
:1099300048BF514081EA10234908DB0748BF514026
:1099400081EA50234908DB0748BF514081EA902350
:109950004908DB0748BF514081EAD0234908DB07AB
:1099600048BF514081EA10334908DB0748BF5140E6
:1099700081EA50334908DB0748BF514081EA903300
:10998000C40B4908D80748BF514048086140C9077F
:1099900030BC48BF50407047002070472DE9F0416F
:1099A00082B00746B7F9004088461546200648BFF2
:1099B00004F07F0633D4C4F3C30040EA001114F06E
:1099C00007000BD001281CD12A8F05F1280000F0D8
:1099D00023FB06B2A88FA8B9AE8713E02229288FEF
:1099E000B8BF222101900091B5F90230B5F90020ED
:1099F0006969A86900F0B6FF06B2E88F10B9EE8772
:109A000000E02646298FB0B206F07F06FFF72AFE57
:109A1000288724F0FF00304340F080003880B8F9F8
:109A20000070380648BF07F07F0034D4C7F3C30086
:109A300040EA001117F007000BD001281CD12A8F33
:109A400005F1280000F0E8FA04B2A88FA8B9AC87A5
:109A500013E02229288FB8BF222101900091B5F987
:109A60000230B5F900206969A86900F07BFF04B2F3
:109A7000E88F10B9EC8700E03C46298FA0B2FFF7D1
:109A8000F1FD288704F07F0027F0FF01014341F03A
:109A90008001A8F80010301A02B0BDE8F08172B958
:109AA000825EB0F90030121262F307030380B1F94D
:109AB0000020B1F90030121262F307030B80B0F9F5
:109AC0000200B1F90210401A704700002DE9F04F72
:109AD00081B0002302469B46B2F904E09C46546ADA
:109AE0008A469846BEF1010FC0F282800FFA8AFAC8
:109AF000BAF1000F08F0FF09264621D4002E1EBF40
:109B00007068B0F9020050451CBF3668002E31D095
:109B10007068B0F9020050451CBF3668002E29D08D
:109B20007068B0F9020050451CBF3668002E1EBF99
:109B30007068B0F9020050451CD03668DEE7366820
:109B4000C6B177683F784F451CBF3668002E11D0EC
:109B500077683F784F451CBF3668002E0AD077687B
:109B60003F784F451CBF3668002E1EBF77683F7890
:109B70004F45E4D12046002490B1076804600446B4
:109B800077B138683C603C4600281FBF0768046016
:109B90000446002F1FBF38683C603C460028ECD1CB
:109BA0004EB920680CF1010C4068B0F90000C0F318
:109BB0000020C31810E070680BF1010BB0F9000031
:109BC000C70744BFC0F34020C318306820B10768FE
:109BD0003760266806602060BAF1000F08F10108BE
:109BE0000FFA88F858BF0AF1010AF045FFF67EAF78
:109BF00003EB8B000129A0EB0C0B04DBD3492046BF
:109C000000F0ACF9044620680FFA8AFA2546D0F82D
:109C100000804168D8F804204260C8F80410D8F8E1
:109C2000001001600020BAF1000FC8F8000021D434
:109C3000002D1EBF6868B0F9020050451CBF2D689A
:109C4000002D33D06868B0F9020050451CBF2D6864
:109C5000002D2BD06868B0F9020050451CBF2D685C
:109C6000002D1EBF6868B0F9020050451ED02D6857
:109C7000DEE72D68D5B169680FFA89F90978494599
:109C80001CBF2D68002D11D06968097849451CBF9B
:109C90002D68002D0AD06968097849451CBF2D68D8
:109CA000002D1EBF696809784945E2D105B92568CC
:109CB00055B160681FFA8BF1B0F90000FFF704FEA0
:109CC0002D688346002DF4D12068D8F8041042682E
:109CD000C8F80420002241600168C8F800109C49BF
:109CE000C0F80080204600F039F90446D4F800900E
:109CF000B9F1000F0CD060681FFA8BF1B0F90000C9
:109D0000FFF7E2FDD9F800908346B9F1000FF2D1D8
:109D10001FFA8BF001B0BDE8F08F00002DE9F0478D
:109D2000DFF83082A0FB08831809831E08464FF035
:109D3000000801EBC309C0F80080C0F80490A9F83E
:109D40000280DFF81482A9F8008001F10808494672
:109D500008F1080709F104058F423EBF2F1D09EBEA
:109D6000830C674512D24FF0000C4746C7F800C07D
:109D70004FF0FF3C076008F108087D607F682D1DEB
:109D8000A7F800C047F6FF7CA7F802C0002B4FF0F1
:109D9000000E00F0B38013F0030C09EB830947F6C3
:109DA000FF7722D08EEA0204E40004F078040EF07B
:109DB0000706344308F108068E4244EA04243CBFF7
:109DC0002E1D4E450CD2D0F800A04646C6F800A085
:109DD00008F108080660756076682D1D348077806C
:109DE000BCF1010C0EF1010EDCD15FEA930C00F026
:109DF000858000BF8EEA0204E40004F078040EF0CF
:109E00000706344308F108068E4244EA04243CBFA6
:109E10002E1D4E450CD2D0F800A04646C6F800A034
:109E200008F108080660756076682D1D348077801B
:109E30000EF1010E8EEA0204E40004F078040EF044
:109E40000706344308F108068E4244EA04243CBF66
:109E50002E1D4E450CD2D0F800A04646C6F800A0F4
:109E600008F108080660756076682D1D34807780DB
:109E70000EF1010E8EEA0204E40004F078040EF004
:109E80000706344308F108068E4244EA04243CBF26
:109E90002E1D4E450CD2D0F800A04646C6F800A0B4
:109EA00008F108080660756076682D1D348077809B
:109EB0000EF1010E8EEA0204E40004F078040EF0C4
:109EC0000706344308F108068E4244EA04243CBFE6
:109ED0002E1D4E450CD2D0F800A04646C6F800A074
:109EE00008F108080660756076682D1D348077805B
:109EF000BCF1010C0EF1010E7FF47CAFDFF8549041
:109F00000168A3FB09954FF00108AB080EE000BF04
:109F100082EA0805C8464FEA082909F4E069496859
:109F200045EA0905C5F30D054D8039460F6847B16F
:109F3000984508F10109EBD24968A1F80280C846AA
:109F4000F3E700220249BDE8F04707E09D990408C5
:109F50009F9A0408CDCCCCCC8080FFFF2DE9F64F32
:109F600081B08246012400E064005FEA0A054FF0F8
:109F7000000AD346D04644D00027012C08F101083E
:109F80002E4617DB14F0030104D036687F1C8EB117
:109F9000491EFAD1A0080DD036687F1C56B136682C
:109FA0007F1C3EB136687F1C26B136687F1C0EB11F
:109FB000401EF1D1A14600E08346012F03DAB9F13A
:109FC000010F1CDBDEB17FB1B9F1000F18BF002E0D
:109FD00006D0029A71686868019B9847012803DAE5
:109FE00028462D687F1E03E030463668A9F1010936
:109FF000BBF1000F14BFCBF800008246DCE7350050
:10A00000BAD10020B8F1020FCBF80000ACDA50460C
:10A0100003B0BDE8F08F00002DE9F44FD0F808A0A0
:10A020004668C76804688846DFF8540440EA0809AF
:10A030000FFA89F9002C4DD004FB04F002001CD06B
:10A0400010F00303314606D0B1F800C05B1EC444D3
:10A0500021F802CBF8D182080FD00B88521E43445E
:10A060000B804B8843444B808B8843448B80CB8848
:10A070004344CB8001F10801EFD158B310F0030C39
:10A0800032463B4600F0098032F902EBBCF1010C8C
:10A090001EFB08FE43F804EBF6D1800800F01A809E
:10A0A00032F902CB401E1CFB08FC43F804CB32F90A
:10A0B00002CB1CFB08FC43F804CB32F902CB1CFB9F
:10A0C00008FC43F804CB32F902CB1CFB08FC43F834
:10A0D00004CBE5D1002200230020002C1CBF04FB90
:10A0E00004FCBCF1000F49D01CF0030E394610D01F
:10A0F0000D68AA18914502DA0A30002202E0AB424C
:10A10000B8BF401CAEF1010E091DBEF1000F2B4679
:10A11000EED15FEA9C0C31D0D1F800E00EEB0205E5
:10A12000A94502DA0A30002502E07345B8BF401C99
:10A130004A685319994502DA0A30002302E096452D
:10A14000B8BF401CD1F808E00EEB0305A94502DAC0
:10A150000A30002502E07245B8BF401CCB685A198E
:10A16000914502DA0A30002202E09E45B8BF401C49
:10A17000ACF1010C1031BCF1000FCDD1002100B2C7
:10A18000FFF7A2FB002C01463BD000203A462346B5
:10A190004FF0000E4FEA0E0C0CEB00053AF91CB024
:10A1A00036F915500CF1010CA44515FB0BEE23D22A
:10A1B0000CEB00053AF91CB036F915500CF1010C06
:10A1C000A44515FB0BEE17D20CEB00053AF91CB0B9
:10A1D00036F915500CF1010CA44515FB0BEE0BD212
:10A1E0000CEB00053AF91CB036F915500CF1010CD6
:10A1F000A44515FB0BEECFD320185B1E42F804EBF1
:10A20000C6D100200022002C4FF0000C1CBF04FB24
:10A2100004FEBEF1000F49D01EF003053B4610D0EE
:10A22000D3F800B0DC44E14503DA0A324FF0000C09
:10A2300002E05845B8BF521C6D1E584603F1040396
:10A24000EED15FEA9E0E31D01D68AC44E14503DAE1
:10A250000A324FF0000C02E0A842B8BF521C586806
:10A260008444E14503DA0A324FF0000C02E08542F3
:10A27000B8BF521C9D68AC44E14503DA0A324FF086
:10A28000000C02E0A842B8BF521CD8688444E145E3
:10A2900003DA0A324FF0000C02E08542B8BF521CCC
:10A2A000AEF1010E1033BEF1000FCDD110B2FFF7A9
:10A2B0000BFB0546534632463946204600F084F9EA
:10A2C000002300200022002C1CBF04FB04FCBCF176
:10A2D000000F49D01CF0030E394611D0D1F800B060
:10A2E0005B44994502DA0A32002302E05845B8BFC0
:10A2F000521CAEF1010E091DBEF1000F5846EDD102
:10A300005FEA9C0C00F03080D1F800E0734499457E
:10A3100002DA0A32002302E07045B8BF521C4868D6
:10A32000C318994502DA0A32002302E08645B8BF15
:10A33000521CD1F808E07344994502DA0A3200232E
:10A3400002E07045B8BF521CC868C318994502DACC
:10A350000A32002302E08645B8BF521CACF1010C62
:10A360001031BCF1000FCFD1294610B2FFF7ACFA83
:10A370000546534632463946204600F0DDF90021B5
:10A3800000220020002C1CBF04FB04F3002B45D04E
:10A3900013F0030A00F01280D7F800C06144894529
:10A3A00002DA0A30002102E06245B8BF401CAAF17F
:10A3B000010A3F1DBAF1000F6246EDD19B082DD076
:10A3C000D7F800A05144894502DA0A30002102E0A2
:10A3D0005245B8BF401C7A685118894502DA0A30E4
:10A3E000002102E09245B8BF401CD7F808A05144B4
:10A3F000894502DA0A30002102E05245B8BF401C0C
:10A40000FA685118894502DA0A30002102E09245C3
:10A41000B8BF401C5B1E07F11007D1D1294600B21E
:10A42000FFF752FA002CC8F100011CBF04FB04F234
:10A43000002A1CD012F0030300F00780B6F8008059
:10A440005B1E884426F8028BF8D192080FD033881F
:10A45000CB1833807388CB187380B388CB18B38044
:10A46000F388CB18521EF38006F10806EFD1BDF831
:10A47000001001B000B2BDE8F04FFFF725BA0000B0
:10A4800000F0FFFF2DE9F0430125002402B901226D
:10A49000B8B1641C04FB04F6F60086423FBF641C9E
:10A4A00004FB04F6F60086420BD2641C04FB04F69F
:10A4B000F60086423FBF641C04FB04F6F6008642A9
:10A4C000E7D3491E8908601E89000E1D00FB00F8B5
:10A4D000002806EB480C18BFB8F1000F66D018F042
:10A4E00003076446314616D06A434FEAE23902EB6D
:10A4F00019494FEA2949A2EB094205EB0209A4F8E0
:10A50000009034F8029BA9446D1C7F1E09F0FF09DE
:10A5100021F8029BE8D15FEA980E47D06A43D7132F
:10A5200002EB17473F14A2EB0747EA1924F8022B66
:10A53000AA1802F0FF0221F8022B6A1C07FB02F5A1
:10A54000EF1305EB17473F14A5EB07455719278075
:10A5500034F8027BD719521C554307F0FF0721F846
:10A56000027BEF1305EB17473F14A5EB074557197F
:10A57000278034F8027BD71907F0FF0721F8027B08
:10A58000571C05FB07F2D51302EB15452D14A2EB62
:10A590000542BD18258034F8025B7D1905F0FF05E2
:10A5A00021F8025B7D1CBEF1010EB7D10CEB480116
:10A5B0005E60C3F808C0491E89088900091DD9607A
:10A5C0001860BDE8F083000000B970472DE9FE4F28
:10A5D00081B00021019B009303460024022855D33B
:10A5E000039D009E10F003074FF00008C146AE46E1
:10A5F00094460DD03CF902ABBEF900B07F1E1AFBA9
:10A600000B88BEF902B00EEB400E1AFB0B99F1D18C
:10A61000870831D03CF902ABBEF900B07F1E1AFBAF
:10A620000B88BEF902B00EEB400E1AFB0B9B3CF9F7
:10A6300002ABBEF900901AFB0988BEF902900EEB3E
:10A64000400E1AFB09BB3CF902ABBEF900901AFBA5
:10A650000988BEF902900EEB400E1AFB09BB3CF9CB
:10A6600002ABBEF900901AFB0988BEF902900EEB0E
:10A67000400E1AFB09B9CDD1C6F80080A41CC6F85B
:10A68000049008362D1D671C8742ABD3844246D206
:10A690000026039D10F0030C4FF0000905EB440762
:10A6A00015460BD035F902EBB7F90080761CBCF1EA
:10A6B000010C07EB40071EFB0899F3D1850827D052
:10A6C000DDF808C016EB01060CEB460636F902CBA6
:10A6D000B7F900E007EB40076D1E1CFB0E9C36F936
:10A6E00002EBB7F9008007EB40071EFB08CC36F9F8
:10A6F00002EBB7F9008007EB40071EFB08CC36F9E8
:10A7000002EBB7F9008007EB40071EFB08C9DDD15B
:10A71000019D6618641C844245F82690B8D3009CBD
:10A7200041185B1E02EB400204EB800400947FF4AE
:10A7300054AF04B0BDE8F08F00B970472DE9FE4F6B
:10A7400082B00021029B0090019300230228C0F0F8
:10A750009480049CDDF8045010F003064FF00009CB
:10A76000CC46A646174619D037F902ABBEF9008091
:10A77000BEF902B0761E0EEB400E1AFB08F81AFB6B
:10A780000BFAC8F3830BC8F3461818FB0B99CAF3EE
:10A790008308CAF3461A1AFB08CCE5D1860861D0B3
:10A7A00037F9028BBEF900A0BEF902B00EEB400EE5
:10A7B000761E18FB0AFA18FB0BF8CAF3830BCAF3D0
:10A7C000461A1AFB0B99BEF902B0C8F3830AC8F304
:10A7D000461818FB0ACC37F9028BBEF900A00EEB25
:10A7E000400E18FB0AFA18FB0BF8CAF3830BCAF3E6
:10A7F000461A1AFB0B99BEF902B0C8F3830AC8F3D4
:10A80000461818FB0ACC37F9028BBEF900A00EEBF4
:10A81000400E18FB0AFA18FB0BF8CAF3830BCAF3B5
:10A82000461A1AFB0B99BEF902B0C8F3830AC8F3A3
:10A83000461818FB0ACC37F9028BBEF900A00EEBC4
:10A84000400E18FB0AFA18FB0BF8CAF3830BCAF385
:10A85000461A1AFB0B99C8F3830AC8F3461818FB6B
:10A860000ACC9DD1C5F800909B1CC5F804C00835E2
:10A87000241D5E1C8642FFF46FAF834263D2002525
:10A88000049C10F003074FF0000C04EB4306144641
:10A8900000F0118034F902EBB6F900806D1C7F1EC8
:10A8A00006EB40061EFB08FECEF38308CEF3461EE1
:10A8B0001EFB08CCEED184083ED0039F15EB0105AA
:10A8C00007EB450535F9027BB6F900E006EB4006DB
:10A8D000641E17FB0EF8C8F38307C8F3461E1EFB61
:10A8E00007C735F902CBB6F900E006EB40061CFBC2
:10A8F0000EFCCCF3830ECCF3461C1CFB0E7735F913
:10A9000002CBB6F900E006EB40061CFB0EFCCCF3D4
:10A91000830ECCF3461C1CFB0E7735F902CBB6F93F
:10A9200000E006EB40061CFB0EFCCCF3830ECCF3E0
:10A93000461C1CFB0E7CC5D1029C5D185B1C83422F
:10A9400044F825C09BD3019B411802EB400203EB66
:10A9500080030193009B5B1E00937FF4F6AE05B06D
:10A96000BDE8F08F2DE9FC4F89B0002701AC0197BD
:10A9700067600B46A7600025E76000262761BB469D
:10A980006761BA46A761B846E7611A78B946002AF6
:10A9900000F0B18093F800C00022BCF1000F00F07D
:10A9A000A080BCF12C0F00F09B80ACF130020A2A91
:10A9B000C0F08580BCF12B0F18BFBCF12D0F00F04B
:10A9C00084807F1CBCF12E0F40F07C80052219E0B2
:10A9D000ACF130020A2A0BF1010B6CD3BCF12E0F43
:10A9E0006BD105220EE000BF13F801CFBCF1000FC0
:10A9F00077D0BCF12C0F73D0BCF12E0F52D10522B1
:10AA00000AF1010A13F801CFBCF1000F69D0BCF1C3
:10AA10002C0F65D0BCF1450F38D113F801CF0322BC
:10AA200008F10108BCF1000F5BD0BCF12C0F57D02E
:10AA3000BCF12B0F24D113F801CF0622761CBCF1F8
:10AA4000000F4ED0BCF12C0F4AD0ACF130020A2AD4
:10AA500009F1010912D3012242E000BF13F801CF2E
:10AA6000BCF1000F3DD0BCF12C0F39D0ACF1300C53
:10AA7000BCF10A0FF2D301226D1C31E00722EDE791
:10AA8000BCF12D0FD7D00122761C29E0BCF1650F57
:10AA9000C3D0ACF1300CBCF10A0FB3D3012208F1E2
:10AAA00001081DE0ACF1300CBCF10A0F9CD301226F
:10AAB0000AF1010A14E0042296E7012210E00422C0
:10AAC0007F1C91E701226D1C0AE013F801CF0222DE
:10AAD0007F1CBCF1000F04D0BCF12C0F7FF478AFC9
:10AAE0005B1C54F822C00CF1010C44F822C01A7807
:10AAF000002A7FF44FAF0B4608440090DDF800C0F9
:10AB0000BDF9500063450FD293F800C0BCF12C0F83
:10AB100005D0BDF824E08EEA0C0C83F800C0DDF807
:10AB200000C003446345EFD30B461A78B2F1000F1F
:10AB300000F0B18093F800C00022BCF1000F00F0DB
:10AB4000A080BCF12C0F00F09B80ACF130020A2AEF
:10AB5000C0F08580BCF12B0F18BFBCF12D0F00F0A9
:10AB600084807F1CBCF12E0F40F07C80052219E010
:10AB7000ACF130020A2A0BF1010B6CD3BCF12E0FA1
:10AB80006BD105220EE000BF13F801CFBCF1000F1E
:10AB900077D0BCF12C0F73D0BCF12E0F52D105220F
:10ABA0000AF1010A13F801CFBCF1000F69D0BCF122
:10ABB0002C0F65D0BCF1450F38D113F801CF03221B
:10ABC00008F10108BCF1000F5BD0BCF12C0F57D08D
:10ABD000BCF12B0F24D113F801CF0622761CBCF157
:10ABE000000F4ED0BCF12C0F4AD0ACF130020A2A33
:10ABF00009F1010912D3012242E000BF13F801CF8D
:10AC0000BCF1000F3DD0BCF12C0F39D0ACF1300CB1
:10AC1000BCF10A0FF2D301226D1C31E00722EDE7EF
:10AC2000BCF12D0FD7D00122761C29E0BCF1650FB5
:10AC3000C3D0ACF1300CBCF10A0FB3D3012208F140
:10AC400001081DE0ACF1300CBCF10A0F9CD30122CD
:10AC50000AF1010A14E0042296E7012210E004221E
:10AC60007F1C91E701226D1C0AE013F801CF02223C
:10AC70007F1CBCF1000F04D0BCF12C0F7FF478AF27
:10AC80005B1C54F822C00CF1010C44F822C01A7865
:10AC9000002A7FF44FAF0246009881420AD208781A
:10ACA0002C2803D0BDF82830584008700098114473
:10ACB0008142F4D315990198FEF73BFD01463846D1
:10ACC000FEF737FD01466068FEF733FD0146284672
:10ACD000FEF72FFD0146A068FEF72BFD0146584602
:10ACE000FEF727FD0146E068FEF723FD01463046EA
:10ACF000FEF71FFD01462069FEF71BFD0146504689
:10AD0000FEF717FD01466069FEF713FD0146404658
:10AD1000FEF70FFD0146A069FEF70BFD0146484610
:10AD2000FEF707FD0146E069FEF703FD014600203E
:10AD3000FEF7FFFC0BB0BDE8F08F00002DE9F047F7
:10AD4000002300250024401EDFF8CC9005E000BF62
:10AD5000C1F3C104042559F82440EF187F1C874231
:10AD60004ED25DB3D71815F003064FF0000CBE4667
:10AD7000A04607D018F801AB761E0CF1010C0EF8B6
:10AD800001ABF7D1AE0813D018F801AB761E0CF169
:10AD9000040C0EF801AB18F801AB0EF801AB18F873
:10ADA00001AB0EF801AB18F801AB0EF801ABEBD11B
:10ADB0004FF02C0E07F80CE06F1CFB18491C01F03B
:10ADC0000707072FC9D8DFE807F005050506060DB8
:10ADD0000D14C2E7BCE7C1F3C10509EB85040825E2
:10ADE0002469BAE7C1F3C10509EB85040825246A83
:10ADF000B3E7C1F3C10509EB85040825246BACE773
:10AE0000401C834205D2C11AD018BDE8F04703F0B8
:10AE10009DB8BDE8F0870000180100200EB400B511
:10AE200082B003A9009102466B4601210348784491
:10AE30000A3001F0BDFF06BC5DF810FBA93B000025
:10AE40000248016821F002010160704710E000E053
:10AE50001B4213D1094236D12AB18446B0FBF2F02D
:10AE600002FB10C2704703F075B8FCD30022002328
:10AE700070470B000200002100207047904271EBE8
:10AE8000030CF6D370B5B1FA81F4B3FA83F52C1B39
:10AE9000A340C4F1200532FA05F63343A2405FF027
:10AEA0000046E64002E05B085FEA3202841A71EB7A
:10AEB000030524BF204629467641F4D302000B0047
:10AEC0003000002170BD012ACFD970B5140C20D0FC
:10AED000B1FA81F4B2FA82F5C4F120046419B4F134
:10AEE0002006D6D3B2405FF00044F440002502E0D3
:10AEF00052085FEA3303C61A71EB020E24BF3046D4
:10AF0000714664416D41F3D302000B00200029001B
:10AF100070BD0C46B1FBF2F102FB11452D0445EA70
:10AF20001045B5FBF2F402FB145580B240EA05452A
:10AF3000B5FBF2F002FB105240EA044070BD000085
:10AF4000F0B581B00446DFF88050A86800F0070033
:10AF500006281FBFA86800F03F00A04201202BD1A7
:10AF6000A86840F2E937800944EA8010A860FAF73F
:10AF70004FFB06462868800407D4FAF749FB801B7C
:10AF8000B842F7D3032001B0F0BD1E2C18BF2E2C01
:10AF900003D01D2C18BF2D2C0DD1FAF739FB064616
:10AFA000A868C00307D4FAF733FB801BB842F7D375
:10AFB000032001B0F0BD002001B0F0BDDFF80C00AF
:10AFC000006800F03F007047044802580C480258DF
:10AFD00007484FF00051016005214162A0218162C4
:10AFE0000221C162016353214163F8F757B800BFE2
:10AFF0005028002030B5040081B008BF012070D077
:10B0000094F8A10020B984F8A000204600F028F9A7
:10B01000022084F8A1002068816921F070418161DB
:10B02000206881696268A3681A43E3681A43236948
:10B030001A43114381612168DFF81C028A680240CB
:10B040008A6021688A68A569636945EA03431A43EF
:10B050008A602168CA680240CA602168CA68256A95
:10B06000E36945EA03431A43CA6021680A6902405A
:10B070000A6121680A69A56A636A45EA03431A43BB
:10B080000A6121684A691040486120684169236B60
:10B09000E26A43EA024211434161226894F83500B2
:10B0A00094F83610D36A03F07F43D3622268090410
:10B0B00041EA0020D36A94F8341008431843D06260
:10B0C0002068416B41F0060141632068816941F0CD
:10B0D000010181610020C4F8A400012084F8A100CE
:10B0E000002001B030BD10B5044602F034FF00204E
:10B0F000C4F8A40084F8A10084F8A00010BD2DE9D4
:10B10000F041044694F8A000012808BF02201DD099
:10B11000012084F8A000022084F8A10034205043CC
:10B12000B1E8E85120443830A0E8E851B1E8E850EF
:10B13000A0E8E8503439204600F00DF821680120DD
:10B14000486284F8A100002084F8A000BDE8F081E6
:10B1500090F8A100704730B400684B68C46800EBF9
:10B16000C212C4F30B44E3188432546804F47044EC
:10B1700054600C68C568C5F30B452C19641C44EA7F
:10B1800003435360CB68C468C4F30A04E3189468AB
:10B1900004F4704494608C68C068C0F30A0000191D
:10B1A000401C40EA034090601069C008C000106174
:10B1B0000869106191F8310091F832308C69956915
:10B1C0000025956191F8305045EA002040EA03409F
:10B1D000224B40EA046090615069000A000250610D
:10B1E00048695061D0691840D061C8690B6A18433A
:10B1F000D061906A00209062486A9062086908B93C
:10B2000004200EE0012808BF03200AD0042818BF3C
:10B21000022803D0032818BF072801D1022000E02C
:10B220000120D36A03F0E023D3628B6A4C680D6877
:10B230004343641B6043C01D40EA0340D062106B6F
:10B24000C00AC0021063C86A1063106840F00100B1
:10B25000106030BC7047000000F800F0F8F8FFFF05
:10B260007047000010B5040001D1012010BD94F812
:10B270003D0020B984F83C00204602F06DFE3A49BA
:10B28000022084F83D002068884218BFB0F1804F4A
:10B2900002680BD0354B98421CBF354B984205D005
:10B2A000344B98421CBF344B984210D1A36822F013
:10B2B00070021A43884218BFB0F1804F14D02B4B54
:10B2C00098421FBF2A4B98422A4B98420CD02A4BD7
:10B2D00098421CBF294B984206D0294B98421CBF6C
:10B2E000DFF8A030984203D1236922F440721A4358
:10B2F000A36922F080021A4388420260E268C262B7
:10B3000062681CBF1C498842826208D01B4988427F
:10B310001FBF1B498842DFF86C10884201D1616968
:10B32000016301214161002084F83D1010BD10B57A
:10B330000446022084F83D00206841F21112016A9F
:10B34000114202BF016A40F24442114203D1016836
:10B35000490849000160204602F0FFFD002084F802
:10B360003D0084F83C0010BD000001400004004096
:10B3700000080040000C0040000401400040014073
:10B3800000440140004801402DE9F04F81B0D1F860
:10B3900000C000224FF0B043DFF82483DFF824938D
:10B3A000BCF1000FDFF820A34FF00F0B00F0D480AA
:10B3B000D1F800E04FF0010C0CFA02FC1CEA0E0E72
:10B3C00000F0C3804C68022C18BF122C0ED1D40898
:10B3D000950000EB840405F01C050BFA05F7266ABE
:10B3E000BE430F6907FA05F53543256206680F79F4
:10B3F00054000325A540ED432E4007F00307A74066
:10B400003E4306604E68012E18BF022E03D0112E57
:10B4100018BF122E10D18668CF682E40A7403E4339
:10B420008660466826EA0C0C4E68C6F30016964005
:10B4300046EA0C0CC0F804C0D0F80CC005EA0C0CAD
:10B440008D6805FA04F444EA0C0CC0F80CC0D1F87D
:10B4500004C05FEACC0C78D5DAF800C0950040450E
:10B460004CF0020CCAF800C0DAF800C00CF002047C
:10B470000094DDF800C005F00C040BFA04F54FEA67
:10B48000920C59F82C6026EA050508BF00262CD03E
:10B490008E4EB04208BF012627D08D4EB04208BF65
:10B4A000022622D08B4EB04208BF03261DD08A4E02
:10B4B000B04208BF042618D0884EB04208BF052607
:10B4C00013D0874EB04208BF06260ED0854EB0423C
:10B4D00008BF072609D0844EB04208BF082604D012
:10B4E000824EB0420CBF09260A2606FA04F42C4309
:10B4F00049F82C40D3F880404D686FEA0E0C0CEAF6
:10B500000404ED0348BF4EEA0404C3F88040D3F8B6
:10B5100084404D680CEA0404AD0348BF4EEA0404BD
:10B52000C3F884401C684D680CEA0404ED0248BF6F
:10B530004EEA04041C605C680CEA040C4C68A4022B
:10B5400048BF4EEA0C0CC3F804C0D1F800C0521C2E
:10B550003CFA02FC7FF42CAF01B0BDE8F08F002272
:10B5600000292DE9F04F4FF0B043DFF854814FF040
:10B570000F09DFF850B100F095800127974017EAD6
:10B58000010C00F08A804FEA920ED4005BF82EA0E6
:10B5900004F01804404509FA04F505EA0A0A08BF50
:10B5A00000262CD0494EB04208BF012627D0484E75
:10B5B000B04208BF022622D0464EB04208BF032642
:10B5C0001DD0454EB04208BF042618D0434EB042AD
:10B5D00008BF052613D0424EB04208BF06260ED043
:10B5E000404EB04208BF072609D03F4EB04208BFC8
:10B5F000082604D03D4EB0420CBF09260A2606FAA2
:10B6000004F4A2451ED15BF82E406FEA0C0CAC434B
:10B610004BF82E40D3F880E00CEA0E0EC3F880E021
:10B62000D3F884E00CEA0E0EC3F884E0D3F800E00F
:10B630000CEA0E0EC3F800E0D3F804E00CEA0E0C9E
:10B64000C3F804C04FF0030C4FEA420E0CFA0EFC94
:10B65000D0F800E0950005F01C0509FA05F54CEA64
:10B660000E0E6FEA0C0CC0F800E04FEAD20E00EBB1
:10B670008E0EDEF82040AC43CEF82040D0F808E033
:10B680000CEA0E0EC0F808E0D0F804E02EEA070736
:10B690004760C7680CEA0707C760521C31FA02F717
:10B6A0007FF46BAFBDE8F08F00690840401E804119
:10B6B000C043C00F704702B90904816170470000A0
:10B6C0000000025808040058F444025800040258CC
:10B6D00000080258000C02580010025800140258CA
:10B6E00000180258001C025800200258002402587A
:10B6F00000B581B0006881694908490081614FF453
:10B7000070410948FFF72BFF4FF6FF710748FFF71D
:10B7100026FFFF210648FFF722FF0648016821F0B7
:10B720000801016001B000BD002002580024025849
:10B7300000280258E444025810B5C820B44CFDF764
:10B74000B7FB207818B9FDF70AFA0120207010BD68
:10B75000704730B5044681B00020AD4D8DF8000033
:10B76000287818B9FDF7FBF901202870A821E0B26C
:10B77000FDF700FB8DF800009DF80000512811D066
:10B78000A821E0B2FDF7F6FA8DF800009DF8000060
:10B79000512807D0A821E0B2FDF7ECFA8DF800009F
:10B7A0009DF800009DF8000001B030BD0022A421EA
:10B7B000C0B2FDF750BA00B581B000218DF800107D
:10B7C0000221C0B2FDF7D6FA8DF800009DF8000006
:10B7D00000F00F008DF800009DF800000628A4BFBF
:10B7E00000208DF800009DF800108948417000216C
:10B7F00081709DF8000001B000BD00002DE9F04708
:10B80000804682B00020824E8DF80000B0787378B8
:10B81000894600210027002400259246984271D2D3
:10B82000092837D8DFE800F0050A0F14191E23286D
:10B830002D3204210327062405252BE00A210927A0
:10B840000C240B2526E010210F271224112521E0BE
:10B8500016211527182417251CE01C211B271E2440
:10B860001D2517E0222121272424232512E0282149
:10B8700027272A2429250DE02E212D2730242F25A6
:10B8800008E0342133273624352503E03A213927CF
:10B890003C243B255FFA88F0FDF76CFA8DF8000038
:10B8A0009DF800003946B0805FFA88F0FDF762FA33
:10B8B0008DF80000B0889DF80010090201F4706155
:10B8C00008432146B080A9F800005FFA88F0FDF730
:10B8D00051FA8DF800009DF800002946B0805FFA0B
:10B8E00088F0FDF747FA8DF80000B0889DF8001049
:10B8F000090201F470610843B080AAF80000B07832
:10B90000401CB07002B0BDE8F0870122A421C0B293
:10B91000FDF7A1B90022A421C0B2FDF79CB9002017
:10B920007047704710B50C4682B00021C0B28DF848
:10B9300000100121FDF71EFA8DF800009DF80000AF
:10B94000206002B010BD00002DE9F0410546904690
:10B9500082B000208DF800002D4A52780026002782
:10B960001C46914250D209292DD8DFE801F0050983
:10B970000D1115191D21252903200726082722E06E
:10B9800009200D260E271EE00F20132614271AE08B
:10B99000152019261A2716E01B201F26202712E043
:10B9A0002120252626270EE027202B262C270AE0FB
:10B9B0002D203126322706E033203726382702E0B3
:10B9C00039203D263E270146E8B2FDF7D3F98DF830
:10B9D00000009DF800000899800908603146E8B22F
:10B9E000FDF7C8F98DF800009DF800003946C8F849
:10B9F0000000E8B2FDF7BEF98DF800009DF80000E8
:10BA0000000900F00400206002B0BDE8F0810000F1
:10BA1000742B002070B50446F9F7FAFD05460CB901
:10BA2000012070BD94F84000012801D1022070BDB2
:10BA3000012084F8400094F8410038B984F84000AF
:10BA4000204600F037FC41F28830A064206801688D
:10BA5000A26821F47061521E41EA02210160A66CC5
:10BA600021688868800615D516F1010FF8D0F9F71E
:10BA7000CFFD401B864201D3002EF1D104200021CE
:10BA800084F84100606C40F001006064012084F89B
:10BA9000401070BD0A68DFF8583400201A4063680F
:10BAA00042EA0362E3681A43E3691A43236A1A43CA
:10BAB000DFF840340A6021684A681A40236942EA84
:10BAC000034263691A43A3691A434A6021680A68FA
:10BAD00042F001020A600121606484F841100021F3
:10BAE00084F8401070BD10B5040001D1012010BDD4
:10BAF00094F84000012801D1022010BD012084F8F3
:10BB0000400020680168490849000160204602F0B1
:10BB100025FA0020606484F8410084F8400010BDDC
:10BB20002DE9F04104460D461646F9F771FD8046B1
:10BB300094F84000012808BF022000F0E1800120B5
:10BB400084F8400094F84100012840F0D48000209F
:10BB50006064022084F841002068816889060CD561
:10BB600016F1010FF8D0F9F753FDA0EB080086425B
:10BB7000C0F0B280002EEFD1AEE0696A002711B1AB
:10BB8000A96A491E0161A9692A6A00294ED0206864
:10BB90004AB3A968C161E86A296BD5F81CC0AB69D2
:10BBA0000843696B0843696A0843696940EA814050
:10BBB00029690843296ABCF1000F41EA00022068A4
:10BBC00029680CD0D5F80CE04EEA02024CEA0202D9
:10BBD0001A43114341612168686888616BE01A4328
:10BBE0001143416167E0EB6AD5F830C06A6A4CEAFC
:10BBF0000303D5F834C04CEA03031A436B6942EAE5
:10BC0000834CEB692A6863B1D5F80CE04EEA0C0C62
:10BC100043EA0C0319431143416121686868886154
:10BC200049E041EA0C011143416144E012B321684B
:10BC3000A868C861E86A296BEA6923680843696BE8
:10BC40000843696A0843696940EA814029690843F1
:10BC5000296A0843A96952B1D5F80CC04CEA000022
:10BC600010430843586121686868886123E00843ED
:10BC7000586120E0EB696A6A8BB1E86A296B084376
:10BC8000696B08431043696940EA8140E9680843E9
:10BC90002168184348612168686888610BE062B1D7
:10BCA000E86A296B0843696B08431043696940EAF5
:10BCB000814021684861686AC8B92068816889073D
:10BCC00013D416F1010FF8D0F9F7A2FCA0EB08008D
:10BCD000864201D3002EF0D10420012784F84100D0
:10BCE000606C40F00100606406E00221C160012048
:10BCF00084F8410000E00227002084F84000384624
:10BD0000BDE8F0812DE9F04381B004468846154630
:10BD1000F9F77EFC07460026206894F840100129B8
:10BD200000F1200908BF022060D0012184F84010F2
:10BD300094F84110012954D1B8F1000F66644AD03B
:10BD4000122184F841100169491CE1620169491C12
:10BD5000A162C4F82480416921F04061416109E099
:10BD6000606A007889F80000606A401C6062E06ADE
:10BD7000401EE062E06A70B1206880684007EFD43E
:10BD800015F1010FF8D0F9F743FCC01B854210D321
:10BD9000002DF1D10DE020688168890715D415F1D7
:10BDA000010FF8D0F9F734FCC01B854201D3002DF8
:10BDB000F1D10420012684F84100606C40F00100BC
:10BDC0006064012084F841000CE00221C160012080
:10BDD00084F8410006E0606C012640F008006064D1
:10BDE00000E00226002084F84000304601B0BDE8A3
:10BDF000F08300002DE9F04381B0044688461646E2
:10BE0000F9F706FC074620680025816994F8402070
:10BE100000F12009012A08BF022066D0012284F81F
:10BE2000402094F84120012A5AD1B8F1000F6564EE
:10BE300050D0222284F841200269521CA263026978
:10BE4000521C6263C4F83080426922F0406242F0C2
:10BE500080624261206881610AE000BF99F80000B9
:10BE6000216B0870206B401C2063A06B401EA063F8
:10BE7000A06B78B12068806810F0060FEED116F143
:10BE8000010FF7D0F9F7C4FBC01B864210D3002E78
:10BE9000F0D10DE020688168890715D416F1010FF3
:10BEA000F8D0F9F7B5FBC01B864201D3002EF1D1C3
:10BEB0000420012584F84100606C40F001006064BA
:10BEC000012084F841000CE00221C160012084F8C7
:10BED000410006E0606C012540F00800606400E06D
:10BEE0000225002084F84000284601B0BDE8F08318
:10BEF0002FFFFF00FEF8E0FF2DE9F04381B004467C
:10BF00000D4617469846F9F783FB814694F84000A2
:10BF1000012808BF022000F0F980012084F84000C9
:10BF200094F84100012840F0EC8000206064422039
:10BF300084F841002068816889060DD518F1010F49
:10BF4000F8D0F9F765FBA0EB09008045C0F0CA8086
:10BF5000B8F1000FEED1C5E0396800268162216892
:10BF6000786848622168B868C862206801683A69E0
:10BF700021F44001114341F480010160F868696ACD
:10BF8000A86211B12168401E0861A9692A6A0029C6
:10BF90004BD020686AB3A968C161E86A296BD5F8FB
:10BFA0001CC0AB690843696B0843696A0843696947
:10BFB00040EA814029690843296ABCF1000F41EA3F
:10BFC0000002206829680ED0D5F80CE04EEA020283
:10BFD0004CEA02021A43114341F0006141612168B9
:10BFE000686888616EE01A43114341F00061416165
:10BFF00068E0EB6AD5F830C06A6A4CEA0303D5F80A
:10C0000034C04CEA03031A436B6942EA834CEB6980
:10C010002A683BB1D5F80CE04EEA0C0C43EA0C035D
:10C0200019431DE041EA0C0122E032B32168A868FF
:10C03000C861E86A296BEB69AA690843696B084320
:10C04000696A0843696940EA814029690843296AA5
:10C050000143206863B1D5F80CC04CEA01011943D3
:10C06000114341F00061416121686868886129E0FD
:10C07000114341F00061416124E0EB696A6A9BB1C0
:10C08000E86A296B0843696B08431043696940EA11
:10C090008140E96808431843216840F00060486126
:10C0A0002168686888610DE062B1E86A296B08431D
:10C0B000696B08431043696940EA8140216840F098
:10C0C0000060486120688168090714D418F1010FE5
:10C0D000F8D0F9F79DFAA0EB0900804502D3B8F13A
:10C0E000000FEFD10420012684F84100606C40F07D
:10C0F0000100606406E00821C160012084F841006D
:10C1000000E00226002084F84000304601B0BDE87F
:10C11000F0832DE9F04104460D461646F9F778FA0A
:10C12000074694F84000012808BF022000F0C080B4
:10C13000012084F8400094F84100012840F0B480C8
:10C1400000206064822084F84100D4F8488021688F
:10C150008868800613D518F1010FF8D0F9F758FA5E
:10C16000C01B804502D3B8F1000FF0D1042084F841
:10C170004100606C40F001006064012095E00A68B5
:10C180007368002022F008021A430A6071680829C7
:10C190000AD122683168116322681021D1602168B8
:10C1A0000A6842F480120A60AA692B6ADAB321682D
:10C1B0001BB3AA68CA61E96A2A6BEE69AB692F688A
:10C1C00011436A6B11436A6A11436A6941EA824109
:10C1D0002A6911432A6A0A43216846B1ED682A4355
:10C1E00032431A433A4342F040624A615DE01A43E7
:10C1F0003A4342F040624A6157E0EE6A2F6B6B6A45
:10C200003E436F6B3E432F6833436E6943EA864378
:10C21000EE6916B1ED682B4333431A433A4342F0BB
:10C2200040624A6141E0E3B12268A968D161E96AEC
:10C230002A6BEB69266811436A6B11436A6A1143E2
:10C240006A6941EA82412A6911432A6A1143AA694B
:10C2500013B1ED6829431943114341F04061716105
:10C2600023E0EE696B6A86B1E96A2A6B11436A6B57
:10C27000114319436A6941EA8241EA681143314333
:10C28000226841F0406151610FE073B1E96A2A6BA5
:10C2900011436A6B114319436A6941EA824122687A
:10C2A00041F04061516100E00220002184F840101B
:10C2B000BDE8F0817047000010B5040001D10120F5
:10C2C00010BD94F8410020B984F84000204600F0E9
:10C2D00040FC242084F84100206801684908490096
:10C2E00001606068216820F07060086120688168E2
:10C2F00021F400418160E06821680128A0680CBF3A
:10C3000040F4004040F404408860E068022803D113
:10C3100021684FF4006048602068416841F0007176
:10C3200041F4004141602068C16821F40041C160CE
:10C33000206961690843A16940EA01202168C86059
:10C34000E069216A0843216808602068016841F0BB
:10C350000101016000206064202084F84100002079
:10C36000206384F8420010BD10B5040001D1012003
:10C3700010BD242084F84100206801684908490064
:10C380000160204601F0EBFD0020606484F841006C
:10C39000206384F8420084F8400010BD2DE9F04786
:10C3A00005460F4695F8410091469846202840F0F2
:10C3B000E381DDF820A0BAF1000F02D0099C200033
:10C3C00005D14FF4007068640120BDE8F08795F84E
:10C3D0004000012800F0D081012085F84000F9F7E5
:10C3E00017F9064628688169090405D5F9F710F997
:10C3F000801B1A28F6D344E12121DFF83C2785F879
:10C400004110402185F8421000216964C5F824A03C
:10C410006C85C7F3090469634168114021435FFAE1
:10C4200088F241EA024141F0014141F4005141608A
:10C430000A9F29688869800745D48869C00637D56E
:10C4400028688169890616D417F1010FF8D0F9F729
:10C45000DFF8801B874201D3002FF1D1686C40F0D8
:10C4600020006864202085F84100002085F8420003
:10C4700085F840000FE11021C16129682020C861C2
:10C4800028688169890744BF002181622868816921
:10C49000C90703D4816941F0010181612868DFF88F
:10C4A0009C26416811404160686C40F00400D8E768
:10C4B00017F1010FBDD0F9F7ABF8801B8742CDD340
:10C4C000002FB6D1CAE7B8F1010F40D04FEA1920CA
:10C4D000886228688169890739D48069C0062BD5AC
:10C4E0002868816989060AD417F1010FF8D0F9F795
:10C4F0008FF8801B8742B1D3002FF1D1AEE7102116
:10C50000C16129682020C86128688169890744BF02
:10C510000021816228688169C90703D4816941F0DB
:10C52000010181612868DFF81426416811404160EB
:10C53000686C40F0040094E717F1010FC9D0F9F7D7
:10C5400067F8801B874289D3002FC2D186E728680D
:10C550005FFA89F9C0F828902868816909060BD428
:10C5600017F1010FF8D0F9F753F8801B8742FFF459
:10C5700075AF002FF0D171E7698DDFF8C495FF2901
:10C5800009D9FF21DFF8BC252985416809EA0101A5
:10C59000214311430AE0698D29854268C9B209EA3D
:10C5A0000202224342EA014141F0007141602868E1
:10C5B0008169890747D48069C00639D528688169AF
:10C5C000890618D417F1010FF8D0F9F721F8801B6C
:10C5D000874201D3002FF1D1686C40F020006864DD
:10C5E000202085F84100002085F8420085F84000B1
:10C5F0000120BDE8F0871021C16129682020C861B1
:10C6000028688169890744BF00218162286881699F
:10C61000C90703D4816941F0010181612868DFF80D
:10C620001C25416811404160686C40F00400D6E769
:10C6300017F1010FBBD0F8F7EBFF801B8742CBD37C
:10C64000002FB4D1C8E7696A09788162686A401C22
:10C650006862688D401E6885288D401E2885698D1A
:10C66000B9B380B2A8BB28688169090618D417F14C
:10C67000010FF8D0F8F7CCFF801B874201D3002FC1
:10C68000F1D1686C40F020006864202085F84100FA
:10C69000002085F8420085F840000120BDE8F087C1
:10C6A000698DFF2909D9FF21DFF898242985416880
:10C6B00009EA0101214311430AE0698D2985426895
:10C6C000C9B209EA0202224342EA014141F0007183
:10C6D0004160688D00287FF46AAF28688169890607
:10C6E00038D48069C0062CD52868816989060BD4A6
:10C6F00017F1010FF8D0F8F78BFF801B8742FFF48A
:10C700006BAF002FF0D167E71021C16129682020AD
:10C71000C86128688169890744BF0021816228684F
:10C720008169C90703D4816941F0010181612868E9
:10C73000DFF80824416811404160686C40F0040053
:10C740004DE7F8F765FF801B8742FFF445AF002FE8
:10C75000C3D141E72021DFF8E423C16128684168A3
:10C7600011404160202085F84100002085F84200FA
:10C7700085F84000BDE8F0870220BDE8F0872DE98C
:10C78000F0470546894695F841009246984620288C
:10C7900040F0CE81089E16B1099C200005D14FF4CF
:10C7A000007068640120BDE8F08795F8400001281A
:10C7B00000F0BE81012085F84000F8F729FF074608
:10C7C00028688169090413D5F8F722FFC01B1A28CD
:10C7D000F6D3686C40F020006864202085F84100A2
:10C7E000002085F8420085F840000120BDE8F08770
:10C7F00022215FFA88F285F84110402185F8421025
:10C80000002169646E626C85C9F30904696341683B
:10C81000DFF8249309EA0101214341EA024141F092
:10C82000004141F4005141600A9E296888698007EF
:10C8300049D48869C0063BD52868816989061AD41D
:10C8400016F1010FF8D0F8F7E3FEC01B864201D3C2
:10C85000002EF1D1686C40F020006864202085F83B
:10C860004100002085F8420085F8400085F840002E
:10C870000120BDE8F0871021C16129682020C8612E
:10C8800028688169890744BF00218162286881691D
:10C89000C90703D4816941F0010181612868DFF88B
:10C8A0009C22416811404160686C40F00400D4E76C
:10C8B00016F1010FB9D0F8F7ABFEC01B8642C9D301
:10C8C000002EB2D1C6E7B8F1010F40D04FEA1A20CE
:10C8D000886228688169890739D48069C0062BD5A8
:10C8E0002868816989060AD416F1010FF8D0F8F793
:10C8F0008FFEC01B8642ADD3002EF1D1AAE71021D6
:10C90000C16129682020C86128688169890744BFFE
:10C910000021816228688169C90703D4816941F0D7
:10C92000010181612868DFF81422416811404160EB
:10C93000686C40F0040090E716F1010FC9D0F8F7D9
:10C9400067FEC01B864285D3002EC2D182E72868CD
:10C950005FFA8AFAC0F828A02868816949060BD4D2
:10C9600016F1010FF8D0F8F753FEC01B8642FFF412
:10C9700071AF002EF0D16DE7698DFF2909D9FF2134
:10C98000DFF8C4212985416809EA010121431143E7
:10C990000CE0698D29854268C9B209EA0202224386
:10C9A00042EA014141F0024141F4105141602868DE
:10C9B0008169490718D416F1010FF8D0F8F728FE5D
:10C9C000C01B864201D3002EF1D1686C40F02000DC
:10C9D0006864202085F84100002085F8420085F831
:10C9E00040000120BDE8F087406A696A0870686A03
:10C9F000401C6862288D401E2885698D491E698506
:10CA0000698DB9B380B2A8BB28688169090618D4BA
:10CA100016F1010FF8D0F8F7FBFDC01B864201D3D9
:10CA2000002EF1D1686C40F020006864202085F869
:10CA30004100002085F8420085F840000120BDE853
:10CA4000F0876A8DDFF8F810FF2A08D9FF222A85BF
:10CA5000426811402143DFF8EC20114309E06A8D60
:10CA60002A854368D2B21940214341EA024141F08C
:10CA700000714160688D002899D128688169890614
:10CA800044D48069C00639D528688169890618D4DC
:10CA900016F1010FF8D0F8F7BBFDC01B864201D399
:10CAA000002EF1D1686C40F020006864202085F8E9
:10CAB0004100002085F8420085F840000120BDE8D3
:10CAC000F0871021C16129682020C8612868816928
:10CAD000890744BF0021816228688169C90703D49E
:10CAE000816941F0010181612868DFF850204168C7
:10CAF00011404160686C40F00400D6E7F8F788FD0B
:10CB0000C01B8642CED3002EB7D1CBE72021DFF861
:10CB10002C20C1612868416811404160202085F8BF
:10CB20004100002085F8420085F84000BDE8F0870C
:10CB30000220BDE8F0870000009800FC00E800FE3D
:10CB4000009C00FC0000FF010024FF8190F84100E0
:10CB50007047704730B5040081B00D4608BF012012
:10CB60001CD094F82C0020B984F82D00204600F049
:10CB70005DF80220211D84F82C00206801F0F0F9F6
:10CB800062682068294601F021FA0548016841F0F1
:10CB900000410160012084F82C00002001B030BD6C
:10CBA0000040005210B5044601F082FA6168206826
:10CBB00001F054FA002084F82C0084F82D0010BDF8
:10CBC00030B581B0044694F82C000D46022814D0EC
:10CBD000012818BF05280FD1022084F82C002068F6
:10CBE00001F04BFA286802280CBF0520012084F8C8
:10CBF0002C00002001B030BD012001B030BD10B5C7
:10CC0000044694F82C0002280FD094F82C00012838
:10CC10000AD1022084F82C00206801F041FA01209A
:10CC200084F82C00002010BD012010BD70470000CA
:10CC300000B581B07A20F9F74FFA04480449016041
:10CC400001B05DF804EB00F036B800BF7829002091
:10CC50004000005230B581B00446F8F7D9FC0546D3
:10CC6000C4B1002084F83C00022084F83D00206814
:10CC7000C16849084900C1602068C068C0070CD578
:10CC8000F8F7C6FC401B0628F6D34020A066032018
:10CC900084F83D00012001B030BD204600F03DF891
:10CCA0000020E06520666066A066012084F83D00F3
:10CCB000002001B030BD30B190F83D10022904D100
:10CCC0004FF480718166012070470168CA6852087C
:10CCD0005200CA6002680021D160026811610268D6
:10CCE0005161026891610268D16102681162026853
:10CCF00051620268916202681163026851630268BE
:10CD00001F2151600021C16501664166816680F87E
:10CD10003D1080F83C1000207047C268036901682C
:10CD20001A43CA60426983691A43C3691A43036A92
:10CD30001A43436A1A43C36A1A43036B1A43836A4A
:10CD40005B1E42EA834283681A430A614268B2F179
:10CD5000804F03D10A6942F040420A6100224A61D1
:10CD6000426B002A05D54A6942F480224A61426B2F
:10CD7000524292B20A62826B002A09D54A6942F491
:10CD800000224A610A6A836B5B4242EA034202E084
:10CD90000B6A43EA02420A624068B0F1804F14BF56
:10CDA00000F0FF0000208862002048627047000009
:10CDB0002DE9F04F82460FF25860A5B015461E4689
:10CDC000D0E90023CDE9122303AF00207960B862D7
:10CDD0000DF1500900E045440020ADF8020012AB0F
:10CDE0004FF0FF3229460DF1020001F062F9804652
:10CDF000B8F1010F08DA2878B0F1010868EB0808EB
:10CE00006FEA08004FEAD078BDF8020025280CBF71
:10CE1000A8F1010BC346BBF1010F0EDB2C4614F841
:10CE2000011B7868D0470028786000F0F880B86A65
:10CE3000401CBBF1010BB862F1D1BDF802002528FE
:10CE400007D1002038617861B861F8613862786292
:10CE500005E00028BFD1B86AE2E240F0010015F811
:10CE6000011F2029F9D023290DD02B2904D02D29E9
:10CE700006D030290AD00CE040F0020080B2EEE784
:10CE800040F00400FAE740F00800F7E740F0100037
:10CE9000F4E72A290ED13168316051F8042B316052
:10CEA000002A3A6304D5514240F00400396380B24D
:10CEB0006D1C13E0002139630BE0396B6FF0004308
:10CEC000994205D001EB810302EB4301303939630C
:10CED0006D1C2A78A2F130010A29EED329782E2977
:10CEE00003D04FF0FF31F9621FE015F8011F2A2926
:10CEF00007D1316831606D1C51F8042B3160FA6242
:10CF000013E00021F9620BE0F96A6FF000439942E7
:10CF100005D001EB810302EB43013039F9626D1C4E
:10CF20002A78A2F130010A29EED3B8860FF2E84040
:10CF3000297801F0CFF808B115F8010B8DF84200FF
:10CF40009DF84200682802BF29786829622005D030
:10CF50006C2804BF28786C2803D171208DF842001A
:10CF60006D1C14A8F86015F8014BB4F125002AD007
:10CF70001C3800F0DB80001F022840F2D7801338F5
:10CF800000F0FB80093800F0D180801E00F0658140
:10CF9000401E00F03C81401E022840F2C780001F66
:10CFA00000F03581401F00F09280401E00F0E580C7
:10CFB000401E37D0C01E0BD0801E00F0DE80C01E89
:10CFC00000F0DB806CE125208DF85000012070E13D
:10CFD0009DF842006C283068306016D050F8048B01
:10CFE0003060C7F80880FC6A002C04D5404601F088
:10CFF0007DF8044607E022460021404601F092F801
:10D0000008B1A0EB08047C6154E150F8042B3060B7
:10D0100002A9504600F03EFA002840F14B814FF043
:10D02000FF30FDE131683160002251F8040B3160BE
:10D030004FF03C0E0021CDE9020114A8B860DDE9F3
:10D0400002019142FC6808BF904201D1FA6AC2B164
:10D0500000F00F033033DBB23A2BA8BF2733AEF119
:10D0600001020009A354964640EA01700909002212
:10D07000914208BF904204D0BA6804EB0E039A4272
:10D08000E6D304EB0E01B960CEF13C00F96A786199
:10D09000884207DA081AF8614FF6EF71B88E084037
:10D0A000B88607E1002940F1058197F8341001F0B6
:10D0B0001401102940F0FE80396B3A69891AFA6927
:10D0C000891A081A0128C0F2F580F861F2E09DF88B
:10D0D000420062281AD0682806D06A280CD06C2832
:10D0E0001CD0712808D019E03068306050F8041B5B
:10D0F0003060B86A0880DDE03068306050F8042B9A
:10D100003060B86AC117C2E90001D3E0306830600E
:10D1100050F8041B3060B86A0870CBE030683060AB
:10D1200050F8041B3060B86A0860C3E03068C01D66
:10D1300020F007023260D2E9000108323260CDE906
:10D140000201002902D538692D2109E0B88E810736
:10D1500002D538692B2103E0C00705D538692021A5
:10D1600009F80010401C386114A839690844B860F7
:10D17000214602A800F09AFB9CE09DF842006C2832
:10D180000DD0712818BF6A2809D13068C01D20F061
:10D1900007023260D2E900010832326005E03168EE
:10D1A000316051F8040B31600021CDE902019DF896
:10D1B0004200682803D1DDE9020180B20BE0622859
:10D1C00003D1DDE90201C0B205E0742818BF7A2856
:10D1D00004D1DDE902010021CDE9020197F8340014
:10D1E000000731D5DDE902230020834208BF8242D7
:10D1F0002AD044F02000782826D13869302109F857
:10D200000010401C411C396109F800401CE09DF8E9
:10D210004200314600F007F9CDE90201DDE90223C1
:10D2200000218B4202DA38692D2109E0B88E81078E
:10D2300002D538692B2103E0C00705D538692021C4
:10D2400009F80010401C386114A839690844B86016
:10D25000214602A800F0A4FA2CE09DF842006C28B8
:10D2600009D0012038613068306050F8041B30600C
:10D270008DF850101EE03068306001AA50F8041B91
:10D280003060ADF804100020ADF8060002A94FF0A0
:10D29000FF30F862504600F0FDF800280AD5BEE6DF
:10D2A00025208DF85000012038611CB189F801401B
:10D2B00002203861386B3969401AF969401A796976
:10D2C000401A396A401AB969401A796AA0EB010814
:10D2D00097F83400400711D42020B8F1010F8DF8E1
:10D2E00000000BDB444601236A4602A9504600F0C9
:10D2F00007FE00287FF493AE641EF4D1D7F810B077
:10D30000BBF1000F14AC0DD014F8011B7868D047A6
:10D31000002878603FF483AEB86A401CBBF1010B73
:10D32000B862F1D130208DF80000FC69012C0ADBD5
:10D3300001236A4602A9504600F0E2FD00287FF46E
:10D340006EAE641EF4D1D7F814B0BC68BBF1000F08
:10D350000DD014F8011B7868D047002878603FF49E
:10D360005EAEB86A401CBBF1010BB862F1D130204F
:10D370008DF800003C6A012C0ADB01236A4602A9F1
:10D38000504600F0BDFD00287FF449AE641EF4D184
:10D39000B8687969D7F818B04418BBF1000F0DD000
:10D3A00014F8011B7868D047002878603FF437AE46
:10D3B000B86A401CBBF1010BB862F1D130208DF886
:10D3C00000007C6A012C0ADB01236A4602A9504650
:10D3D00000F096FD00287FF422AE641EF4D197F889
:10D3E000340040077FF5F8AC2020B8F1010F8DF82C
:10D3F0000000FFF6F1AC01236A4602A9504600F096
:10D400007FFD00287FF40BAEB8F10108F3D1E3E40F
:10D410000000000000000000686A6C747A4C000094
:10D4200025B0BDE8F08F622826D068281DD06A2874
:10D4300008D06C2827D0712804D0742823D07A28EB
:10D440000CD020E00868C01D20F007000860D0E97B
:10D450000023083008601946104670470A680A60C1
:10D4600052F8040B0A60002170470A680A6052F8FB
:10D47000040B0A6000B20BE00A680A6052F8040B61
:10D480000A6040B204E00A680A6052F8040B0A60BD
:10D49000C11770472DE9F44F0D4694B0D5F830A070
:10D4A000BAF1000F804648BF6FF0004A00F066FEF8
:10D4B000696B401801900FF67820D0E90023CDE980
:10D4C000022395F83800400702D40198412805D27C
:10D4D00040200DF110090190002609E000F054FEF3
:10D4E0005FEA0009F8D14FF0FF3056E1AAEB040AD9
:10D4F000BAF1010FC0F2CE801498018802AA0DF192
:10D50000010000F099FE0028044600F1DE80149826
:10D51000008810B9641E00F1D880A245C0F2BA801C
:10D52000686901992218914280F0A2806E6340429E
:10D53000296A401AA969401A696A401AE969401AB9
:10D54000A96A461A95F83800400710D42020012E09
:10D550008DF800000BDB374601236A46294640461A
:10D5600000F0CEFC002840F0B0807F1EF4D1D5F84A
:10D5700014B0BBF1000F4F460DD017F8011BA8687F
:10D58000C0470028A86000F0A080E86A401CBBF1FA
:10D59000010BE862F1D130208DF800002F6A012FD5
:10D5A0000ADB01236A462946404600F0A9FC002810
:10D5B00040F08B807F1EF4D1D5F818B0EF68BBF136
:10D5C000000F0CD017F8011BA868C0470028A860FE
:10D5D0007BD0E86A401CBBF1010BE862F2D130203D
:10D5E0008DF800006F6A012F09DB01236A46294686
:10D5F000404600F085FC002867D17F1EF5D1E86821
:10D60000A969D5F81CB04718BBF1000F0CD017F86A
:10D61000011BA868C0470028A86056D0E86A401CD3
:10D62000BBF1010BE862F2D130208DF80000AF6A47
:10D63000012F09DB01236A462946404600F060FCC1
:10D64000002842D17F1EF5D195F8380040070DD54E
:10D650002020012E8DF8000008DB01236A462946B0
:10D66000404600F04DFC80BB761EF6D100266E6170
:10D67000224668690DF10101484400F0EBFD68693C
:10D68000201868611498801C1490801E008800285F
:10D690007FF42CAF686B6969401A296A401AA9693E
:10D6A000401A696A401AE969401AA96AA0EB010A9E
:10D6B00095F83800400710D4BAF1010F0DDB54463D
:10D6C000A8682021C047A86010B94FF0FF365DE080
:10D6D000E86A401C641EE862F2D16B694A4629463A
:10D6E000404600F00DFC0028EFD12C6A012C0ADB2B
:10D6F000A8683021C0470028A860E6D0E86A401C2E
:10D70000641EE862F4D1AB69EA682946404600F03D
:10D71000F7FB0028D9D16C6A012C0ADBA8683021FC
:10D72000C0470028A860D0D0E86A401C641EE862A8
:10D73000F4D1E868A969EB6942182946404600F02F
:10D74000DFFB0028C1D1AC6A012C0ADBA8683021BC
:10D75000C0470028A860B8D0E86A401C641EE86290
:10D76000F4D195F8380040070ED5BAF1010F0BDB64
:10D77000A8682021C0470028A860A6D0E86A401CFD
:10D78000BAF1010AE862F3D16E616E6304A88145C3
:10D790001CBF484600F09AFD304615B0BDE8F08F3A
:10D7A0002DE9F343054608462F696F2808BF082472
:10D7B00005D041F02001782914BF0A2410243C260A
:10D7C000D5E90023642818BF69289046994606D1F8
:10D7D00000218B4203DAD8F1000869EB49090020E7
:10D7E000814508BF80450CD1286B50B9082C38D131
:10D7F00095F83800000734D530203B2687F83B00E9
:10D800002FE0701E00900646404649462246E31728
:10D81000FDF71EFB02F13000C0B23A2803DB9DF891
:10D82000041051390818B855494640462246E317B6
:10D83000FDF70EFB804689460020814508BF8045E4
:10D8400003D0E868B9198842DBD3082C09D195F8D0
:10D850003800000705D5B85D302802D0761E30208C
:10D86000B855B919E960C6F13C00296BA861884236
:10D8700008DA081A28624FF6EF71288F08402887C7
:10D88000BDE8F38300290ED595F8381001F0140196
:10D89000102908D1696B6A69891A2A6A891A0E1ACD
:10D8A000012EA8BF2E62BDE8F38300002DE9F24FE0
:10D8B00004468EB0D4E90001CDE9020104AF9DF821
:10D8C000380040F0200BBBF1610F0AD0206B00281C
:10D8D00048BF062004D408BFBBF1670F01D1012067
:10D8E00020636168C1F30A5040F2FF7290421CD17C
:10D8F000080304BF2068002809D10320A0619DF817
:10D90000380061381A2835D30FF2386108E0032057
:10D91000A0619DF8380061381A2828D30FF21C61E5
:10D92000E068032200F096FCBDE1012815DA2046EC
:10D9300000F00CFD012810DB00250020BBF1610F79
:10D940001FD1E16830220A708A1CE2609DF83820FD
:10D95000612A0CBF782258220FE0626840F2FE3143
:10D9600061F31E52451A62604FF0FF30E6E70FF296
:10D97000C851D5E70FF2C851D2E74A706169891CD6
:10D98000616110B90026002584E1BBF1610F40F010
:10D990009880206BD4E900AB00284CBF2126461CA0
:10D9A000DDE902010022002300F0F2FC36B23ABFAA
:10D9B0008BF00040CDE902A0CDE902AB06F10108F1
:10D9C0002D1FB8F1010F8DF810200DF1110736DB76
:10D9D000DDE902010022002300F0F2FC2FD21C211D
:10D9E00002A800F005FDDDE9020100F08BFDA8F1C1
:10D9F0000708B8F1010F814609DB00F08AFD0246F5
:10DA00000B46DDE9020100F08BFDCDE90201F81DB6
:10DA1000072105E009F00F0200F8012D4FEA29194E
:10DA2000B9F1010F01DB491EF4D5491E5CBF00228C
:10DA300000F8012DF9D5C71DB8F1010FC8DA0DF1B5
:10DA40001100391AB142B8BF0E4636B230000DF19E
:10DA500011072FD4884206DA04A90144497808291D
:10DA6000A8BF0F2100DA002104AA024400E0761EBC
:10DA700012F80139401E8B42F9D00F2904D104A9B4
:10DA800001444A78521C4A70002802D504AF761C23
:10DA90002D1D36B2701E0DD439180A783032D2B22C
:10DAA0003A2A03DB9DF838303A3B9A18401E01F8B9
:10DAB0000129F2D5206B002840F1EC80701E206314
:10DAC000E8E0DDE902010022002300F061FC3CBF38
:10DAD00081F00041CDE902012DB247F29750684331
:10DAE0004B49DFF8309190FBF1F52DB2C5F1070AF3
:10DAF000BAF1010F90461CDBDDE902675FEACA70EC
:10DB000007D542464B463046394600F012FD0646E0
:10DB10000F464046494642464B464FEA6A0A00F0E5
:10DB200008FDBAF1000F80468946E7D1CDE90267CA
:10DB300024E0CAF1000A0026374F14E05FEACA70F9
:10DB400007D542464B463046394600F0F2FC0646C1
:10DB50000F464046494642464B4600F0EAFC4FEA33
:10DB60006A0A80468946BAF1000FE7D1DDE9020171
:10DB700032463B4600F0E6FCCDE90201BBF1660F00
:10DB8000216BDFF898900CBF05F10A0006204618BB
:10DB9000142EA8BF132630208DF810000DF11107A8
:10DBA000012E3DDBDDE9020100F0D5FC07F10801A3
:10DBB00004220A23B0FBF3F303EB8307A0EB470037
:10DBC000303001F8010C0A20B3FBF0F000EB8007C5
:10DBD000A3EB47033033521E01F8023DE9D1083E62
:10DBE000012E01F10807DBDBDDE9020100F0B3FCE7
:10DBF00000F0B8FC02460B46DDE9020100F090FCA3
:10DC000000224B4600F095FCCDE90201CAE700BFB7
:10DC1000A0860100000024400000F03F84D7974117
:10DC20000DF11100381A0DF1110702E0401E6D1EB2
:10DC30007F1C39783029F9D0BBF1660F08BF691C09
:10DC400004D0BBF1650F0CBF01210021226B8E189F
:10DC500036B2B042B8BF064636B231001AD481425D
:10DC600004DA785C3528A8BF392000DA30207A1829
:10DC7000521E00E0761E12F80139491E8342F9D087
:10DC8000392802D1785C401C7854002902D57F1EC7
:10DC9000761C6D1C2DB29DF83810009533B23A46B3
:10DCA000204600F003F80FB0BDE8F08F2DE9F047F3
:10DCB00086B006468A4690461D4600F078FC012D47
:10DCC000406A376B90F8009002DA01250FF278284D
:10DCD0004AF02000BDF93840662808BF641C12D005
:10DCE000672878D114F1040F7BDBBC4279DA96F80F
:10DCF0003800641C000702D4BD42B8BF2F4624B2CE
:10DD00003F1B48BF002724B2F068B169012C23DA19
:10DD10004A1C30234354012F03DA96F838000007D9
:10DD200003D5F06800F80290521CE742B8BF7C426D
:10DD300024B260427062E719AF42B261B8BF3D469B
:10DD4000F068B3692DB2F5612A464146184400F0E7
:10DD500081FA781BB062BCE022469542084416DA8C
:10DD60002A46414600F076FAB1696918601B012F16
:10DD7000B161706203DA96F83800000705D5F068E3
:10DD800000F80190F069401CF061B762A1E04146E3
:10DD900000F060FAB06920182D1B012F03DA96F805
:10DDA0003810090703D5F16801F80090401CB061F4
:10DDB0002DB2AF42B8BF3D46F068B3692DB22A46D6
:10DDC00008EB0401184400F045FAB0692818B06166
:10DDD000781B70627DE0BAF1610F14D14FF0700AC8
:10DDE00016E0BD4204DA96F83810090758BF2F46EE
:10DDF0007F1E48BF0027BAF1670F14BF4FF0450AD6
:10DE00004FF0650A04E0BAF1410F08BF4FF0500A25
:10DE1000B169F368481CB061012F18F8012B5A54FE
:10DE200003DA96F83810090717D5F168431CB36177
:10DE300001F80090012F10DB6D1E2DB2AF42B8BF6C
:10DE40003D46F0682DB22A464146184400F002FAD9
:10DE5000B0692818B061781B7062F068B16901443C
:10DE6000200081F800A004D42B20487001F10208A2
:10DE700004E02D224A7001F102086442002502AF3D
:10DE800008E00A22684600F0ABFB019807F8010B96
:10DE90006D1C009C21B20129F3DA022D06DA4AF04A
:10DEA0002000652804BF302008F8010B4DB9302050
:10DEB00008F8010B07E06D1E02A8405D303008F83D
:10DEC000010B012DF7DAF068B1690844A8EB0000F6
:10DED000F06196F8380000F0140010280DD1706938
:10DEE000B1690818716A0818F1690818B16A081848
:10DEF000716B8842BCBF081A306206B0BDE8F0877B
:10DF0000F8B504460D4616461F46002077B116F8B0
:10DF1000011BA868A047A86030B1E86A401CE8620D
:10DF200000207F1EF3D1F2BD4FF0FF30F2BD0000A4
:10DF300000000000000000006E616E004E414E00C7
:10DF4000696E6600494E460030000000002200F075
:10DF50004FBB00007047704770477047704770476D
:10DF600070B40C684D6A0A6ACB69002C046814D13D
:10DF70004E68E40B35438E683543CE6835430E69F1
:10DF800035434E698969354329431943114341EAB1
:10DF9000C4310160002070BC704724F4F84423436E
:10DFA0001A432A43026042688B694C6823438C6899
:10DFB000D20B2343CC6823430C694969234319439B
:10DFC00041EAC2314160002070BC704770B44B69B7
:10DFD000CC685B1E641E002A82681CD18D690E68A5
:10DFE0006D1E02F07042761E46EA05654E68761E8A
:10DFF00045EA06158E680969761E45EA0625491E1A
:10E0000045EA043444EA014141EA03511143816085
:10E01000002070BC7047104D2A4042EA043242EAA8
:10E0200003528260C2688B690C685B1E02F070420A
:10E03000641E44EA03634C68641E43EA04138C685C
:10E040000969641E43EA0423491E43EA014111435E
:10E05000C160002070BC7047FF0F0FFF4FF4347297
:10E0600040F8212000EB81016FF070428A600021AE
:10E070000161416181610020704702690B68D1F83C
:10E0800004C04CEA0303D1F808C0C968ACF1010C24
:10E0900043EA4C1343EA41211143016100207047D8
:10E0A00042696FF34D0242EA41014161002070472D
:10E0B0007047F8B504460D4616461F4600F0C8FAEC
:10E0C0003B4632462946204601B0BDE8F04000F00C
:10E0D000D6BA00000278C9B28A421AB11CBF10F841
:10E0E000012FF9E718BF00207047000000F101037D
:10E0F000810704D010F8011B89B18107FAD10268A9
:10E10000B2F10131914311F0803F04BF50F8042F68
:10E11000F6E710F8011B11B110F8011BFBE7C01A5C
:10E1200070470000C9B2830706D0521E22D310F8F0
:10E13000013B9942F7D11FE0083A13D302F10402E0
:10E1400041EA012141EA014150F8043B121F21BF7D
:10E150004B40A3F1013C2CEA030C1CF0803FF3D0B0
:10E16000C9B2001F083210F8013B521E28BF91EAC5
:10E17000030FF8D818BF0120401E704780B500F08B
:10E1800067FA012002BD000070B5054605F10F00D9
:10E19000C408AFF30080E400A54232D2082C04D2B8
:10E1A000082402E0083000F091F8224802681100CB
:10E1B0000CD1011D0A6802B31368A34238BF111DB8
:10E1C000F8D310E01D68A5420DD2191D0B68002B75
:10E1D000F8D11268011D00E0191D0B6893420CD0A4
:10E1E0001D68A542F8D361B10D682A68A2F1080341
:10E1F000A3420AD26A680A600FE000F063FA0028BE
:10E20000D0D1AFF30080002070BD2B190B60121B22
:10E210006E685E600B681A602C60096800291DBF7B
:10E220004A68002A091D00210160AFF3008005F152
:10E23000080070BD6C2B002070B504460D461646D4
:10E2400000F006FA324629462046BDE8704000F04C
:10E2500009BA000062B38B0708D0521E11F8013BC7
:10E2600000F8013B00F024808B07F6D1830740F0D3
:10E27000208000BF103A07D330B4B1E83810103A0C
:10E28000A0E83810F9D230BC530724BFB1E8081019
:10E29000A0E8081044BF51F8043B40F8043BD20703
:10E2A00024BF31F8022B20F8022B44BF0B780370F7
:10E2B0007047083A07D3B1E80810083A40F8043B21
:10E2C00040F804CBF7D25307E4E7000000B97047E9
:10E2D00038B5A0F108042068082833D310F0070FE0
:10E2E00030D1AFF300801848416809B18C4203D2A5
:10E2F0006160446017E019464B680BB1A342FAD342
:10E300000B68CD18AC421BD3A54204D12268D218A9
:10E310000A600C4607E04A681AB1236823449A420F
:10E320000ED362604C60616851B12268A3188B42C1
:10E3300006D1002303600868801820604868606088
:10E34000AFF3008031BD00006C2B002030B4436877
:10E35000012103F00042C3F31303002B436004BF09
:10E360000368002B08D10DE00368491EDD0F5B0038
:10E3700045EA4404446003604468E302F4D5C4F30E
:10E380001303436043681A434260084630BC704739
:10E390004FF4001C1CEB410F94BF1CEB430F09E032
:10E3A00041EA030C50EA4C0C52EA0C0C03D299429D
:10E3B00008BF9042704714BF8B42824270470000F2
:10E3C0004FF4001C1CEB410F94BF1CEB430F09E002
:10E3D00041EA030C50EA4C0C52EA0C0C03D28B427B
:10E3E00008BF8242704714BF9942904270470000B4
:10E3F00070B504460D46606840F2FF71C0F30A50E4
:10E40000884207D16068000304BF2068002817D045
:10E41000022070BD20B92046FFF798FF012866DA78
:10E42000012D0FDB40F2FF71091A8D420AD360689B
:10E4300000284CBF9FED2F0B9FED300B84ED000BA0
:10E44000012070BD4142A942616806DA6FF31E5196
:10E45000401941EA0050606040E0401E4519636881
:10E4600005F135000122352801F0004162F31F5308
:10E47000636003D361600020206070BD002015F14F
:10E480001F0F04DA206823600022203562606A4290
:10E4900012D02568401E8041C2F12003C043666847
:10E4A0009D4045EAD070256806FA03F3D5402B431A
:10E4B00023606368D340636062680A43B0F1004F31
:10E4C000626003D80DD12078C0070AD52068401CAF
:10E4D0002060206828B96068401C60604FF0FF3001
:10E4E00070BD6068884204BF20680028F6D1002013
:10E4F00070BD00BF000000000000F0FF0000000041
:10E500000000F07F41EC100BBDEEC00B10EE100AC6
:10E51000704700EE100AB8EEC00B51EC100B7047BC
:10E5200041EC100B43EC112B30EE410B51EC100B76
:10E53000704741EC100B43EC112B20EE010B51EC1A
:10E54000100B704741EC100B43EC112B80EE010BCC
:10E5500051EC100B704741EC100BBCEEC00B10EEF1
:10E56000100A704700EE100AB8EE400B51EC100B89
:10E570007047000080B5134800F0BAF80FF24C0263
:10E580000FF244010160426241600FF24402826373
:10E5900081600FF24402C160016141618161816269
:10E5A000C16201634163C2630164416401BD10B58E
:10E5B000044800F09DF80446206808B9FFF7DAFF28
:10E5C000204610BD54030020000000002E00000073
:10E5D00066616C7365000000747275650000000070
:10E5E00091FBF2F303FB1211C0E900317047000008
:10E5F000401810F0030308D0C91A1FD3DB0748BF27
:10E6000000F8012D28BF20F8022D130030B4144665
:10E610001546103928BF20E93C00FAD8490728BF21
:10E6200020E90C0048BF40F8042D890028BF20F8DD
:10E63000022D48BF00F8012D30BC7047C91818BF23
:10E6400000F8012DCB0728BF00F8012D704700000E
:10E6500080B5DFF80C0000F04BF8806902BD0000C7
:10E66000E403002030B430B90FF24800D0E900458F
:10E67000C2E900451BE00170012030BC704730B496
:10E6800031B90FF23800D0E90045C3E900450EE08A
:10E690001AB930BC6FF00100704708B10A780280E7
:10E6A0000978481E804130BCC043C00F704700202D
:10E6B00030BC7047000000000000000000000000B7
:10E6C000000000000749086808B1002070470648AC
:10E6D000C008C00008600549C908C900091A0160DE
:10E6E000704700BF902B00205724002050280020A6
:10E6F00070470000353031320000000031323334D1
:10E70000000000002D383734000000002B31323279
:10E710000000000033352E35343430300000000066
:10E720002E31323334353030000000002D3131309D
:10E730002E373030000000002B302E36343430308D
:10E7400000000000352E353030652B33000000000E
:10E750002D2E313233652D32000000002D38376503
:10E760002B383332000000002B302E36652D31322D
:10E770000000000054302E33652D314600000000AB
:10E780002D542E542B2B5471000000003154332E85
:10E790003465347A0000000033342E30652D545E29
:10E7A000000000001C481D4BD0F8801041F470019F
:10E7B000C0F88010816841F00401816018490A683E
:10E7C00042F001020A6000220A610A681A400A60E7
:10E7D00000228A61CA610A628A62CA620A634A6363
:10E7E0008A63CA630A644A640A6822F480220A605F
:10E7F00000220A660B490A6842F480420A600A490C
:10E800000968090C0904B1F1005F02D20121074A2D
:10E81000116007490160704708ED00E07FEDF6EAFE
:10E8200000440258E40000580010005C08810051C8
:10E8300000000408000000000102030401020304B8
:10E8400006070809F0B4016844688368014401EBD5
:10E850005402E40748BF4B44914202D1F0BC0C3053
:10E86000704711F8015B15F0030604BF11F8014B66
:10E87000E61C2C090F2C07D111F8014B0F3403E0D3
:10E8800011F8017B03F8017B761EF9D1002CE3D04F
:10E89000AD0811F8016B05F00305032D08BF11F851
:10E8A000015B06EB05256D42A41C1D44D4D015F870
:10E8B000016B03F8016B641EF9D1CDE719E050F844
:10E8C000041BCB0744BFA9F101035918121F0023F1
:10E8D000042A41F8043BF9D25FEA827C0B4604D556
:10E8E0004FF0000CA1F800C09B1CD10744BF0021D1
:10E8F000197050F8042B002AE1D170477047FEE7E9
:10E90000FEE7FEE7FEE770477047704700B581B04D
:10E9100000F008F8024801B00168491C016000BD20
:10E920008C2B0020024841680278891841607047AA
:10E930000003002010B5074979441831064C7C4487
:10E94000163404E00A68081D114488470146A142B4
:10E95000F8D110BD2C000000480000004EF6885190
:10E96000CEF20001086840F470000860BFF34F8FDA
:10E97000BFF36F8F4FF00070E1EE100A7047000098
:10E980003DFFFFFF4403000050280020000000006E
:10E99000B5FEFFFFDC020000CC01000000000020FB
:10E9A00000F00BF8002801D0FFF7C4FF0020AFF300
:10E9B0000080F7F7CFFB00F002F80120704700F06D
:10E9C00001B800000746384600F002F8FBE70000F7
:10E9D00080B5AFF30080024A11001820ABBEFBE700
:10E9E0002600020038B504460D46284600F006F819
:10E9F000A84218BF0024204632BD00000149F8F7A4
:10EA0000A3BC00BF14030020014880470148004711
:10EA1000A5E7040819EA0408AFF30080FFF79EFF9A
:10EA2000FFF7BEFFFFF7FEBFFFF7FEBFFFF7FEBF1A
:10EA3000FFF7FEBFFFF7FEBFFFF7FEBFFFF7FEBF0A
:10EA4000FFF7FEBFFFF7FEBFFFF7FEBFFFF7FEBFFA
:10EA5000FFF7FEBFFFF7FEBFFFF7FEBFFFF7FEBFEA
:10EA6000FFF7FEBFFFF7FEBFFFF7FEBFFFF7FEBFDA
:10EC7000F27B0001F00305010000E00192F0203179
:10EC8000B0D44033796A14E7C1E3000052BE991151
:10EC90000856D71F47070000475EBF39A4E53A8EE4
:10ECA000848DCA12664333A86187100400F4E60419
:10ECB00008FC04100304E704080C041214041220D6
:10ECC00004122C04123804124404125004125C047E
:10ECD000126804127404128004128C041298041036
:10ECE0000339B70408530412510412AD0412B704D7
:10ECF00012FD0410030BB904082304121F0412159B
:10ED000004F003FF000802580001F1420168169860
:10ED100002040811001800501D04080E00140028F9
:10ED20002C040807000C006F221008200190D0036B
:10ED300004100702040101482A00209804924804A4
:10ED40001003510300203804F52BB052FF01F113DA
:06ED500044412CF99D1E58
:020000040806EC
:040000000200CDAB82
:020000040810E2
:10000000C8210010A14F1008854E1008874E100817
:10001000894E10088B4E10088D4E1008000000000D
:100020000000000000000000000000008F4E1008DB
:10003000914E100800000000934E1008954E1008D5
:10004000BD4F1008C14F1008C54F1008C94F100808
:10005000CD4F1008D14F1008D54F1008D94F1008B8
:10006000DD4F1008E14F1008E54F1008E94F100868
:10007000ED4F1008F14F1008F54F1008F94F100818
:10008000FD4F1008015010080550100809501008C5
:100090000D50100811501008155010081950100874
:1000A0001D50100821501008255010082950100824
:1000B0002D501008315010083550100839501008D4
:1000C0003D50100841501008455010084950100884
:1000D0004D50100851501008555010085950100834
:1000E0005D501008615010080000000065501008B5
:1000F000695010086D5010087150100875501008A4
:10010000795010087D501008815010088550100853
:10011000895010088D501008915010089550100803
:10012000995010089D501008A1501008A5501008B3
:10013000A9501008AD501008B1501008B550100863
:10014000B9501008BD501008000000000000000069
:10015000C1501008C5501008C9501008CD501008E3
:10016000D1501008D5501008D9501008DD50100893
:10017000E1501008E5501008E9501008ED50100843
:10018000F1501008F5501008F9501008FD501008F3
:100190000151100805511008095110080D5110089F
:1001A0001151100815511008195110081D5110084F
:1001B0002151100825511008295110082D511008FF
:1001C0003151100835511008395110083D511008AF
:1001D0004151100845511008495110084D5110085F
:1001E0005151100855511008595110085D5110080F
:1001F0006151100865511008695110086D511008BF
:100200007151100875511008795110087D5110086E
:100210008151100885511008895110088D5110081E
:100220009151100895511008995110089D511008CE
:10023000A1511008A5511008A9511008AD5110087E
:10024000B1511008B5511008B9511008BD5110082E
:10025000C1511008C5511008C9511008CD511008DE
:10026000D1511008D5511008D9511008DD5110088E
:10027000E1511008E5511008E9511008ED5110083E
:10028000F1511008F5511008F9511008FD511008EE
:1002900001521008055210082DE9F04F82460FF266
:1002A0005860A5B015461E46D0E90023CDE91223BB
:1002B00003AF00207960B8620DF1500900E04544B9
:1002C0000020ADF8020012AB4FF0FF3229460DF1CD
:1002D000020001F0AEF88046B8F1010F08DA287884
:1002E000B0F1010868EB08086FEA08004FEAD0781F
:1002F000BDF8020025280CBFA8F1010BC346BBF1D5
:10030000010F0EDB2C4614F8011B7868D04700283B
:10031000786000F0F880B86A401CBBF1010BB8624D
:10032000F1D1BDF80200252807D10020386178619D
:10033000B861F8613862786205E00028BFD1B86A18
:10034000E2E240F0010015F8011F2029F9D023292D
:100350000DD02B2904D02D2906D030290AD00CE04D
:1003600040F0020080B2EEE740F00400FAE740F00F
:100370000800F7E740F01000F4E72A290ED13168B1
:10038000316051F8042B3160002A3A6304D55142A0
:1003900040F00400396380B26D1C13E00021396322
:1003A0000BE0396B6FF00043994205D001EB8103FC
:1003B00002EB4301303939636D1C2A78A2F1300118
:1003C0000A29EED329782E2903D04FF0FF31F962A4
:1003D0001FE015F8011F2A2907D1316831606D1C13
:1003E00051F8042B3160FA6213E00021F9620BE04E
:1003F000F96A6FF00043994205D001EB810302EBEB
:1004000043013039F9626D1C2A78A2F130010A29C2
:10041000EED3B8860FF2E840297801F01BF808B156
:1004200015F8010B8DF842009DF84200682802BFC4
:1004300029786829622005D06C2804BF28786C28A8
:1004400003D171208DF842006D1C14A8F86015F8D6
:10045000014BB4F125002AD01C3800F0DB80001FCE
:10046000022840F2D780133800F0FB80093800F0F2
:10047000D180801E00F06581401E00F03C81401E4E
:10048000022840F2C780001F00F03581401F00F0B5
:100490009280401E00F0E580401E37D0C01E0BD079
:1004A000801E00F0DE80C01E00F0DB806CE12520A5
:1004B0008DF85000012070E19DF842006C283068F2
:1004C000306016D050F8048B3060C7F80880FC6AA2
:1004D000002C04D5404600F0C9FF044607E0224640
:1004E0000021404600F0DEFF08B1A0EB08047C616B
:1004F00054E150F8042B306002A9504600F03EFA57
:10050000002840F14B814FF0FF30FDE13168316050
:10051000002251F8040B31604FF03C0E0021CDE970
:10052000020114A8B860DDE902019142FC6808BF2D
:10053000904201D1FA6AC2B100F00F033033DBB24E
:100540003A2BA8BF2733AEF101020009A354964607
:1005500040EA017009090022914208BF904204D08C
:10056000BA6804EB0E039A42E6D304EB0E01B960BD
:10057000CEF13C00F96A7861884207DA081AF8611E
:100580004FF6EF71B88E0840B88607E1002940F1B8
:10059000058197F8341001F01401102940F0FE8015
:1005A000396B3A69891AFA69891A081A0128C0F25E
:1005B000F580F861F2E09DF8420062281AD06828C0
:1005C00006D06A280CD06C281CD0712808D019E0FD
:1005D0003068306050F8041B3060B86A0880DDE095
:1005E0003068306050F8042B3060B86AC117C2E937
:1005F0000001D3E03068306050F8041B3060B86A06
:100600000870CBE03068306050F8041B3060B86A86
:100610000860C3E03068C01D20F007023260D2E9F4
:10062000000108323260CDE90201002902D53869A3
:100630002D2109E0B88E810702D538692B2103E00E
:10064000C00705D53869202109F80010401C386121
:1006500014A839690844B860214602A800F09AFB42
:100660009CE09DF842006C280DD0712818BF6A28C4
:1006700009D13068C01D20F007023260D2E90001C4
:100680000832326005E03168316051F8040B3160A6
:100690000021CDE902019DF84200682803D1DDE97F
:1006A000020180B20BE0622803D1DDE90201C0B291
:1006B00005E0742818BF7A2804D1DDE90201002181
:1006C000CDE9020197F83400000731D5DDE90223B6
:1006D0000020834208BF82422AD044F020007828BC
:1006E00026D13869302109F80010401C411C3961BD
:1006F00009F800401CE09DF84200314600F007F97F
:10070000CDE90201DDE9022300218B4202DA3869DA
:100710002D2109E0B88E810702D538692B2103E02D
:10072000C00705D53869202109F80010401C386140
:1007300014A839690844B860214602A800F0A4FA58
:100740002CE09DF842006C2809D001203861306807
:10075000306050F8041B30608DF850101EE0306897
:10076000306001AA50F8041B3060ADF8041000207E
:10077000ADF8060002A94FF0FF30F862504600F0D5
:10078000FDF800280AD5BEE625208DF8500001208E
:1007900038611CB189F8014002203861386B396931
:1007A000401AF969401A7969401A396A401AB969D8
:1007B000401A796AA0EB010897F83400400711D479
:1007C0002020B8F1010F8DF800000BDB4446012317
:1007D0006A4602A9504600F007FE00287FF493AE57
:1007E000641EF4D1D7F810B0BBF1000F14AC0DD0DB
:1007F00014F8011B7868D047002878603FF483AE76
:10080000B86A401CBBF1010BB862F1D130208DF801
:100810000000FC69012C0ADB01236A4602A950464C
:1008200000F0E2FD00287FF46EAE641EF4D1D7F82C
:1008300014B0BC68BBF1000F0DD014F8011B786830
:10084000D047002878603FF45EAEB86A401CBBF128
:10085000010BB862F1D130208DF800003C6A012C08
:100860000ADB01236A4602A9504600F0BDFD0028BC
:100870007FF449AE641EF4D1B8687969D7F818B02E
:100880004418BBF1000F0DD014F8011B7868D04755
:10089000002878603FF437AEB86A401CBBF1010B0A
:1008A000B862F1D130208DF800007C6A012C0ADB9F
:1008B00001236A4602A9504600F096FD00287FF405
:1008C00022AE641EF4D197F8340040077FF5F8ACEF
:1008D0002020B8F1010F8DF80000FFF6F1AC0123E4
:1008E0006A4602A9504600F07FFD00287FF40BAE57
:1008F000B8F10108F3D1E3E40000000000000000BB
:10090000686A6C747A4C000025B0BDE8F08F6228EC
:1009100026D068281DD06A2808D06C2827D07128D6
:1009200004D0742823D07A280CD020E00868C01D99
:1009300020F007000860D0E900230830086019465D
:10094000104670470A680A6052F8040B0A600021DA
:1009500070470A680A6052F8040B0A6000B20BE0A4
:100960000A680A6052F8040B0A6040B204E00A68A0
:100970000A6052F8040B0A60C11770472DE9F44F62
:100980000D4694B0D5F830A0BAF1000F804648BFAC
:100990006FF0004A00F0B2FD696B401801900FF64D
:1009A0007820D0E90023CDE9022395F838004007EC
:1009B00002D40198412805D240200DF11009019080
:1009C000002609E000F0A0FD5FEA0009F8D14FF031
:1009D000FF3056E1AAEB040ABAF1010FC0F2CE8053
:1009E0001498018802AA0DF1010000F0E5FD00282D
:1009F000044600F1DE801498008810B9641E00F1EE
:100A0000D880A245C0F2BA80686901992218914243
:100A100080F0A2806E634042296A401AA969401A98
:100A2000696A401AE969401AA96A461A95F83800B5
:100A3000400710D42020012E8DF800000BDB374634
:100A400001236A462946404600F0CEFC002840F0CB
:100A5000B0807F1EF4D1D5F814B0BBF1000F4F4623
:100A60000DD017F8011BA868C0470028A86000F047
:100A7000A080E86A401CBBF1010BE862F1D1302094
:100A80008DF800002F6A012F0ADB01236A462946F0
:100A9000404600F0A9FC002840F08B807F1EF4D176
:100AA000D5F818B0EF68BBF1000F0CD017F8011B98
:100AB000A868C0470028A8607BD0E86A401CBBF14A
:100AC000010BE862F2D130208DF800006F6A012F2F
:100AD00009DB01236A462946404600F085FC0028D0
:100AE00067D17F1EF5D1E868A969D5F81CB0471811
:100AF000BBF1000F0CD017F8011BA868C0470028F5
:100B0000A86056D0E86A401CBBF1010BE862F2D144
:100B100030208DF80000AF6A012F09DB01236A46FF
:100B20002946404600F060FC002842D17F1EF5D1E6
:100B300095F8380040070DD52020012E8DF80000D3
:100B400008DB01236A462946404600F04DFC80BB85
:100B5000761EF6D100266E61224668690DF101010C
:100B6000484400F037FD6869201868611498801CBB
:100B70001490801E008800287FF42CAF686B696990
:100B8000401A296A401AA969401A696A401AE96933
:100B9000401AA96AA0EB010A95F83800400710D462
:100BA000BAF1010F0DDB5446A8682021C047A860A8
:100BB00010B94FF0FF365DE0E86A401C641EE86241
:100BC000F2D16B694A462946404600F00DFC0028E8
:100BD000EFD12C6A012C0ADBA8683021C04700281D
:100BE000A860E6D0E86A401C641EE862F4D1AB69F4
:100BF000EA682946404600F0F7FB0028D9D16C6A24
:100C0000012C0ADBA8683021C0470028A860D0D09A
:100C1000E86A401C641EE862F4D1E868A969EB69DF
:100C200042182946404600F0DFFB0028C1D1AC6ADB
:100C3000012C0ADBA8683021C0470028A860B8D082
:100C4000E86A401C641EE862F4D195F83800400759
:100C50000ED5BAF1010F0BDBA8682021C047002890
:100C6000A860A6D0E86A401CBAF1010AE862F3D194
:100C70006E616E6304A881451CBF484600F0E6FC27
:100C8000304615B0BDE8F08F2DE9F3430546084620
:100C90002F696F2808BF082405D041F0200178296A
:100CA00014BF0A2410243C26D5E90023642818BF69
:100CB00069289046994606D100218B4203DAD8F183
:100CC000000869EB49090020814508BF80450CD127
:100CD000286B50B9082C38D195F83800000734D566
:100CE00030203B2687F83B002FE0701E0090064620
:100CF000404649462246E31700F0E8FC02F1300086
:100D0000C0B23A2803DB9DF8041051390818B855D1
:100D1000494640462246E31700F0D8FC8046894603
:100D20000020814508BF804503D0E868B919884292
:100D3000DBD3082C09D195F83800000705D5B85D3C
:100D4000302802D0761E3020B855B919E960C6F1B6
:100D50003C00296BA861884208DA081A28624FF61D
:100D6000EF71288F08402887BDE8F38300290ED54E
:100D700095F8381001F01401102908D1696B6A69DF
:100D8000891A2A6A891A0E1A012EA8BF2E62BDE896
:100D9000F38300002DE9F24F04468EB0D4E9000140
:100DA000CDE9020104AF9DF8380040F0200BBBF103
:100DB000610F0AD0206B002848BF062004D408BF6A
:100DC000BBF1670F01D1012020636168C1F30A50B4
:100DD00040F2FF7290421CD1080304BF2068002833
:100DE00009D10320A0619DF8380061381A2835D355
:100DF0000FF2386108E00320A0619DF838006138E7
:100E00001A2828D30FF21C61E068032200F0E2FBED
:100E1000BDE1012815DA204600F0CFFC012810DBE7
:100E200000250020BBF1610F1FD1E16830220A705C
:100E30008A1CE2609DF83820612A0CBF7822582273
:100E40000FE0626840F2FE3161F31E52451A6260A3
:100E50004FF0FF30E6E70FF2C851D5E70FF2C85167
:100E6000D2E74A706169891C616110B900260025CA
:100E700084E1BBF1610F40F09880206BD4E900ABB6
:100E800000284CBF2126461CDDE902010022002378
:100E900000F0B6FC36B23ABF8BF00040CDE902A0BC
:100EA000CDE902AB06F101082D1FB8F1010F8DF855
:100EB00010200DF1110736DBDDE9020100220023CD
:100EC00000F0B6FC2FD21C2102A800F0C9FCDDE91D
:100ED000020100F04FFDA8F10708B8F1010F8146AB
:100EE00009DB00F073FD02460B46DDE9020100F06C
:100EF00085FDCDE90201F81D072105E009F00F028B
:100F000000F8012D4FEA2919B9F1010F01DB491E43
:100F1000F4D5491E5CBF002200F8012DF9D5C71D8C
:100F2000B8F1010FC8DA0DF11100391AB142B8BF9A
:100F30000E4636B230000DF111072FD4884206DA82
:100F400004A9014449780829A8BF0F2100DA00212B
:100F500004AA024400E0761E12F80139401E8B42BA
:100F6000F9D00F2904D104A901444A78521C4A70CF
:100F7000002802D504AF761C2D1D36B2701E0DD48C
:100F800039180A783032D2B23A2A03DB9DF8383069
:100F90003A3B9A18401E01F80129F2D5206B00282F
:100FA00040F1EC80701E2063E8E0DDE902010022E0
:100FB000002300F025FC3CBF81F00041CDE9020197
:100FC0002DB247F2975068434B49DFF8309190FBC0
:100FD000F1F52DB2C5F1070ABAF1010F90461CDBFD
:100FE000DDE902675FEACA7007D542464B463046E4
:100FF000394600F0C3FD06460F4640464946424684
:101000004B464FEA6A0A00F0B9FDBAF1000F80467C
:101010008946E7D1CDE9026724E0CAF1000A00263B
:10102000374F14E05FEACA7007D542464B46304658
:10103000394600F0A3FD06460F4640464946424663
:101040004B4600F09BFD4FEA6A0A80468946BAF19A
:10105000000FE7D1DDE9020132463B4600F060FEB9
:10106000CDE90201BBF1660F216BDFF898900CBF50
:1010700005F10A0006204618142EA8BF13263020BA
:101080008DF810000DF11107012E3DDBDDE90201A5
:1010900000F086FC07F1080104220A23B0FBF3F3F9
:1010A00003EB8307A0EB4700303001F8010C0A2066
:1010B000B3FBF0F000EB8007A3EB47033033521E85
:1010C00001F8023DE9D1083E012E01F10807DBDB02
:1010D000DDE9020100F064FC00F082FC02460B46F0
:1010E000DDE9020100F08AFC00224B4600F046FDDB
:1010F000CDE90201CAE700BFA0860100000024403C
:101100000000F03F84D797410DF11100381A0DF11E
:10111000110702E0401E6D1E7F1C39783029F9D07E
:10112000BBF1660F08BF691C04D0BBF1650F0CBF93
:1011300001210021226B8E1836B2B042B8BF06469C
:1011400036B231001AD4814204DA785C3528A8BF5F
:10115000392000DA30207A18521E00E0761E12F88C
:101160000139491E8342F9D0392802D1785C401CEC
:101170007854002902D57F1E761C6D1C2DB29DF877
:101180003810009533B23A46204600F003F80FB00D
:10119000BDE8F08F2DE9F04786B006468A469046B6
:1011A0001D4600F006FF012D406A376B90F8009055
:1011B00002DA01250FF278284AF02000BDF9384004
:1011C000662808BF641C12D0672878D114F1040F78
:1011D0007BDBBC4279DA96F83800641C000702D445
:1011E000BD42B8BF2F4624B23F1B48BF002724B2E0
:1011F000F068B169012C23DA4A1C30234354012FD3
:1012000003DA96F83800000703D5F06800F802907A
:10121000521CE742B8BF7C4224B260427062E719B8
:10122000AF42B261B8BF3D46F068B3692DB2F56117
:101230002A464146184400F0CDF9781BB062BCE064
:1012400022469542084416DA2A46414600F0C2F981
:10125000B1696918601B012FB161706203DA96F8F9
:101260003800000705D5F06800F80190F069401CCF
:10127000F061B762A1E0414600F0ACF9B069201816
:101280002D1B012F03DA96F83810090703D5F168F2
:1012900001F80090401CB0612DB2AF42B8BF3D468E
:1012A000F068B3692DB22A4608EB0401184400F037
:1012B00091F9B0692818B061781B70627DE0BAF1CD
:1012C000610F14D14FF0700A16E0BD4204DA96F8AF
:1012D0003810090758BF2F467F1E48BF0027BAF1B4
:1012E000670F14BF4FF0450A4FF0650A04E0BAF1EA
:1012F000410F08BF4FF0500AB169F368481CB06154
:10130000012F18F8012B5A5403DA96F83810090700
:1013100017D5F168431CB36101F80090012F10DB71
:101320006D1E2DB2AF42B8BF3D46F0682DB22A46C1
:101330004146184400F04EF9B0692818B061781B96
:101340007062F068B1690144200081F800A004D403
:101350002B20487001F1020804E02D224A7001F1AF
:1013600002086442002502AF08E00A22684600F045
:1013700039FE019807F8010B6D1C009C21B2012970
:10138000F3DA022D06DA4AF02000652804BF302087
:1013900008F8010B4DB9302008F8010B07E06D1E6D
:1013A00002A8405D303008F8010B012DF7DAF06833
:1013B000B1690844A8EB0000F06196F8380000F02D
:1013C000140010280DD17069B1690818716A0818E5
:1013D000F1690818B16A0818716B8842BCBF081A15
:1013E000306206B0BDE8F087F8B504460D461646F3
:1013F0001F46002077B116F8011BA868A047A86017
:1014000030B1E86A401CE86200207F1EF3D1F2BDD3
:101410004FF0FF30F2BD00000000000000000000AF
:101420006E616E004E414E00696E6600494E460088
:101430003000F8B504460D4616461F4600F0DAFDAA
:101440003B4632462946204601B0BDE8F04000F058
:10145000E8BD00000278C9B28A421AB11CBF10F878
:10146000012FF9E718BF00207047000000F10103C9
:10147000810704D010F8011B89B18107FAD10268F5
:10148000B2F10131914311F0803F04BF50F8042FB5
:10149000F6E710F8011B11B110F8011BFBE7C01AA9
:1014A00070470000C9B2830706D0521E22D310F83D
:1014B000013B9942F7D11FE0083A13D302F104022D
:1014C00041EA012141EA014150F8043B121F21BFCA
:1014D0004B40A3F1013C2CEA030C1CF0803FF3D0FD
:1014E000C9B2001F083210F8013B521E28BF91EA12
:1014F000030FF8D818BF0120401E704780B500F0D8
:1015000079FD012002BD000070B5054605F10F0010
:10151000C408AFF30080E400A54232D2082C04D204
:10152000082402E0083000F091F822480268110017
:101530000CD1011D0A6802B31368A34238BF111D04
:10154000F8D310E01D68A5420DD2191D0B68002BC1
:10155000F8D11268011D00E0191D0B6893420CD0F0
:101560001D68A542F8D361B10D682A68A2F108038D
:10157000A3420AD26A680A600FE000F075FD0028F5
:10158000D0D1AFF30080002070BD2B190B60121B6F
:101590006E685E600B681A602C60096800291DBFC8
:1015A0004A68002A091D00210160AFF3008005F19F
:1015B000080070BD2026001070B504460D46164682
:1015C00000F018FD324629462046BDE8704000F084
:1015D0001BBD000062B38B0708D0521E11F8013BFF
:1015E00000F8013B00F024808B07F6D1830740F020
:1015F000208000BF103A07D330B4B1E83810103A59
:10160000A0E83810F9D230BC530724BFB1E8081065
:10161000A0E8081044BF51F8043B40F8043BD2074F
:1016200024BF31F8022B20F8022B44BF0B78037043
:101630007047083A07D3B1E80810083A40F8043B6D
:1016400040F804CBF7D25307E4E7000000B9704735
:1016500038B5A0F108042068082833D310F0070F2C
:1016600030D1AFF300801848416809B18C4203D2F1
:101670006160446017E019464B680BB1A342FAD38E
:101680000B68CD18AC421BD3A54204D12268D218F6
:101690000A600C4607E04A681AB1236823449A425C
:1016A0000ED362604C60616851B12268A3188B420E
:1016B00006D10023036008688018206048686060D5
:1016C000AFF3008031BD0000202600101B4213D173
:1016D000094236D12AB18446B0FBF2F002FB10C2B7
:1016E000704700F0D7BCFCD30022002370470B00EA
:1016F0000200002100207047904271EB030CF6D3EA
:1017000070B5B1FA81F4B3FA83F52C1BA340C4F190
:10171000200532FA05F63343A2405FF00046E6406A
:1017200002E05B085FEA3202841A71EB030524BF12
:10173000204629467641F4D302000B0030000021F8
:1017400070BD012ACFD970B5140C20D0B1FA81F444
:10175000B2FA82F5C4F120046419B4F12006D6D39C
:10176000B2405FF00044F440002502E052085FEA16
:101770003303C61A71EB020E24BF30467146644132
:101780006D41F3D302000B002000290070BD0C4610
:10179000B1FBF2F102FB11452D0445EA1045B5FB02
:1017A000F2F402FB145580B240EA0545B5FBF2F0B5
:1017B00002FB105240EA044070BD30B4436803F0AD
:1017C00000420121C3F313034360002B04BF0368ED
:1017D000002B08D10DE00368DD0F45EA44044460A6
:1017E0005B000360491E4468E302F4D5C4F31303AD
:1017F000436043681A434260084630BC70470000AB
:101800004FF4001C1CEB410F94BF1CEB430F09E08D
:1018100041EA030C50EA4C0C52EA0C0C03D29942F8
:1018200008BF9042704714BF8B428242704700004D
:101830004FF4001C1CEB410F94BF1CEB430F09E05D
:1018400041EA030C50EA4C0C52EA0C0C03D28B42D6
:1018500008BF8242704714BF99429042704700000F
:1018600070B504460D466068C0F30A5040F2FF713F
:10187000884207D16068000304BF2068002817D0A1
:10188000022070BD20B92046FFF797FF012866DAD5
:10189000012D0FDB40F2FF71091A8D420AD36068F7
:1018A00000284CBF9FED2F0B9FED300B84ED000BFC
:1018B000012070BD4142A942616806DA6FF31E51F2
:1018C000401941EA0050606040E0401E63684519DD
:1018D000012205F1350062F31F53352801F0004164
:1018E000636003D361600020206070BD002015F1AB
:1018F0001F0F04DA206823600022203562606A42EC
:1019000012D0401E25688041C2F12003C0439D4093
:1019100045EAD07025686668D54006FA03F32B4384
:1019200023606368D340636062680A43B0F1004F8C
:10193000626003D80DD12078C0070AD52068401C0A
:101940002060206828B96068401C60604FF0FF305C
:1019500070BD6068884204BF20680028F6D100206E
:1019600070BD00BF000000000000F0FF000000009C
:101970000000F07FF446400D40EAC120490006D245
:1019800000F014F8004248BF6FF00040604700F0DC
:101990000DF84FF0004188428CBF08464042604736
:1019A000400D40EAC120490080F00D8040F0004029
:1019B000490DA1F58061491C05D4D1F11F0154BF27
:1019C000C840C01770474FF000007047010040F159
:1019D0000980F446404200F005F851F000416047AC
:1019E000010000BF09D0B0FA80F18840C91CC1F5E0
:1019F0008461090501EBD02140057047F0B44FF038
:101A0000004591EA030F44BF6B4000F045BB00BFA7
:101A1000841A71EB030604D26E40001BB141121907
:101A200073414FF4001C1CEB410F34BF7CEB4306A9
:101A300084E00C0DA4EB1356362E7DDC012E43DC26
:101A400045EAC32343EA525312BFD20292025B0813
:101A5000240545EAC12141EA5051D2EBC020994109
:101A600025D407D1B0FA80F610FA06F164D0002030
:101A7000203608E0B1FA81F6B140C6F1200220FA22
:101A800002F21143B0404FEAF474B4EB465434F020
:101A900001064FEA74040AD8D6F50016760D04F054
:101AA0000044F04061FA06F25040F1404840C00A5C
:101AB00040EA415021F0004128BF5FEA500550F153
:101AC000000044EBD12137E045EAC323DB0A45EAB5
:101AD000C121C90AB6F120050EDD42EA0242120C0C
:101AE000C5F1200603FA06F6EB4042EA06056D4210
:101AF000984161F100010DE062FA06F5F2405540AF
:101B000063FA06FC82EA0C02F3405A406D429041AF
:101B100061EB030111F4801F05D1641E620502D040
:101B20006D004041494121F48011430875F10043A3
:101B300050F1000041EB0451F0BC70471CEB410F29
:101B400015D223F0004352EA43060BD04FEA4C0C67
:101B5000BCEB410F04D80C0D661E342EB7DDEBE74D
:101B6000801A994150EA410608BF0021E4E708BF06
:101B70001CEB430F28BF6FF00001DDE7B0B581EA31
:101B8000030C0CF0004C40F2FF7515EA11541DBF18
:101B900015EA1357AC42AF4239E0E41923EA455342
:101BA00043F48013C90241F0004141EA505EC7028C
:101BB0001100A7FB020200284FF00000EEFB0120FD
:101BC0004FF00001E3FB072118BF42F0010240186B
:101BD00000214941E3FB0E01A4F580640F0302D20A
:101BE00052004041494154F101046CDD470872F153
:101BF000004250F1000051EB0451A1F580115CBF8F
:101C000041EA0C01B0BD4CEA05510020B0BD05EA27
:101C10001357AC4214BFAF4241E050EA410E1CBF23
:101C200052EA430E02E061460020B0BD24423C442B
:101C30001BD15FEA070EF6D0090302BF0146002060
:101C4000AEF1140EB1FA81F7AEEB070401FA07FE0C
:101C50000C37C7F1200100FA07F7C8404EEA000E22
:101C600023EA455343F48013A2E733F00043B3FA69
:101C700083F704BFB2FA82FE77440B3FE41BB7F14F
:101C8000200E2FBF02FA0EF3BB40C7F1200E22FA3E
:101C90000EFE38BF43EA0E03BA40641C82E750EAE6
:101CA000410E14BF52EA430E6FF000014FF40017CB
:101CB00017EB430F8ABF194617EB410FB5E74CEA04
:101CC00005510020B0BDD4F10104B4F120070FDAB2
:101CD000C4F12007520828BF42F0010210FA07F5AC
:101CE00001FA07F7E1BF2A43E0403843E1400FE043
:101CF000352C98DCC7F1200452EA400220FA07F2A2
:101D000018BF42F0010231FA07F0A1400A43002156
:101D100072F1004250F1000051EB0C01B0BD000027
:101D20002DE9F04140F2FF7581EA030C0CF0004C04
:101D300015EA11541DBF15EA1357AC42AF42E9E052
:101D4000BC41C1F31301C3F31303801A994143F457
:101D5000801304D2641E4000494180185941C902D1
:101D600041EA5051B1FBF3F603FB1611A2FB0675D5
:101D7000D7EBC020A94102D2761E80185941C90272
:101D800041EA5051B1FBF3FE03FB1E11A2FB0E759D
:101D9000D7EBC020A94103D2AEF1010E8018594102
:101DA000890241EA9051760546EA8E2EB1FBF3F6A0
:101DB00003FB1611A2FB0675D7EB8020A94102D2C6
:101DC000761E80185941C90241EA50514EEA060E6A
:101DD000B1FBF3F603FB1611A2FB0675D7EBC0208F
:101DE000A94102D2761E80185941C90241EA5051D8
:101DF000B1FBF3F703FB1711A2FB0735D3EBC020B0
:101E0000A94167F100070CBF004247F0010766F3E4
:101E1000D5274FEA1E31B80814F5806414DDBD07DC
:101E200075F1004250EB0E5051EB045111F5801F3B
:101E30005CBF41EA0C01BDE8F0814CF07F6141F0EC
:101E4000E0410020BDE8F081BD076D0840EA0E507A
:101E500041F48011D4F10104B4F120060ADAC4F18E
:101E600020060200E04001FA06F3E1401843B240C8
:101E700015430EE0342C14DCC6F1200445EA40057D
:101E80006D0820FA06F2154321FA06F0A1400D4331
:101E9000002175F1004250F1000051EB0C01BDE84A
:101EA000F08100205FEA0C01BDE8F081CFB9921803
:101EB0005B41B3FA83F704BFB2FA82F6BF190B3F56
:101EC000B7F120062FBF02FA06F3BB40C7F1200688
:101ED00022FA06F638BF3343BA401CB1E419641E37
:101EE0002FE77F4231F00041B1FA81F404BFB0FA2C
:101EF00080F6A4190B3CB4F120062FBF00FA06F1BE
:101F0000A140C4F1200620FA06F638BF3143A040B4
:101F10003C1B16E7AC421ABF05EA1357AF4214E068
:101F200050EA41061CBF52EA4306BFE750EA4107A8
:101F3000304661461CBF41EA0551BDE8F08152EAD6
:101F4000430C08BFC143BDE8F08100204FF40016E8
:101F500016EB410F98BF16EB430F08BF16EB410F6E
:101F600024BFC14305E016EB430F0CBF61464CEAAA
:101F70000551BDE8F081000080B5134800F0F6F887
:101F80000FF24C020FF244010160426241600FF215
:101F90004402826381600FF24402C16001614161C9
:101FA00081618162C16201634163C2630164416412
:101FB00001BD10B5044800F0D9F80446206808B9FE
:101FC000FFF7DAFF204610BDCC0000100000000033
:101FD0002E00000066616C73650000007472756508
:101FE0000000000091FBF2F303FB1211C0E9003185
:101FF0007047000080B5DFF80C0000F0B7F880698A
:1020000002BD00005C01001030B430B90FF248008E
:10201000D0E90045C2E900451BE00170012030BC59
:10202000704730B431B90FF23800D0E90045C3E948
:1020300000450EE01AB930BC6FF00100704708B1DE
:102040000A7802800978481E804130BCC043C00F26
:102050007047002030BC7047000000000000000006
:1020600000000000000000000749086808B10020D7
:1020700070470648C008C00008600549C908C90083
:10208000091A0160704700BF38260010CF210010E8
:10209000C825001070470000841A71EB030603D2B4
:1020A000001BB141121973414FF4001C1CEB410F8E
:1020B00034BF7CEB430443E00C0DA4EB1356352EE8
:1020C00050DC45EAC323DB0A45EAC121C912B6F157
:1020D00020050DDD63FA05F6EB4086EA03051242A2
:1020E00018BF45F00105C01851F100010CD213E0F2
:1020F00062FA06F5F2405540F3415A40B340F340CE
:102100005A408018594107D349085FEA30005FEA16
:10211000350528BF45F0010501F58011420875F12C
:10212000004250F1000041EB0451F0BC4FF4001CA0
:102130001CEB410F38BF70470020090D090570479F
:102140001CEB410F10D252EA43060BD0BCEB410FFF
:1021500005D80C0DAB43661E342EB5DD02E0AB4353
:1021600080185941F0BC7047F0BC704770470000C0
:1021700010B5DFF87C0682B0016841F4804101604F
:10218000016801F480410091009901684904FCD57F
:10219000DFF8602648F201111160816841F000719A
:1021A0008160806800F0007000900098012000F0CD
:1021B00097FD00F0DAFD01220221002000F09EFDD3
:1021C000DFF83416DFF834060968C1F30311072974
:1021D00004D1016841F00101016003E0016941F0AF
:1021E0000101016100F0D0FD00BF00BF0020DFF859
:1021F000104620604FF47A7000F0D8FD002000F007
:10220000EBFD00BF4FF4FA7000F0D0FD002000F0AD
:1022100057FD0028FAD100F0CBFE002000F00CFEA4
:1022200000F01BF8BFF36F8FBFF34F8F94ED080AD8
:10223000B5EE400AF1EE10FA04BF002000F008FEEF
:102240000F2000F0D9FE00F00DFF002000F000FE8E
:102250000021002000F03EFDD4E72DE9F04F81B0D1
:1022600000202DED028BADF5006D8AB08146039004
:1022700002AA03A90DF1520000F030FF012000F086
:1022800037FFADF8100004AD022000F031FF688088
:102290004FF0FF38032000F02BFFA8800027042018
:1022A00000F026FFE861C246052000F021FF00246F
:1022B000286208B907202862BDF91000002804BF71
:1022C000B5F90200002804D1B5F9040008B9662068
:1022D000A880BDF91000012804BFB5F9020000284C
:1022E00009D1B5F9040030B943F21540ADF810003A
:1022F00068806620A88015A8A860A5F840404FF423
:10230000FA60A861286AC10748BF4FF00109C0F30D
:10231000400109B109F10109C0F3800008B109F1D8
:1023200001094FF4FA601FFA89F1B0FBF1F0A861DE
:10233000002607A8296AF140C90706D5AA69A96835
:102340007A4311447F1C0160BFB2761C001D032E2E
:10235000F0DB95F82000C00706D5BDF91020E9682C
:10236000A86901F03BFA686295F8200080070AD559
:10237000BDF91000B5F9021040EA01422969A869C7
:102380000EAB01F0D3FD95F82000400705D56A6932
:10239000BDF91010A86902F01FFAE869002842D1BF
:1023A0000120E861E86900EB80014800E861A1468E
:1023B00000F060FEEF69AC63EC63BFB1012104A8DB
:1023C00001F0EEF8298F00F0B7FE2887514604A8E7
:1023D00001F0E6F8298F00F0AFFE2887B9F1000F71
:1023E00008BF688709F10109B945E7D300F04AFE43
:1023F00000F050FE00F053FEB0EE408AF0EE608A2E
:1024000051EC180B0022DFF8FC33FFF7F9F9C9D3C0
:10241000FFF7C6FA00B901200A22E969B2FBF0F021
:10242000401C4843E86100F025FEEF69AC63EC63B3
:10243000A146BFB1012104A801F0B2F8298F00F034
:102440007BFE2887514604A801F0AAF8298F00F0E6
:1024500073FE2887B9F1000F08BF688709F10109E9
:10246000B945E7D300F00EFE00F014FE8146BDF939
:102470001000E54F002100F091FF0146B5F9020080
:1024800000F08CFF0146B5F9040000F087FF01461B
:10249000A86900B200F082FF41F6F2018842ADF86F
:1024A000000000F0868144F6AF61884200F0778139
:1024B00047F60531884200F06D8148F602218842D6
:1024C00006D04EF6F511884200F06E8144465AE07F
:1024D000A2460FF24830DFF8348302F0EBF9386897
:1024E000002600284FD004A806EB061100EB810B54
:1024F0000020ABF840009BF82000C0070FD5BBF8C8
:102500003A2038F81A309A4209D031460FF2F830A2
:1025100002F0D0F9BBF84000401CABF840009BF83B
:102520002000800711D508F10C00BBF83C2030F8E2
:102530001A309A4209D031460FF2FC3002F0BAF953
:10254000BBF84000401CABF840009BF8200040075F
:1025500011D508F11800BBF83E2030F81A309A4225
:1025600009D031460FF2044002F0A4F9BBF8400054
:10257000401CABF84000761CBBF9400024183868BA
:10258000B6B28642AFD300F071FF241824B2BFF375
:102590006F8FBFF34F8FA9690FF2004002F08AF9E5
:1025A00049460FF2104002F085F9484600F077FDE9
:1025B00053EC102B0FF2144002F07CF9484600F067
:1025C0006EFD51EC100B00220023FFF731F915D2FC
:1025D000484600F064FD3868E969B0EE408AF0EEE4
:1025E000608A4843FFF7FCF953EC182BFFF798FB80
:1025F00002460B460FF2EC3002F05CF9484600F060
:102600004EFD51EC100B0022814BFFF7F9F805D27B
:102610000FF2E83002F04EF9641C24B23868E96920
:102620000FF2984841430FF2144002F043F90FF2C1
:102630003C410FF2204002F03DF941460FF2644068
:1026400002F038F90FF2FC410FF2E04002F032F9EB
:10265000BDF800100FF2F44002F02CF995F82000BC
:10266000C00713D538680FF2005B002670B104A8CC
:1026700006EB061100EB81003146428F584602F00E
:1026800019F9761C3868B6B28642F0D395F8200066
:10269000800713D538680FF2EC4B002670B104A800
:1026A00006EB061100EB81003146828F584602F09E
:1026B00001F9761C3868B6B28642F0D395F820004E
:1026C000400713D538680FF2D84B002670B104A824
:1026D00006EB061100EB81003146C28F584602F02E
:1026E000E9F8761C3868B6B28642F0D338680FF243
:1026F000CC4B002670B104A806EB061100EB81005C
:102700003146028F584602F0D5F8761C3868B6B2CA
:102710008642F0D3002C51D10FF2BC4002F0CAF82F
:10272000BAF1030F55D1484600F0B9FC0FF23C3026
:10273000E9690090B0EE408A3868CDF80480F0EE88
:10274000608A4843FFF74CF953EC182BFFF7E8FA7F
:1027500002460B460FF2CC4002F0ACF8484600F0BF
:102760009EFC3868E969B0EE408AF0EE608A484322
:10277000FFF736F953EC182BFFF7D2FA02F0ACF85A
:10278000244908600FF2BC310FF2B44002F092F815
:1027900016A01CE04FF0010A0FF2B0009BE64FF0CC
:1027A000020A0FF2D40096E64FF0030A0FF2FC0083
:1027B00091E64FF0040A0FF224108CE6012CA8BF1A
:1027C0000FF2844003DA002C03D50FF2904002F0A0
:1027D00071F80DF1520000F088FC0DF5006D0AB0A3
:1027E0000020BDEC028B01B0BDE8F08F0A000000B4
:1027F000D84402580044024000ED00E0046502584D
:10280000000002100000F03F2C000010000000103B
:10281000000024402000021070470000366B20703A
:102820006572666F726D616E63652072756E207081
:102830006172616D657465727320666F7220636F7B
:1028400072656D61726B2E0A00000000366B207697
:10285000616C69646174696F6E2072756E2070615D
:1028600072616D657465727320666F7220636F723A
:10287000656D61726B2E0A0050726F66696C65201F
:1028800067656E65726174696F6E2072756E207017
:102890006172616D657465727320666F7220636F1B
:1028A00072656D61726B2E0A00000000324B207061
:1028B0006572666F726D616E63652072756E2070F1
:1028C0006172616D657465727320666F7220636FEB
:1028D00072656D61726B2E0A00000000324B20762B
:1028E000616C69646174696F6E2072756E207061CD
:1028F00072616D657465727320666F7220636F72AA
:10290000656D61726B2E0A005B25755D4552524FF5
:102910005221206C697374206372632030782530F3
:102920003478202D2073686F756C642062652030C8
:1029300078253034780A00005B25755D4552524F8A
:102940005221206D6174726978206372632030783F
:1029500025303478202D2073686F756C6420626593
:10296000203078253034780A000000005B25755D42
:102970004552524F52212073746174652063726313
:1029800020307825303478202D2073686F756C6482
:10299000206265203078253034780A00436F7265F4
:1029A0004D61726B2053697A65202020203A2025E2
:1029B0006C750A00546F74616C207469636B7320CA
:1029C00020202020203A20256C750A00546F746165
:1029D0006C2074696D65202873656373293A20251E
:1029E000660A0000497465726174696F6E732F53D3
:1029F00065632020203A2025660A00004552524F88
:102A00005221204D75737420657865637574652057
:102A1000666F72206174206C6561737420313020A0
:102A20007365637320666F7220612076616C6964E0
:102A300020726573756C74210A0000004974657218
:102A40006174696F6E73202020202020203A202599
:102A50006C750A00436F6D70696C657220766572E3
:102A600073696F6E203A2025730A00004941522095
:102A7000432F432B2B20436F6D70696C657220666A
:102A80006F722041524D20372E36302E312E31318B
:102A90003130312028372E36302E312E3131313041
:102AA00031290000436F6D70696C657220666C613E
:102AB00067732020203A2025730A00002D2D6E6FA9
:102AC0005F73697A655F636F6E73747261696E7448
:102AD00073202D2D656E6469616E3D6C6974746C34
:102AE00065202D2D6370753D436F727465782D4D93
:102AF00037202D65202D2D6670753D564650763554
:102B00005F643136202D2D646C69625F636F6E6681
:102B10006967202D4F6873202D2D7573655F632BBA
:102B20002B5F696E6C696E65000000004D656D6F0E
:102B30007279206C6F636174696F6E20203A202572
:102B4000730A0000535441434B00000073656564F1
:102B5000637263202020202020202020203A203073
:102B600078253034780A00005B25645D6372636CFD
:102B7000697374202020202020203A2030782530CE
:102B800034780A005B25645D6372636D61747269F9
:102B90007820202020203A203078253034780A0010
:102BA0005B25645D6372637374617465202020200B
:102BB00020203A203078253034780A005B25645D87
:102BC00063726366696E616C2020202020203A20A9
:102BD0003078253034780A00436F72726563742050
:102BE0006F7065726174696F6E2076616C69646183
:102BF0007465642E2053656520726561646D652E71
:102C000074787420666F722072756E20616E642015
:102C10007265706F7274696E672072756C65732E61
:102C20000A000000436F72654D61726B20312E30D7
:102C3000203A202566202F202573202573000000D0
:102C4000202F2025730000004572726F727320647C
:102C5000657465637465640A0000000043616E6E0C
:102C60006F742076616C6964617465206F70657241
:102C70006174696F6E20666F722074686573652079
:102C8000736565642076616C7565732C20706C6566
:102C900061736520636F6D70617265207769746818
:102CA00020726573756C7473206F6E2061206B6E7B
:102CB0006F776E20706C6174666F726D2E0A000003
:102CC0000B4951F820000B49884201D10020704780
:102CD00001207047054A41F4807142F82010704786
:102CE00005490A68104308607047000000640258F4
:102CF000806402580001008010650258DFF88030BF
:102D0000D3F800C04FEA5C0C40EA4C0018603AB9B6
:102D1000186940084000186158694008400008E000
:102D2000012A186919D120F002001861586920F0B1
:102D300002005861DFF84C00026842F004020260B1
:102D4000BFF34F8FBFF36F8F01290CBF30BF20BF80
:102D5000016821F004010160704720F0040018614F
:102D6000586920F004005861704700B581B001F047
:102D700042FE032818BF40BF20BF01B000BD0000C5
:102D80000048025810ED00E000B581B0032001F0CA
:102D9000EBFD0F2000F030F910B1012001B000BDB3
:102DA00001F040FE002001B000BD000030B581B050
:102DB000044601F039FE14F1010F054602D0054822
:102DC0000078241801F030FE401BA042FAD301B075
:102DD00030BD00BF7800001070B50446DFF88800F1
:102DE000DFF8886086B0016841F480710160016895
:102DF00001F4807100910099016841F40071016053
:102E000001A9006800F40070009000980FF26000C3
:102E100050F8245001950120029003900320049063
:102E200056F8240001F006FE56F824000122A9B24B
:102E300001F0D9FE06B070BD0FF23401DFF82C307E
:102E400051F8201053F82000002289B201F0CBBEC7
:102E50000FF21C01DFF8143051F8201053F8200055
:102E6000012289B201F0BFBEE04402587000001098
:102E700004000000002000005849086910F03800E4
:102E800004D010280CD018280CD08BE00A685448C5
:102E9000920640F188800968C1F3C101C8407047BB
:102EA00050487047886A8A6ACB6AD1F834C003F008
:102EB0000103CCF3CC0CC2F305121CFB03F300EEB0
:102EC000103A002AB8EE400A6AD010F0030002D08F
:102ED000022836D03CE0DFED350A086820EE200AF3
:102EE00000EE902A8006F8EE600A18D508683C4A81
:102EF000C0F3C100C24001EE102A086BB8EE411ABF
:102F0000C1EE200AC0F3080001EE100AB8EE411A23
:102F100031EE000AB7EE001A30EE010A2FE0086B1E
:102F20009FED2C1AC1EE200AC0F3080001EE100A32
:102F3000B8EE411A31EE000AB7EE001A30EE010A7F
:102F40001DE000EE902AF8EE600A9FED171A05E0EA
:102F500000EE902AF8EE600A9FED1F1A086BC1EE92
:102F6000200AC0F3080001EE100AB8EE411ADFEDA6
:102F70000F1A00EE211AB7EE000A31EE000A086BB4
:102F8000C0F3462020EE800A401C00EE900AF8EEC6
:102F9000600A80EE200ABCEEC00A10EE100A7047EC
:102FA000002070471048704720BCBE4B000000391D
:102FB00000B581B001F034FE0D4A0C49126802F0F0
:102FC0000F02895C01F01F01C8400A49086001B086
:102FD00000BD00000024744C0024744A00440258D0
:102FE0000090D00340787D0100093D00744E100828
:102FF000184402588800001030B5184D044628784F
:1030000081B040B301F0F7FC03280CD129784FF4CC
:103010007A70B0FBF1F012490968B1FBF0F001F0F1
:10302000D9FC60B117E0FFF7C3FF2A784FF47A713B
:10303000B1FBF2F1B0FBF1F001F0CCFC58B9102C6F
:1030400009D2002221464FF0FF3001F09AFCAC601B
:10305000002001B030BD012001B030BD780000106B
:10306000840000100248016841F0020101607047CD
:1030700010E000E000B581B001F0F3FD14490860F4
:1030800001B000BD00B581B001F0EBFD1049486012
:1030900001B000BD0E4841680068081A704730B59D
